:1000000000800020BD010000B5C900006DC90000DE
:100010006DC900006DC900006DC900006DC9000008
:100020006DC900006DC900006DC90000B5C90000B0
:10003000B5C900006DC9000071E5000075E500005C
:10004000B5C90000B5C90000B5C90000B5C90000B8
:10005000B5C90000B5C90000B5C90000B5C90000A8
:10006000B5C90000B5C90000B5C90000B5C9000098
:10007000B5C90000B5C90000B5C90000B5C9000088
:10008000B5C90000B5C90000B5C90000B5C9000078
:10009000B5C90000B5C90000B5C90000B5C9000068
:1000A000FD18000009190000B5C90000B5C900001D
:1000B000B5C90000B5C90000B5C90000B5C9000048
:1000C000B5C90000B5C90000B5C90000B5C9000038
:1000D000B5C90000B5C90000B5C90000B5C9000028
:1000E000B5C90000B5C90000B5C90000B5C9000018
:1000F000B5C90000B5C90000B5C90000B5C9000008
:10010000B5C90000B5C90000B5C90000B5C90000F7
:10011000B5C90000B5C90000B5C90000B5C90000E7
:10012000B5C90000B5C90000B5C90000B5C90000D7
:10013000B5C90000B5C90000B5C90000B5C90000C7
:10014000B5C90000B5C90000B5C90000B5C90000B7
:1001500021EF000035EF000049EF00005DEF0000E7
:10016000B5C90000C5D10000B5C90000B5C900007F
:10017000B5C90000B5C90000B5C90000B5C9000087
:10018000B5C90000B5C90000B5C90000B5C9000077
:10019000B5C90000B5C90000B5C90000B5C9000067
:1001A000B5C90000B5C90000B5C90000B5C9000057
:1001B000B5C90000B5C900002DE30000564B4CF254
:1001C000205210B51A804DF628121A8000BF00BFC9
:1001D0000CF0F4FB514B4FF010621A60504A9A60D9
:1001E000504ADA60504A136813F4807304D14F49BF
:1001F0000B604FF4A85313604D4B1A78110703D5C9
:100200001A7842F008021A704A4B4B492A221A7097
:100210004A4A4B4B8B4204D252F8040F43F8040B6A
:10022000F8E7484B484900228B4202D243F8042B9E
:10023000FAE74649464A002352F8230041F82300D2
:1002400001336F2BF8D1434B434A802103F8011B44
:100250009342FBD1414B3D4A1A60414B8A221A70AE
:10026000A3F5805324225A70A0221A709A7992071B
:10027000FCD59A79D406FCD43A4A937903F00C035E
:10028000082B384BF9D105221A7143225A719A79F9
:100290009006FCD5334A9179324B4906FBD5324A58
:1002A0004FF0817111600521516020221A709A79F6
:1002B00002F00C020C2AFAD12C4B2D4A1A602D4B5D
:1002C0002D4A1A6000225A60072243F8042C2B4A58
:1002D000C3F80C2D62B60CF02BFE144B1B68DA072A
:1002E00005D527480CF0AAFC264B274A1A60274B55
:1002F0001B785B0609D5234C234B22689A4204D114
:100300001F480CF09BFC002323600FF07DFF0CF0D6
:100310005BFB0EF0D3FCFEE70E200540308004406E
:10032000823F04000100002B10D0034014D0034092
:1003300002D0074000E00740C0A8FF1FBC610100D9
:10034000209BFF1FC0A8FF1F00B3FF1F0096FF1FC9
:100350000000000000E400E05FE400E008ED00E0E1
:1003600000500640004006404480044004800440A1
:10037000C010050014E000E03F190100000020203B
:100380006BD1D45F1CE00340A5C3945A00F0074032
:10039000FFFFFFFFFFFFFFFFFFFFFFFFFFFFFFFF6D
:1003A000FFFFFFFFFFFFFFFFFFFFFFFFFFFFFFFF5D
:1003B000FFFFFFFFFFFFFFFFFFFFFFFFFFFFFFFF4D
:1003C000FFFFFFFFFFFFFFFFFFFFFFFFFFFFFFFF3D
:1003D000FFFFFFFFFFFFFFFFFFFFFFFFFFFFFFFF2D
:1003E000FFFFFFFFFFFFFFFFFFFFFFFFFFFFFFFF1D
:1003F000FFFFFFFFFFFFFFFFFFFFFFFFFFFFFFFF0D
:10040000FFFFFFFFFFFFFFFFFFFFFFFFDEF9FFFF23
:1004100010B5054C237833B9044B13B10448AFF33E
:1004200000800123237010BDC0A8FF1F0000000042
:10043000B8610100084B10B51BB108490848AFF37B
:1004400000800848036803B910BD074B002BFBD0A0
:10045000BDE81040184700BF00000000C4A8FF1FFF
:10046000B8610100C0A8FF1F0000000010B50446DD
:1004700024300EF087F904F114000EF083F9201DEA
:100480000EF080F9204610BD10B5064B044640F82A
:10049000443B0EF077F904F130000EF073F920467A
:1004A00010BD00BF7050010010B504460EF06AF98F
:1004B000204610BD022101480BF024BA84ABFF1F77
:1004C00001B17047014801F0CFBD00BFDCA8FF1F9C
:1004D00001480CF09DB800BF68AAFF1F38B51A4D3F
:1004E0001A4C28460BF000FB014620460CF074F82D
:1004F00028460BF0FBFA014620460CF071F828461E
:100500000BF0F6FA014620460CF06EF828460BF088
:10051000F1FA014620460CF06BF828460BF0ECFA95
:10052000014620460CF068F828460BF0E7FA014631
:1005300020460CF065F828460BF0E2FA014620460A
:10054000BDE838400CF060B808ABFF1F68AAFF1F79
:1005500008B50121044801F04DFE03210348BDE820
:1005600008400BF0CFB900BFDCA8FF1F84ABFF1F12
:1005700008B50321044801F03DFE05210348BDE80C
:1005800008400BF0BFB900BFDCA8FF1F84ABFF1F02
:1005900008B50221044801F02DFE04210348BDE8FE
:1005A00008400BF0AFB900BFDCA8FF1F84ABFF1FF2
:1005B00008B50421044801F01DFE06210348BDE8EA
:1005C00008400BF09FB900BFDCA8FF1F84ABFF1FE2
:1005D00000B585B0334968460EF014F969463248D3
:1005E00004F0AEF968460EF0CDF83049304801F01D
:1005F000F5FD2F4801F0BCFC2C492E480CF07AF890
:100600002C480BF0DFFF2C480AF07AFE27492B48D4
:100610000BF06CF9284929480AF0AAFE28480BF08B
:1006200081F90022274926480BF098FA0022204938
:1006300020480CF03BF8002223491E480BF0EEFF47
:10064000002222491B480BF0FBFF002220491948D9
:100650000CF008F800221F4916480CF039F8002267
:100660001D4914480CF010F800221C4913480BF0E7
:100670002BF911490C4804F043F9194B104800229A
:100680001A600BF069FA212807DDFF2003221549C3
:100690000CF014FA05B05DF804FB09480BF05CFAA5
:1006A000C0B2F3E7584E010030AAFF1F4C9EFF1F57
:1006B000DCA8FF1F68AAFF1F5CACFF1F84ABFF1FF5
:1006C00008ABFF1FDD040000B50400005105000069
:1006D0007105000091050000B1050000C104000093
:1006E00030AEFF1FD104000008B50021114801F011
:1006F000A7FA0021104801F0A3FA00210F4801F0E9
:100700009FFA00210E4801F09BFA0E4805F0CEFC3E
:100710000D4B1B68092B0CD00A4804F01BFB40B1A1
:100720000A4808F021FB00210648BDE8084004F013
:1007300013BB08BD08ABFF1F68AAFF1FDCA8FF1F83
:1007400084ABFF1F30AAFF1F30AEFF1F5CACFF1F42
:100750002DE9F8430021BD4CBD48BE4EBE4F0EF002
:1007600051F8BE4ABE49BA480EF004FC2C220021C2
:10077000204610F023F9BB4B23600125FF23637251
:100780006375A375002104F130002572E5620EF057
:1007900039F8002104F1440025640EF033F8326882
:1007A0006765002384F85D30636684F85C302366F7
:1007B00011460AB93BE119464B69002BFBD1AA4B04
:1007C0004B6113460022A948A7674FF48041A266F7
:1007D000A4F85820A4F85A2084F85E2084F88120D8
:1007E000C4F8882084F88020C4F88420606561679C
:1007F00000E02B465D69002DFBD1DFF8B482DFF805
:10080000B492C3F814804046C4F88C50A4F87C50CD
:10081000A4F87E5084F88250C4F89050C4F89450E4
:10082000C4F89850A4F89C50C4F8789001F0A0FF48
:100830003268C4F8AC7084F8B550C4F8BC5084F881
:10084000B450C4F8B85083490AB9F4E01A46536961
:10085000002BFBD1864B536100258548C4F8AC9032
:10086000C4F8C050A4F8B050A4F8B25084F8B65000
:10087000C4F8C450C4F8C850C4F8CC50A4F8D05040
:1008800001F076FF7B48C4F8F0004FF0040E0246FA
:1008900084F8E8502B46C4F8EC50C4F8E0702946C0
:1008A000A0F5847084F8E9E001E0D0F8F02042F887
:1008B000231094F8E92001339A42F6DC3268654B44
:1008C0000AB9BCE01A465369002BFBD16A4B53614D
:1008D0006A48DFF8E4E1C4F8187100214FF480356C
:1008E00001270246C4F828010B46A0F59870C4F809
:1008F000F410A4F8E410A4F8E61084F8EA1084F8E0
:100900002011C4F82411C4F8E0E0C4F8F850C4F889
:10091000FC50C4F80051C4F8045184F8217101E07E
:10092000D0F8282142F8231094F8212101339A426B
:10093000F6DC3268474B0AB984E01A465369002B4B
:10094000FBD14F4B536100254E4B4F4FC4F818312C
:10095000C4F82C51A4F81C51A4F81E5184F822515B
:100960004748DFF8588101F0A5FDC4F84451C4F8A8
:100970004851C4F84C51A4F85051384A43493348BF
:10098000C4F83451C4F83851C4F83C51C4F840514B
:100990000EF0F0FA294638462C2210F00FF83846AF
:1009A000FF263B4B3B4C40F8383B4FF001092946B2
:1009B0006B2287F808907E727E75BE750BF0E8F8A2
:1009C000294640462C2287F85C500FF0F7FF294655
:1009D000314B88F80890204688F8096088F815603F
:1009E00088F816602C22C8F800300FF0E7FF0823C3
:1009F0002A4A84F8089066726675A6752848C4F875
:100A00008830C4F88C302260C4F8D45003F060FF02
:100A1000124A244922480EF0ADFA234805F0C2FBE1
:100A20000E4A22492048BDE8F8430EF0A3BA04F16B
:100A300054033360C6E608F134030B600CE70E4A3A
:100A40001A6045E70E4A1A607DE700BFDCA8FF1F69
:100A500020AEFF1F4CB2FF1F544E0100FC9BFF1F36
:100A600085E700007050010030A9FF1FB05201005F
:100A700088A9FF1FE4A9FF1FBCA9FF1F0CAAFF1F25
:100A8000F4A9FF1F9852010008ABFF1F8904000062
:100A9000285C010084ABFF1FB45C0100F85B01001F
:100AA00030AAFF1F6D0400005CACFF1FA90400000A
:100AB00054A9FF1FA45201008C52010068AAFF1F15
:100AC00010B4047F4160022CC26002D010BC0DF053
:100AD000EDBC836810BC18472DE9F0410468E56857
:100AE00015F0807F794D256052D1DF0740F1B3804A
:100AF000002900F0E3800D78012B18BF45F0004578
:100B00006563013190F8248003F1FF3C48EA08282E
:100B1000BCF1000F00F0A88021B14D7811F8028BD4
:100B200045EA082845682E7ABCF1020F06F1FF3627
:100B30004FEA06360CBF48F0805548F01045B6B273
:100B40006563ACF1020C08E00AB114700132013B9C
:100B500005F47045B54216D90468E56A15F0F00F42
:100B6000F6D0A46B13F0010F17464FEA242EEBD1F9
:100B70001AB107F802EB54703A4605F47045B542D5
:100B8000A3F10203E8D8BCF1000F6DD00468C3E7FD
:100B9000DD074CD5002900F089800D78012B18BFA6
:100BA00045F000456563013103F1FF3E90F824C034
:100BB000BEF1000F41D029B191F801C00D7802318A
:100BC00045EA0C2C45682E7ABEF1020F06F1FF367D
:100BD0004FEA06360CBF4CF080554CF01045B6B2CB
:100BE0006563AEF1020E08E00AB114700132013BF8
:100BF00005F47045B54215D90468E56A15F0F00FA3
:100C0000F6D013F0010F1746A46BEDD122B107F80F
:100C1000024B241254703A4605F47045B542A3F1D4
:100C20000203E9D8BEF1000F07D00468C3E79E466F
:100C300090F824C0BEF1000FBDD11BB30468E16A77
:100C400011F0F00FFBD0A16BDC071DD50AB11170BC
:100C50000132013BF1E790F824809C4648EA0828DD
:100C6000BCF1000F7FF458AF63B10468E16A11F082
:100C7000F00FFBD0DE07A16B0FD50AB11170013266
:100C8000013BF1E7BDE8F0812AB114460D1204F8EA
:100C9000021B55702246023BCFE72AB114460D12C3
:100CA00004F8025B51702246023BDDE790F82450C5
:100CB000012B18BF45F00045656375E790F8245097
:100CC000012B18BF45F0004565631BE700041F803A
:100CD000F0B4464B464A186BDC6A017911704549FD
:100CE00022790A709A6A00790870002A46D05968F9
:100CF000C9688A423ED82168CC8B240402F1FF30B7
:100D000065D4C0F30E00C883C88B80B2C882196B4B
:100D10000968C88B000452D4C2F30E00C883C88B84
:100D2000002480B212F1FF32C88218BF01229C62F7
:100D3000D96A2E4809680D6800F12404A54236D00E
:100D40000068C46814F0804F0C680D6815BF2488D3
:100D500024780235013544F000440D604463196B7A
:100D6000254B09791970214912B1CA6A12791A7092
:100D7000F0BC7047521A9A620122D9E7586B196881
:100D800005681E4C0A63CC62CC682D681C4E24F0AA
:100D900080440327B542CC6083F825701FD1037FC0
:100DA0004260022BC2601ED0F0BC0DF07FBB016818
:100DB00090F82400CC6840F000404863CFE7CC8B2B
:100DC000C2F3080004F47E442043C883A7E7CC8B19
:100DD000C0F3080004F47E442043C88394E72B4604
:100DE0001146F0BC18478368F0BC1847009CFF1FF1
:100DF0001F8000401C8000401B80004000000FFF4F
:100E0000C10A000090E80C00F0B41C68596825681D
:100E1000164F174E29432160164D17491760D660AB
:100E200015611160417A154A5C180A3194F8244022
:100E300053F8215002EBC40149680D60017A5C1837
:100E400003EB8101247ECD6902EBC40149680D608A
:100E5000817A581803EB810390F83000596B02EB4C
:100E6000C002F0BC53681960704700BF01401F000A
:100E7000011000380110007800001F800C5D010097
:100E80005E2911D830B44A09C57A012303FA02F465
:100E90002C4300EB8202C472D06801F01F0103FAF8
:100EA00001F10143D16030BC704700BF5E2913D807
:100EB00030B44D0900EB850401F01F01E368012205
:100EC00002FA01F123EA0101E16021B9C37AAA40E3
:100ED00023EA0202C27230BC704700BF4268036856
:100EE00005CA10B4046822430260DA6881B942F08E
:100EF0008072D9688A4209D0196848040BD409481D
:100F0000186042F08040DA601861196010BC7047C8
:100F100022F08072EDE742F08041DA6010BC196186
:100F2000704700BF01401F0043680CCB11680B43A2
:100F3000136070474268036805CA10B4046822430E
:100F40000260D868840100F0E06205D5080900F469
:100F5000706021F470410143D8681143814209D087
:100F60001A68500408D40748186041F08040D960DE
:100F700018611A6010BC704741F08042D96010BC03
:100F80001A61704701401F00204A43689A42F0B43A
:100F90000FD0427A1A4492F82420914207D093F855
:100FA00024408C4215D093F825408C422AD0F0BCC6
:100FB00070470B2907D00729EBD1154C227842F056
:100FC00001022270E5E7124C227822F00102227021
:100FD000DFE7002421461E685D6836682E420FD088
:100FE0000C4D05EBC202002756685A18376092F87C
:100FF000242005EBC2050A316A6853F821301360DA
:101000004472D4E701242146E5E700BF604E0100A9
:10101000A0B2FF1F0C5D01001E4A43689A42F0B463
:101020000CD0027A1A44127E914205D01C7E8C426A
:1010300014D05C7E8C422AD0F0BC70470C2907D0BB
:101040000829EED1144C227842F002022270E8E71F
:10105000114C227822F002022270E2E7002421469D
:101060001E685D6836682E420FD00C4D05EBC2023B
:10107000002756685A183760127E063105EBC20504
:1010800003EB81036A685B6813600472D4E7012490
:101090002146E5E7604E0100A0B2FF1F0C5D010094
:1010A000204A43689A42F0B40FD0827A1A4492F8E8
:1010B0003020914207D093F830408C4215D093F8FD
:1010C00031408C422BD0F0BC70470D2907D00E293F
:1010D000EBD1154C227842F004022270E5E7124C65
:1010E000227822F004022270DFE7002421461E68E5
:1010F0005D6836682E4210D00C4D05EBC202002709
:1011000056685A18376092F830200C3105EBC2054A
:1011100003EB81036A685B6813608472D3E7012480
:101120002146E4E7604E0100A0B2FF1F0C5D010004
:101130000BB1FFF7D1BC70470020704790F8392001
:1011400090F83800101A704790F8383090F839202D
:101150009A4205D95A1C034480F83820187E7047FB
:101160004FF0FF30704700BF90F8383090F83920CA
:101170009A4286BF1B18187E4FF0FF30704700BFA1
:10118000704700BF38B50546B0F85E0090B195F8DD
:101190005D301446C3F1210294420CD805F13B00A6
:1011A000184422460BF0BAFA95F85D30234485F8CE
:1011B0005D30204638BD012014462871EEE700BF9F
:1011C000B0F85E306BB190F85D30202B07D8C218B4
:1011D000013380F85D30012082F83B107047012315
:1011E00003710020704700BF0023426980F8383047
:1011F00080F8393080F85C3080F85D3080F85E30FF
:1012000080F85F3006CA30B40D68046943662A432B
:1012100083660A60A370426990F8613016491468C9
:1012200013441D7A5B7B01EBC5051B026D6803F45B
:10123000E06343F064032B6090F8623013449D7CBC
:10124000DB7D01EBC5011B02496803F4E06343F059
:1012500064030B6021685368194205D00369282292
:101260005A70036903229A71036920225A71036933
:1012700080229A7030BC70470C5D010070B490F809
:10128000613045692B441E7A8E420AD0EC1D002342
:1012900014F8012FFF2A04D08A4204D00133052B11
:1012A000F6D170BC704795E806000968114211D06C
:1012B0000A4901EBC6061D447268002414602C7AAA
:1012C0006A7B01EBC401120202F4E062496842F059
:1012D00064020A6080F86130E3E700BF0C5D010042
:1012E00070B490F8623045692B449E7C8E420BD0DE
:1012F00005F11104002314F8012FFF2A04D08A42BB
:1013000004D00133052BF6D170BC704795E8060078
:101310000968114211D00A4901EBC6061D447268E2
:1013200000241460AC7CEA7D01EBC401120202F4DB
:10133000E062496842F064020A6080F86230E3E7E4
:101340000C5D010010B50269D378DBB2D906044602
:101350003DD510215806D17038D503F0040303F0B1
:10136000FF02002B51D03D49626E00230B7084F8C0
:101370005D30002A5BD0904794F85D30002B56D04A
:101380002369D0229A70236994F83B201A7123694B
:10139000012284F85C200222DA7010BD304B84F800
:1013A00060009C424AD02F4B9C4252D094F8391096
:1013B00013791F29DBB207D82848007820B16018BC
:1013C000013184F8391003760223D37010BD590619
:1013D000C3D4917801F0100101F0FF000029DDD0A5
:1013E00013F001031ED194F85C1094F85D0088425C
:1013F00081BF4B1C091984F85C3091F83B301371A4
:101400002369D0229A702269DEE7236984F83920A3
:10141000C0229A702369114A1979012111700222A0
:10142000DA7010BDC023937022691379CCE70122D2
:10143000002384F85D2084F83B30A1E7626994F8CA
:101440006130094913440322187A0BF037FB2269F3
:10145000ACE7626994F861300449F3E734AEFF1FEA
:10146000389CFF1FA49CFF1FCD140000D91400005E
:101470000369DB7803F0200373B190F86030013327
:10148000DBB2012B80F860301AD9426990F86130E4
:101490001344187A0BF08EBB70B5426903F0FF0558
:1014A00090F8613013440446187A0BF083FBA36E66
:1014B0005BB184F8385094F83900BDE870401847A3
:1014C00090F85F30002BE0D0704770BD0148FFF707
:1014D000CFBF00BF389CFF1F0148FFF7C9BF00BF47
:1014E000A49CFF1F2DE9F047364FDFF8DC903B68E6
:1014F000026982B006460093DDF80080002178255D
:10150000D3789B065AD53B680193019BC8EB030334
:101510000F2BF5D949B1102BF2D000209070336910
:1015200080229A7002B0BDE8F087726996F8613047
:1015300013440521187A0BF0A5FC726996F8613006
:101540001344012193F812A050460BF09BFC092490
:10155000002150460BF082FC2B46013BFDD10121BE
:1015600050460BF07BFC2B46013BFDD1013CEFD1FB
:10157000706996F861100144F0220C7A4B7B09EBFC
:10158000C4011B02496803F4E06343F064030B6089
:1015900096F862300344997CDB7D09EBC1011B02A4
:1015A000496803F4E06343F064030B60013AFDD142
:1015B0003269D3789B064FF00101A4D4012002B018
:1015C000BDE8F0874CB1FF1F0C5D0100F0B5036969
:1015D0001222DA700269937803F0200385B0044682
:1015E0000D46002B5ED0B42393703C4922690B68F2
:1015F0000093009E05E00B680193019B9B1B042B4D
:1016000042D8D37803F0200303F0FF00002BF2D080
:1016100094F85D30002B31D04FF0000E4FF0020CEB
:1016200004EB0E0393F83B3013710B680393039F95
:10163000206907E09B060DD50B680293029BDB1B1C
:10164000052B28D8C378DBB203F0020202F0FF06B4
:10165000002AEFD080F803C02669F378DBB2DF06FA
:1016600032462DD49F062BD5DB0731D40EF1010E67
:1016700094F85D305FFA8EFE7345D1D800201DBB13
:10168000002384F85E3004E09070236980229A7011
:10169000042005B0F0BD86702369802204209A7072
:1016A00005B0F0BD03F0FF06FFF71CFF10B90420E2
:1016B00005B0F0BD236984F85F60B0229A7094E7AA
:1016C0008023B3700420DAE726698023B370D7E75C
:1016D000BEF1000F0CBF02200320F6E74CB1FF1F44
:1016E0002DE9F04106690025122780F8385080F86E
:1016F0003950F770D0F810C09CF802E00EF0200EC0
:1017000088B00446884615461E46BEF1000F49D0F3
:10171000B4238CF80230784B21691A680092DDF806
:1017200000E006E01A6801920198CEEB0000042860
:1017300030D8C87800F0200000F0FF070028F1D072
:101740004FEA480242F00102D2B20A711A680292CC
:10175000DDF808E0206906E01A6803920399CEEBF1
:10176000010105292AD8C17801F0020101F0FF0723
:101770000029F1D04FF0020C80F803C02269D17823
:1017800011F0110722D12DBB002E0CBFA023802306
:10179000937003E08F70236980229A70384608B0F6
:1017A000BDE8F0810EF0FF07FFF79CFE0028F5D0A2
:1017B000236984F85F70B0229A70ACE78770236960
:1017C000802238469A7008B0BDE8F081802393707B
:1017D0000027E3E7012D75D0A021917021690A79D6
:1017E000BE4667464FF0A80C1A680492049805E0BC
:1017F0001A680592059A121A052A4AD8CA7802F080
:10180000020202F0FF08002AF2D0CF702169CA78E4
:10181000D2B212F0100F08465AD1920658D5013DA7
:10182000EDB2012D49D0BEF11F0F3BD90A79012D30
:10183000DAD11A680692069D05E01A680792079A9F
:10184000521B052A46D8C27802F0020202F0FF01BC
:10185000002AF2D00223C3702269D378DBB2D90602
:101860003AD49B0634D5B023BEF11F0F93703FD8F6
:10187000226904EB0E0312791A760EF1010E5FFA5B
:101880008EFE16B1236980229A7084F839E077467B
:1018900084E781F80280236980229A70774684F871
:1018A00039E07BE704EB0E0291F8048082F818809F
:1018B0000EF1010E5FFA8EFEB9E781F802C02169D0
:1018C0000846B0E7A82191702069BE460279B0E7CA
:1018D000774663E78170DEE710217823D170013B02
:1018E000FDD12269937803F0F7037746937055E7AB
:1018F00023691B79C5E700BF4CB1FF1F0148FFF703
:1019000021BD00BF389CFF1F0148FFF71BBD00BF72
:10191000A49CFF1FF0B53D4C83B024680194DDF812
:1019200004E0044616461D460F46002371460A226F
:101930000CF074FE236836495B68082220469847FD
:1019400030460FF01DFD2368024631465B68204695
:10195000984723682F495B682046012298473946FB
:101960002046002310220CF059FE23682A495B68A8
:1019700006222046984728460FF002FD23680246BB
:1019800029465B6820469847236824495B680422FF
:101990002046984708980FF0F3FC236808995B6885
:1019A00002462046984723681D495B68042220466A
:1019B000984709980FF0E4FC236809995B68024690
:1019C00020469847236817495B68204602229847BB
:1019D0000B99204600230A220CF020FE23681249AE
:1019E0005B6820460B2298470A99204600230A226A
:1019F0000CF014FE23680D495B68042220469847CA
:101A000020460CF0FBFD03B0F0BD00BF4CB1FF1F42
:101A10003C4F0100484F01004C4F0100544F010062
:101A20005C4F0100644F0100684F0100744F0100DA
:101A30000B7A5B0700D532B10368CB6001600B7A8B
:101A400043F004030B72704790F91500704700BF14
:101A5000002330B44A1E1D4600E0013312F8014F46
:101A6000002CFAD101358542F7D1581C084430BC0E
:101A7000704700BF10B402624162836110BC7047BE
:101A800010B5037A016123F00103043204460277A2
:101A90000372014600220548FFF7CAFFFF23002218
:101AA000227563756372204610BD00BF38AEFF1FFC
:101AB0002DE9F04F85B09A46BAF1FF3F0F9B0E9F7C
:101AC00003930C461546DDF84080DDF8449028D09D
:101AD000012F18DD039BB3B105EB4505002604EB90
:101AE0008504354620460095013600234A46414686
:101AF00000F006FAB74204F10C04F3D105B0BDE8DA
:101B0000F08F4FF0000A554405EB4500002304EB2D
:101B100080004A4641460E9305B0BDE8F04F00F004
:101B2000EFB9002FEDDD02EB4203002601EB830B42
:101B3000B246584600F0F2F9002808BFB246013616
:101B4000B7420BF10C0BF4D1C2E700BF2DE9F04F07
:101B500085B09A46BAF1FF3F0F9B0E9F03930C4648
:101B60001546DDF84080DDF8449028D0012F18DDBF
:101B7000039BB3B105EB4505002604EB8504354610
:101B800020460095013600234A46414600F0AAF956
:101B9000B74204F10C04F3D105B0BDE8F08F4FF06B
:101BA000000A554405EB4500002304EB80004A463B
:101BB00041460E9305B0BDE8F04F00F093B9002FF9
:101BC000EDDD02EB4203002601EB830BB2465846E3
:101BD00000F0A4F9002808BFB2460136B7420BF165
:101BE0000C0BF4D1C2E700BF2DE9F04112F08004E4
:101BF000069FDDF81C8017D022F080049C4211DA89
:101C000004EB44051E4601EBC505284601340023BC
:101C10004246394600F048F9A64205F10C05F4D1D8
:101C2000BDE8F081BDE8F0811A4402EB420001EB0F
:101C30008000234642463946BDE8F04100F034B901
:101C40002DE9F04F7C4E8BB033680693DDF8188099
:101C500004460F46237A9D074FD1A26A94F91410C7
:101C600043F00203013201312372A26250D194F990
:101C70001510227F2069012311FB0233034493F9DD
:101C800000104B1C04D023682046DB689847227F55
:101C9000032A40F3B9804FF0030E75460AE094F929
:101CA000093099451DD0227F01356DB29542AE466F
:101CB00080F2AA80216994F9153002FB0313AEF17A
:101CC000030913F905A0BAF1FF3F4946204602F186
:101CD000FF33E9D0734504D023689B6898470028F8
:101CE000DDD0237A84F814A0033DFF22A57503F00C
:101CF000FE03627223F00203237233680993099B87
:101D0000C8EB0303BB42A5D320460BB0BDE8F08F60
:101D100023686FF00201DB6820469847256A002D92
:101D20003ED094F91530D4F82490581C7ED0207FF2
:101D3000D4F818A00344981E411C79D000286ED016
:101D40005146FFF785FE834694F914104A1C6BD068
:101D5000207F0144881E431C66D0002858D051467D
:101D6000FFF776FE034694F91600411C55D001306A
:101D7000421C52D0002849D051460593FFF768FE17
:101D8000059B326807926168079A0190511AA26A0E
:101D90000392009302915B46524648462146A8476B
:101DA00094F91530002B09DB257F21692268022078
:101DB00013FB0503D268C95620469047326894F950
:101DC00014000892237F089D2268656010FB03F3CE
:101DD00021696075FF252575C956D3682046984747
:101DE00094F91530227F2069012113FB0211431859
:101DF000415CFE29217A0CBF41F0010121F0010173
:101E000021720021A1623AE7237A73E75046B8E7CE
:101E100094F91600411C5346A9D10848B1E794F93A
:101E200014104A1CD34693D1044B9CE7D4F818A055
:101E3000DFF808B088E700BF4CB1FF1F7C4F0100FE
:101E400070B504460E46082501E05A1C27D1237AB6
:101E500023F00103237200212046FFF7F1FE94F9DD
:101E60001520237F216912FB03630B44013D93F985
:101E70000330EAD1002B10DB237A667223F00103D2
:101E8000237200212046FFF7DBFE237A23F00103B3
:101E9000237200212046FFF7D3FE204670BD94F93F
:101EA00009200132D3D1E5E710B5047804F0070426
:101EB000012C0CD0032C08D1436833B11A68816817
:101EC000526818469047012010BD012010BD3BB953
:101ED00043681BB180689847204610BD204610BD5E
:101EE000002010BD10B49DF904404160640144F02D
:101EF000010444EAC3038260037010BC704700BF52
:101F000010B49DF904404160640144F0030444EAC4
:101F1000C3038260037010BC704700BF007800F0FC
:101F20000700704701607047054B49681B6882B025
:101F30000193019B5B1A1A44026002B0704700BF14
:101F40004CB1FF1F03685A1C0CD0074A486812683E
:101F500082B00192019A101A83428CBF00200120A6
:101F600002B07047002070474CB1FF1F002070473F
:101F7000F8B505223849394D0446FFF781FD0121A6
:101F800010200AF07FFF002110200AF067FF28468A
:101F90000E21FFF785F828460B21FEF7F5FF0C21EF
:101FA0002846FFF739F80A2002F0F2F814200CF066
:101FB0008DFE002504F1540204F1E007012380E8BE
:101FC0008400064643720572C56005740CF062F920
:101FD000C4F8346114200CF079FE04F1780306464D
:101FE0000360476005724572C56005740CF052F9D4
:101FF000C4F8386114200CF069FE04F1AC0202232D
:1020000002600646437247600572C56005740CF0B5
:1020100041F9C4F83C6114200CF058FE04F58C73AF
:1020200006464360076005724572C56005740CF092
:1020300031F9C4F84061102109480CF035F84FF42B
:102040008033084AC4F8FC502267C4F8F830C4F85A
:10205000003163672046F8BDEC4F0100009CFF1F74
:102060000082FF1F887BCD0510B50121044610209A
:102070000AF0F4FE32200AF00BFF4FF48033C4F86C
:10208000FC307D200AF004FF0021C4F8FC10102071
:10209000BDE810400AF0E2BE10B5044688B0082939
:1020A00031D8DFE801F032326F757C82053B690080
:1020B00090F8A83013B1783000F060FB0A210120BD
:1020C0000CF044FB3F49E06204A80CF09BFB0A22A1
:1020D000E16A68460CF0C8FB694604A80CF0A0FC55
:1020E00039490CF0A5FC014604F130000CF016FC57
:1020F00068460CF047FB04A80CF044FB216B04F18C
:10210000AC0000F057FB08B010BD90F8A830002BD1
:10211000F9D1002110200AF0A1FEF4E790F8DC309C
:10212000002BF0D190F8A830002B47D108210120D6
:102130000CF00CFB2549206404A80CF063FB0A2278
:10214000216C68460CF090FB694604A80CF068FC12
:102150001D490CF06DFC014604F144000CF0DEFB5F
:1021600068460CF00FFB04A80CF00CFB616C04F14A
:10217000AC0000F01FFBC6E71549783000F01AFBF1
:1021800008B010BD012110200AF068FE08B010BD93
:10219000FFF76AFF2046FFF767FF08B010BD0D4943
:1021A000783000F007FB08B010BD90F8A830002B85
:1021B000A9D10949783000F0FDFAA4E7783000F0A1
:1021C000DDFAB3E7485001006050010050500100B3
:1021D000585001002C5001003C50010010B5034B39
:1021E000034A0446FFF746FC204610BD844F010019
:1021F0001519000010B50446FFF722FE204610BD59
:10220000FFF722BC10B504460CF036F9204610BD8D
:10221000024A034903480CF0ADBE00BFFC9BFF1F00
:10222000052200003CAEFF1F38B5074D074C08489B
:102230002A4621460CF09EFE2A4621460548BDE866
:1022400038400CF097BE00BFFC9BFF1F052200002A
:1022500044AEFF1F4CAEFF1F024A034903480CF077
:1022600089BE00BFFC9BFF1F0522000054AEFF1F6C
:10227000024A034903480CF07DBE00BFFC9BFF1FD0
:10228000052200005CAEFF1F024A034903480CF020
:1022900071BE00BFFC9BFF1F0522000064AEFF1F44
:1022A000024A034903480CF065BE00BFFC9BFF1FB8
:1022B000052200006CAEFF1F024A034903480CF0E0
:1022C00059BE00BFFC9BFF1F0522000074AEFF1F1C
:1022D000024A034903480CF04DBE00BFFC9BFF1FA0
:1022E000052200007CAEFF1F2DE9F8434FF00008E7
:1022F000064600F11805474641463046002F4FD0AC
:102300000BF09AFFF0B12C68B4F5803F07F104019F
:1023100000F1040E07F5827C27D05EF8042B34FB15
:1023200002F334FB12F903F30F0209F30F03C2EABD
:1023300003430A6893FA12F341F8043B8C45ECD846
:102340000BF036FF08F10108B8F1040F05F10405A0
:10235000D2D1002F40D03046394600220BF052FF38
:102360003846BDE8F8430BF023BF07F10C0100F13C
:102370000C0451F8083C54F8082C93FA12F341F875
:10238000083C54F8042C51F8043C93FA12F38C45A1
:1023900041F8043C04F1080401F10801E9D8CFE751
:1023A0000BF056FF07460028CCD02868B0F5803FD8
:1023B000C8D0391D07F582740B6830FB03F230FB7F
:1023C00013F302F30F0203F30F03C2EA034341F8CE
:1023D000043B8C42F0D8B5E7BDE8F883024A0349D4
:1023E00003480CF0C7BD00BFFC9BFF1F0522000087
:1023F00084AEFF1F10B500210BF01EFF70B172B646
:102400000A4B1A6872B10A490C6844B11C60086032
:1024100062B61046BDE810400BF0CABE10BD0860A1
:1024200062B610BD186062B610BD00BF9CAEFF1F43
:102430008CAEFF1F38B5184B18491A68184C126833
:102440001B79184D0B70A242286836BF2246A4F5AE
:10245000807202F58074C0B1011D31F9023B03F5B1
:1024600000431B1122F8023B9442F6D80BF0A0FE69
:102470000D4B0022196829601A600C4B1B781BB1A8
:102480000B4B4FF080421A6038BD4FF4006322F8C6
:10249000023B9442FBD8F0E790AEFF1F1F80004044
:1024A0004093FF1F9CAEFF1F8CAEFF1F98AEFF1F17
:1024B00008E200E0F8B501214248434E0BF078FFF6
:1024C000424A43491368802043F480531360002438
:1024D000087040F608053480012008340AF0D8FC62
:1024E000A3B2AB421CB2F6D13A4B1B685B0208D5D3
:1024F000394B1A6848F6A273134048F6A272934209
:102500004FD03449344A0B68344F354D3548364C3A
:1025100043F480030B604FF0010E40F22F3648F673
:10252000A37140F20113C7F800E02E60116014603F
:102530000360244C2D4A236823491A6002259D809C
:102540002279196102F1804202F50432284EDE60E0
:1025500040F20111D9804FF4807000210627B02687
:10256000D8829D60D88399829F839961117016707B
:102570000BF0C4FE22791F4B1F4E187053119B00A5
:1025800003F160431D4C327003F5614302F110000A
:1025900002F01F0701211A4D44F82050B94019607C
:1025A000F8BD0F4B1A6840F22F339A42A9D10B4B5A
:1025B0001B68012BA5D10B4B1A6840F201139A42FC
:1025C0009FD1B6E790AEFF1F00C00C402C800440A6
:1025D00021C00C403C800440006003400C6003407C
:1025E0000460034010600340A28F01004092FF1F6F
:1025F00000FEFFFF98AEFF1F1B8000400096FF1FEC
:1026000035240000024A034903480CF0B3BC00BF64
:10261000FC9BFF1F0522000090AEFF1F024A0349EA
:1026200003480CF0A7BC00BFFC9BFF1F0522000065
:10263000A0AEFF1F024A034903480CF09BBC00BF39
:10264000FC9BFF1F05220000A8AEFF1F024A0349A2
:1026500003480CF08FBC00BFFC9BFF1F052200004D
:10266000B0AEFF1F024A034903480CF083BC00BF11
:10267000FC9BFF1F05220000B8AEFF1F024A034962
:1026800003480CF077BC00BFFC9BFF1F0522000035
:10269000C0AEFF1F024A034903480CF06BBC00BFE9
:1026A000FC9BFF1F05220000C8AEFF1F90F83030D2
:1026B00003B9704770B505460BF026FD06460028A5
:1026C00050D0EB69296A8B4227D901F58072934279
:1026D00038D2A8695C1A22460844311D00F0B6FEC3
:1026E0002B6AEA6A1919630822447F2B2962EA627D
:1026F00009D806EB4303023306F58171002223F863
:10270000022F8B42FBD12846314600220BF07AFD86
:102710003046BDE870400BF04BBD134A13885BB9DF
:102720005E211248FEF7C2FB002385F830303046A8
:10273000BDE870400BF03CBD013B9BB21380002B09
:10274000F2D1EDE7A8694FF480720844311D00F022
:102750007DFE2A6AEB6A02F5807203F580732A62B5
:10276000EB62D0E770BD00BFD0AEFF1F009CFF1F23
:10277000002380F830308362C362704772B690F8ED
:10278000303053B1002380F8303062B6074A1388E6
:102790002BB95E210648FEF789BB62B67047013B44
:1027A0009BB21380002BF4D0704700BFD0AEFF1F48
:1027B000009CFF1F70B51B4E84B004460D46FFF70A
:1027C000DDFF5E211848FEF75BFB338829460133A5
:1027D0006846338001F038FE6B4607CBA061A069E4
:1027E0001B88A384E161226240B10022E369E262B6
:1027F0000120A36284F8300004B070BD338833B97F
:1028000009485E21FEF752FB002004B070BD013B79
:102810009BB23380002BEFD103485E21FEF746FBCD
:102820000020F2E7D0AEFF1F009CFF1F036A2DE9D6
:10283000F04780464BB9D8F81830D8F81C2003EB85
:10284000C213C8F81830BDE8F0870BF05DFC0646EF
:102850000028F0D0D8F81890D8F81C70D8F820C00C
:10286000134D4946841C00F5817E0B0E5A1C35F928
:10287000130035F91220C1F30F2ACAF5803300FB8B
:1028800003F30AFB023353FB0CF324F8023FA64583
:102890003944EAD109EBC7174046C8F818703146E9
:1028A00000220BF0AFFC3046BDE8F0470BF080BCD7
:1028B00080500100704700BF064B074ADA620221D0
:1028C000002259609A7083F8242083F8302083F81E
:1028D00032207047D4AEFF1FBC52010010B5012159
:1028E00000780AF0BBFA0E4A137893B10D49CB7AFF
:1028F00000241846147063B1DC0703D50A4A8869BE
:10290000106018469A0705D4430702D5074B0A6A98
:102910001A6010BD064BCA69C87A1A60F4E700BF96
:102920002CAFFF1F009CFF1F00E100E008E100E06A
:1029300004E100E01E4B1A781AB1007800210AF079
:102940008DBA70B41B4A1C49D47A096801251D70E0
:10295000ECB172B6D37ADE071C4606D5174DD468A3
:102960002E68344094612C601C469D0706D5144D9A
:1029700013692E68D47A3340D3612B60630705D581
:10298000104C536925682B401362236062B61368AC
:10299000DA688A4207D00C4C1C600C4AD96041F0BE
:1029A00080441C611A600078002170BC0AF056BA9D
:1029B0002CAFFF1F009CFF1F28AFFF1F80E100E02E
:1029C00084E100E088E100E001403F0000003F803A
:1029D000F0B41248124A036882B016460093009F72
:1029E0004FF00045FF24136843F480631360D56201
:1029F0005463D36A002BFCDAB36BDBB2FF2B09D034
:102A000003680193019BDB1B8B42ECD3002002B0D7
:102A1000F0BC7047012002B0F0BC70474CB1FF1F02
:102A200000C00240F8B50D464FF4967116460446B4
:102A3000FFF7CEFF284B1A684FF0004042F4806247
:102A400045F040011A60D8621A465963D36A002BD8
:102A5000FCDA214918204FF000470A6826FA00F3F3
:102A600042F48062DBB20A60CF624B63CB6A002B18
:102A7000FCDA083810F1080FEFD155B3082D0CBF60
:102A80008721FF21144B1A684FF0004042F4806206
:102A90001A60D8621A465963D36A002BFCDA0E4AD0
:102AA000002716464FF00045FF21136843F480636A
:102AB0001360D5625163D36A002BFCDAB36BD8B2D2
:102AC0001B06607000D4F8BD0137B7F5807FECD1EC
:102AD000F8BD9521D6E700BF00C00240F0B415490B
:102AE000154A0B6882B016460093009F4FF00045D0
:102AF000FF24136843F480631360D5625463D36A80
:102B0000002BFCDAB36BDBB2FF2B43700AD10B68EE
:102B10000193019BDB1BB3F5967FEAD9002002B03D
:102B2000F0BC7047A3F1FE00B0FA80F0400902B09B
:102B3000F0BC70474CB1FF1F00C00240F8B583786D
:102B4000032B0E46044618BF4E021546FFF7F2FE51
:102B5000324611212046FFF765FF18B92046FFF7DE
:102B6000BDFF20B92046FFF7B9FE0020F8BD204B7D
:102B70002049214A1A608E4659631A4659631E46F7
:102B8000596305F5FD70A91C05F5FE77D36A13F0AE
:102B9000F00FFBD0C6F834E0B36B01F8013C1B1218
:102BA00001F8023C02318F42F0D105F50075A842D0
:102BB0000DD20F4A1646D36A13F0F00FFBD0B36B59
:102BC000191200F8021BA84200F8013CF3D3084B8D
:102BD0000949084A196019465A63CB6A044A13F036
:102BE000F00FFAD02046936BFFF778FE0120F8BD76
:102BF00000C00240FFFF009000041F80F0B4314E7F
:102C000033684FF0004743F4806333603D46F7621A
:102C1000344671633346511C02F20127E26A002AEE
:102C2000FCDA1A6811F8016C42F480621A60DD6205
:102C30005E63E26A002AFCDA1A6811F8026B42F459
:102C400080628F421A60DD625E63E7D11D49CA6A05
:102C50001C4B002AFBDA1A684FF0004542F48062F0
:102C6000FF241A601946DD625C63CB6A154A002BAB
:102C7000FBDA13684FF0004543F48063FF241360D0
:102C80001146D5625463CB6A0E4A002BFBDA1368F7
:102C90004FF0004543F48063FF2413601146D56272
:102CA0005463CB6A074A002BFBDA936BDBB203F069
:102CB0001F024370A2F10500B0FA80F04009F0BC99
:102CC000704700BF00C0024070B5044671B1837800
:102CD000032B0D4618BF4D021646FFF72BFE2A4662
:102CE00018212046FFF79EFE054620B12046FFF73B
:102CF000F5FD002070BD3246FE212046FFF77EFF25
:102D00000028F3D04FF416712046FFF761FE00282B
:102D1000ECD02A460D212046FFF784FE0028E5D19D
:102D20000B4B1A684FF0004542F48062FF201A6096
:102D30001946DD625863CB6A054A002BFBDA936BB8
:102D400013F0FF0FD2D12046FFF7C8FD012070BD60
:102D500000C00240014B024A1A60704728AFFF1FB3
:102D60000000023838B590F90530002B03DBBDE8D0
:102D7000384000F06DB904460121006900F092F975
:102D8000F8B1257D104B13EB45151AD0A3790F4AE6
:102D9000012B9CBFA369EB61E36912686B831B0C79
:102DA000AB8232B105F1160105F1180090472B8B6B
:102DB0006B82637903F07F036371BDE8384000F0F4
:102DC00047B9002038BD00BF3CAFFF1F30AFFF1F29
:102DD00010B500F1080204460121006A00F000FA73
:102DE00050B1E3693BB96379A268E26163F07F03A4
:102DF0006371012010BD012010BD00BFF8B58379BB
:102E000013B182698A4201D20020F8BD022B0F461D
:102E100005461AD007B32B6AE9681C7C4A1E04F1E8
:102E200009037C1EDA40DC40A24211D9EB69AB6099
:102E300005F1080606E0A968286A00F099F9013C46
:102E40000028E1D03246002CF5D1EF600120F8BD1A
:102E50000029EBD0A41AEBE7AF60EF600120F8BDCA
:102E60002DE9F04F8B46817985B001290746019203
:102E700005D001233B71002005B0BDE8F08F4279F9
:102E80009107F6D5530708D5FC68B9698C4200F064
:102E9000A880FFF7B3FF0028EBD0019BFC68002B54
:102EA00049D0DFF88C91DFF88CA1DDF80480386A16
:102EB0000679013E06EA542616F0FF06C4F308041C
:102EC00042D1002C40D1B96800296FD1FA69002A9B
:102ED0007ED0BA60C4F50075ADB245453AD9057CDF
:102EE0004169023AAA400E4416441FFA88F51CB9FB
:102EF000F868BA6990424CD23046012100F0D2F80D
:102F00000028B6D04C4404EB050E74450DD00BF1EF
:102F1000FF31621E0EF1FF3611F8010F02F8010FAA
:102F20009642F9D1C4EB0E04A344FC68B8EB050843
:102F30002C44FC60BBD1BB69A34257D27A79BC61F7
:102F400042F080027A715AE0C4F50075ADB2454591
:102F5000BA68C4D8017C4069023A8A400644B5F593
:102F6000007F1644C3D1DAF80020964204BF4FF028
:102F7000FF32CAF800202A4A314610685A46FFF745
:102F8000A3FE00283FF475AF0BF5007B4FF40075EE
:102F9000CBE700F05DF800283FF46BAF2149CAF899
:102FA00000600A7842F001020A70ABE703AA00F061
:102FB000DFF800283FF460AF386A1B4B90F82050D0
:102FC000039A4FF6F871102D18BF19468A4280D324
:102FD0003846FFF7FDFE00283FF44BAF386ABA6869
:102FE00078E7019B002B7FF45CAF08E00F4B7A7908
:102FF0001B6823B1019B13B142F080027A71120762
:1030000009D5BB79002B3FF434AF3846FFF7AAFE51
:1030100000283FF42EAF019805B0BDE8F08F00BF47
:1030200038AFFF1F3CB1FF1FF8FFFF0F30AFFF1F8E
:103030003CAFFF1F109DFF1F00B583B002AB012204
:1030400003F8011D1946FFF70BFF03B05DF804FB01
:1030500070B50F4C23780BB9012070BD0D4B0E4D90
:10306000196828680D4AFFF72FFE70B10C4E3168C1
:1030700019B900232370012070BD2868074AFFF7A3
:1030800023FE10B100233360F3E7002070BD00BFC2
:103090003CB1FF1F109DFF1F38AFFF1F3CAFFF1F4C
:1030A00034AFFF1F70B50D4D2B6883420E460ED016
:1030B0000446FFF7CDFF08B9002070BD084B094A50
:1030C00018682146FFF73AFD0028F5D02C60064B22
:1030D000197831431970012070BD00BF109DFF1F8A
:1030E00038AFFF1F3CAFFF1F3CB1FF1FF8B590F892
:1030F0002030C469102B1A4B05460E4617461B6834
:1031000016D004EBD1149C4216D106F07F06154A66
:1031100042F826701449287E0A78012842F00102FC
:103120000A7018D9A968114A0B4413600120F8BD30
:1031300004EB11249C4208D000212046FFF7B2FF87
:1031400050B195F82030102B07D1F6B2054A23462E
:1031500022F81670DEE70120F8BD2346D5E700BF50
:10316000109DFF1F3CAFFF1F3CB1FF1F34AFFF1F7F
:10317000C36801338B4218D370B590F82030102B00
:10318000154B044616460D46C0691B680FD000EB70
:10319000D11098420FD105F07F01104B53F8213028
:1031A00023F070433360012070BD0020704700EBB6
:1031B0001120984207D00021FFF774FF50B194F816
:1031C0002030102BE7D1E9B2044B33F811303360D3
:1031D000012070BD002070BD109DFF1F3CAFFF1F80
:1031E0002DE9F04F176883B06FB301374FF0000A35
:1031F000C36803F1010813B38B46064691463C466B
:10320000002505E01C461F46F3680135AB4216D980
:10321000A04538BF0224214601AA304638BF2746C0
:10322000FFF7A6FF631CD91B48B1019A002AE9D118
:103230008B4510D01C46F3680135AB42E8D800201E
:1032400003B0BDE8F08FA1F1010ABAFA8AFA076863
:103250004FEA5A1ACCE7012CF1D9F36801339C42AA
:10326000EDD86FF0704221463046FFF73FFF00284F
:10327000E5D0A74214D2013C012CE0D9F368013318
:103280009C42DCD8621C21463046FFF72FFF002805
:10329000D5D0A74204F1FF3402D0012CEED1CEE705
:1032A000D9F8001059B10129C9D9F36801339942FD
:1032B000C5D83A463046FFF719FF0028BFD0C9F8F5
:1032C0000070BAF1000F01D0013737600120B7E775
:1032D000524ADFF868C12DE9F04F514D514CDFF8EB
:1032E0006081DFF860B1DFF860E11646D17A09B39A
:1032F00072B6F37AD807194607D5DBF80000F168F3
:103300000140B161CBF8001019469B0707D5DCF8E6
:1033100000001369D17A0340D361CCF800304F0725
:1033200006D5D8F8001053690B401362C8F8003076
:1033300062B6D17A1368D868B0F1384F0AD04FF02E
:1033400078404FF03849C3F800E0C3F80C9018619A
:10335000354818602078D5F800A04FF001098007A3
:103360008AF800914FF000492DD57020C3F82C90B9
:103370005863D86A0028FCDA4FF0004900209F6BA0
:10338000C3F82C905863D86A0028FCDA01209B6BA4
:103390008AF8800081B1CF0703D5244F9069D17A94
:1033A0003860880703D5224FD069D17A3860490741
:1033B00002D52048116A01601B0697D51E4B0022DA
:1033C0001A70BDE8F08F0520C3F82C905863D86AB6
:1033D0000028FCDA4FF0004900209F6BC3F82C90C6
:1033E0005863D86A0028FCDA01209B6B8AF88000B9
:1033F00081B1CF0703D50D4F9069D17A3860880726
:1034000003D50B4FD069D17A3860490702D50948F6
:10341000116A0160DB073FF569AFCFE7009CFF1F32
:1034200044B1FF1F40B1FF1F00003F8000E100E0FA
:1034300004E100E008E100E041B1FF1F84E100E0A9
:1034400088E100E080E100E001403F002DE9F04F1D
:103450000E4685B000218146304615460DF0AEFA85
:10346000984B994ADB7A11780291002B25D072B6DD
:10347000944BDB7ADC07194608D5944891490468D7
:10348000C96821408F4CA16101601946980709D590
:103490008F488C4B04681B698A492340894CC97A40
:1034A000E36103604B0707D58A49864B08685B696F
:1034B0000340844803620B6062B6824B1B68D96884
:1034C000B1F1384F09D0844818604FF03840D860C7
:1034D00082494FF07840186119608148DFF804B2E2
:1034E0000178039100297ED1DBF80020029800F0DA
:1034F000080A00F001015FFA8AFA01914FF0010811
:1035000009EB0507BAF1000F40D1544682F800815B
:10351000019A002A4DD04FF000410322D9625A632C
:10352000DA6A002AFCDA4FEA194242F080524FF080
:103530000041986BD9625A63DA6A002AFCDA1FFAF2
:1035400089F949F080524FF00041986BD9625A6373
:10355000DA6A002AFCDADFF86C919B6B324631465E
:103560002B464846FDF7E4FDDBF800202E4482F8A8
:1035700080800121002C00F0B780524B2546B946CF
:103580001B6809EB0507BAF1000FBED07C1E84EA68
:10359000090414F07E44B9D029F07E4182F80081FC
:1035A000019AC1F100716C1A09EB01070D46002A5E
:1035B000B1D1C9F3074242F0805242F440724FF059
:1035C0000041D9625A63DA6A002AFCDA1FFA89F9E3
:1035D00049F080524FF00041986BD9625A63DA6A21
:1035E000002AFCDAB7E71178DBF8002001248F0706
:1035F00082F800414FF0004440F1B8807021DC6255
:103600005963D96A0029FCDA4FF0004400219F6B0E
:10361000DC625963D96A0029FCDA996B090600F16A
:10362000B880039B0121022B82F8801000F2BE803B
:10363000244B82F800111B684FF000400621D8622D
:103640005963D96A0029FCDA01209C6B82F880005A
:1036500018210139FDD102994C0740F10C810399E1
:1036600081420CBF8521752101244FF0004082F872
:103670000041D8625963D96A0029FCDA986B029834
:10368000012110F0020F82F880104FF0004082F804
:10369000001100F0DD807021D8625963D96A0029D9
:1036A000FCDA996B4FF000440020DC625863D96A61
:1036B0000029FCDA996B0906F7D5012182F8801000
:1036C00014E700BF009CFF1F40B1FF1F80E100E036
:1036D00084E100E088E100E001403F0000003F801D
:1036E00041B1FF1F44B1FF1F039B23B3D9F8003042
:1036F00082F800114FF000400621D8625963D96A60
:103700000029FCDA01209C6B82F880001821013925
:10371000FDD102994C0743D47A2101244FF0004097
:1037200082F80041D8625963D96A0029FCDA012184
:103730009B6B82F88010554B5449DB7A1A4693B143
:10374000D80703D5524A896911601A46990704D5EA
:103750004E4A504BD169D27A1960530703D54B4A70
:103760004D4B126A1A6005B0BDE8F08F0521DC628E
:103770005963D96A0029FCDA4FF0004400219F6B9D
:10378000DC625963D96A0029FCDA996BCF073FF5EF
:1037900048AF0021012482F8804001700391A5E622
:1037A0000399814214BF7A218A21B6E7374B374803
:1037B000DB7A19469BB1DC0703D53549806908607F
:1037C00019469F0705D5314B32483049DB69C97A24
:1037D00003604C0703D52D492F4B096A19600192EC
:1037E000FFF776FD294B2949DB7A019AEBB172B6D6
:1037F000CB7AD8071A4640D49B0709D52749234BD3
:1038000008681B69214A03402048D27AC3610B60D3
:10381000570707D5224A1D4B11685B690B401B49AE
:103820000B62136062B6DBF80020184B1B68D96886
:10383000B1F1384F09D01B4818604FF03840D860BC
:1038400019494FF0784018611960002103914DE645
:103850000521D8625963D96A0029FCDA996B4FF0C7
:1038600000440020DC625863D96A0029FCDA996BB5
:10387000CF07F7D421E77521F6E60C48CA6804683B
:1038800022408A6102601A46B6E700BF009CFF1F13
:1038900000E100E004E100E008E100E084E100E094
:1038A00088E100E001403F0000003F8080E100E04F
:1038B0002DE9F84FDFF8D8816C4D98F80030DFF82B
:1038C000D491DFF8D4A106460C461746AB46002B30
:1038D00040F0AA80EB7A1BB372B69BF80B20D0079E
:1038E000114609D5624B1968DBF80C300B40604972
:1038F000CBF818300B601146930707D55D4BE97A7A
:103900001A682B6913405B4AEB611360480706D5C0
:10391000594B1A686B691340574A2B62136062B6A1
:103920002B68DA68B2F1384F09D0544919604FF06A
:103930003841D960524A4FF0784119611A60D9F87C
:103940000000012280F800214FF000410622D962D8
:103950005A63DA6A002AFCDAF2B2C2F580724FF0DA
:10396000010EBA42D3F838C080F880E04FF0180159
:1039700028BF3A460139FDD19AF8001080F800E1DD
:10398000C90754D54FF0004E0221C3F82CE059630B
:10399000D96A0029FCDA310C41F080514FF0004E19
:1039A000D3F838C0C3F82CE05963D96A0029FCDA8F
:1039B000B1B241F080514FF0004ED3F838C0C3F897
:1039C0002CE05963D96A0029FCDA996B1644BF1AB6
:1039D0004FF0004E224414F8011BC3F82CE0596349
:1039E000D96A0029FCDA9442996BF4D1EB7A4FF052
:1039F000010E0424194680F880E088F800408BB15D
:103A0000DC0704D51F49DBF8180008601946980741
:103A100003D51D48EB69E97A03604B0702D51B49C2
:103A20002B6A0B601446F7B1FFF752FC52E7C6F35E
:103A3000074141F0805141F400714FF0004EC3F84E
:103A40002CE05963D96A0029FCDAB1B241F0805107
:103A50004FF0004ED3F838C0C3F82CE05963D96A50
:103A60000029FCDAB1E7BDE8F88F00BF009CFF1F1A
:103A700080E100E084E100E088E100E001403F00F7
:103A800000003F8000E100E004E100E008E100E028
:103A900041B1FF1F44B1FF1F40B1FF1FF8B5534DA7
:103AA000534A2B7817780446002B40F09C805149EC
:103AB000CB7AEBB172B6CB7ADE071A4606D54E4802
:103AC000CA68066832408A6102601A46980706D5BD
:103AD0004A480B690668CA7A3340CB6103605307D2
:103AE00005D5474A4B69106803400B62136062B604
:103AF0000B68DA68B2F1384F09D042481860424A80
:103B00004FF038464FF07840DE6018611A603F4A47
:103B10001668012286F800214FF000400622D86284
:103B20005A63DA6A002AFCDA0120D3F838E086F812
:103B300080001822013AFDD1FF0786F8000139D52F
:103B40004FF00040D822D8625A63DA6A002AFCDAC1
:103B5000220C42F080524FF000409F6BD8625A63B3
:103B6000DA6A002AFCDAA4B244F080544FF0004232
:103B7000986BDA625C63DA6A002AFCDA9B6BCB7AB8
:103B80001C4C01201A4686F8800083B1DE0703D55D
:103B90001F4AA06910601A46980703D51D4BC869D3
:103BA000CA7A1860530702D51B4B0A6A1A600223AF
:103BB0002B70F8BDC4F3074242F0805242F45842E1
:103BC0004FF00040D8625A63DA6A002AFCDAA4B2E5
:103BD00044F080544FF00042986BDA625C63DA6A1A
:103BE000002AFCDACAE7FFF773FB60E741B1FF1F69
:103BF00040B1FF1F009CFF1F80E100E084E100E076
:103C000088E100E001403F0000003F8044B1FF1F19
:103C100000E100E004E100E008E100E070B54C4B99
:103C20001B780446002B79D14A49CB7AEBB172B6A6
:103C3000CB7AD8071A4606D54748CA6805682A408D
:103C40008A6102601A469E0706D544480B690568DA
:103C5000CA7A2B40CB610360550705D5404A4B69B2
:103C6000106803400B62136062B60B68DA68B2F149
:103C7000384F09D03B4818603B4A4FF038454FF069
:103C80007840DD6018611A60384A106801264FF0EC
:103C900000459F2280F80061DD625A63DA6A002ADB
:103CA000FCDA4FF0004500229E6BDD625A63DA6A4F
:103CB000002AFCDA9B6B23700A684FF00045002352
:103CC000D5625363D36A002BFCDA936B63700A6886
:103CD0004FF000450023D5625363D36A002BFCDA12
:103CE0002378926BA270012B1BD0CB7A194D012443
:103CF0001A4680F8804083B1DC0703D51C4AA869C6
:103D000010601A46980703D51A4BC869CA7A18601A
:103D1000530702D5184B0A6A1A6070BDFFF7D8FA2C
:103D200082E70A684FF000450023D5625363D36AE7
:103D3000002BFCDA936BE3700A684FF00045002318
:103D4000D5625363D36A002BFCDA936B2371CCE703
:103D500041B1FF1F009CFF1F80E100E084E100E013
:103D600088E100E001403F0000003F8044B1FF1FB8
:103D700000E100E004E100E008E100E0F0B5864D7C
:103D80002B7883B0002B40F083806846FFF746FF16
:103D90009DF80030202B64D08049C87AF0B172B60B
:103DA000CB7AD8071A4606D57D4CCA6820681040E1
:103DB00088611A4620609F0706D57A4A0B69106809
:103DC0000340CB611360CA7A560705D5764A4B6922
:103DD000106803400B62136062B6C87A0B68DA6839
:103DE000B2F1384F09D0714C1C60714A4FF038461F
:103DF0004FF07844DE601C611A606E4A1468012737
:103E00004FF00046062284F80071DE625A63DA6AD7
:103E1000002AFCDA01269F6B84F880601822013AA0
:103E2000FDD14FF00047C72284F80061DF625A637A
:103E3000DA6A002AFCDA01229B6B84F8802060B1E8
:103E4000C40703D55C4B8A691A60C87A820722D4FA
:103E5000430702D5594B0A6A1A6003232B7003B03B
:103E6000F0BD9DF80230A3F12002022A94D8544CF0
:103E7000212B207814D000F03F02801101282270FD
:103E80005FFA80FEEBDC222B0CBF082602260EE038
:103E9000FFF71EFA79E74B4BCA691A60C87AD7E771
:103EA00000F03F03801123705FFA80FE02263B4939
:103EB000CB7A03B372B6CB7ADF071A4609D5DFF89F
:103EC000E0C0CA68DCF8007017408F611A46CCF871
:103ED00000709B0706D5334A0B6917683B40CB61DE
:103EE0001360CA7A570705D52F4A4B6917683B40BC
:103EF0000B62136062B60B68DA68B2F1384F09D012
:103F00002A4919604FF03841D960294A4FF0784169
:103F100019611A60274A1168012281F800214FF0C7
:103F200000470622DF625A63DA6A002AFCDA0122BD
:103F3000D3F838C081F880201827013FFDD14FF019
:103F4000004CC42781F80021C3F82CC05F63DA6AF3
:103F5000002AFCDA1EFB06F2120242F080524FF0F9
:103F600000469F6BDE625A63DA6A002AFCDA4FF081
:103F700000464FF080529F6BDE625A63DA6A002A75
:103F8000FCDA22789B6B431C42EA831301222370E4
:103F900081F8802061E700BF41B1FF1F009CFF1F37
:103FA00080E100E084E100E088E100E001403F00C2
:103FB00000003F8044B1FF1F00E100E008E100E0A5
:103FC00040B1FF1F04E100E0F8B54E490B780BB992
:103FD0000120F8BD4C48C47AF4B172B6C37ADE074A
:103FE0001A4606D5494CC26825682A40826122607B
:103FF0001A469D0706D5464C03692568C27A2B40B0
:10400000C3612360540705D5424A436914682340BD
:104010000362136062B6C47A0368DA68B2F1384F9B
:1040200009D03D4D1D603D4A4FF038464FF0784570
:10403000DE601D611A603A4A3A4D16782D680122F9
:1040400085F80021B2074FF0004729D57022DF62C2
:104050005A63DA6A002AFCDA4FF000470022D3F8EC
:1040600038E0DF625A63DA6A002AFCDA01229B6BCD
:1040700085F8802084B1E70703D52B4A8569C47A87
:104080001560A50703D5294AC569C47A156062077A
:1040900002D5274A006A10601B0629D40020F8BD0B
:1040A0000522DF625A63DA6A002AFCDA4FF0004721
:1040B0000022D3F838E0DF625A63DA6A002AFCDAB9
:1040C00001229B6B85F8802084B1E70703D5164A4F
:1040D0008569C47A1560A50703D5144AC569C47AF1
:1040E0001560620702D5124A006A1060DB07D5D45A
:1040F000002416F0C00F0C703FF46AAFFFF73EFECD
:104100002046F8BD41B1FF1F009CFF1F80E100E089
:1041100084E100E088E100E001403F0000003F80D2
:1041200040B1FF1F44B1FF1F00E100E004E100E0E7
:1041300008E100E002781F2A15D08378A3F110016E
:104140000F290DD9A3F12001052908D98AB9427890
:104150008AB9002B14BF4FF4801000207047063B33
:104160000120984070474378892BE6D14FF080704A
:104170007047FF2A02D04FF4801070474278FF2A20
:10418000F9D1FF2B14BF4FF480100020704700BFFF
:1041900070B56A4B6A4D53F830302B6082B00446DC
:1041A0006848FCF72FFE2046012108F06BFE2E68C0
:1041B000012386F880306846FFF730FD9DF8004007
:1041C000A4B99DF8013013B99DF8020060B16846AA
:1041D000FFF7B0FFB0F1807F21D800235A4A68462C
:1041E0001370FFF71BFD012002B070BDFF2C09D139
:1041F0009DF80130FF2BEAD19DF80230FF2BE6D16C
:104200000020F1E76846FFF795FFB0F1807F06D800
:10421000012C6DD0202C14BF00230223DEE7494976
:10422000CB7AD3B172B6CB7AD8071A4606D54748AF
:10423000CA68046822408A6102601A469B0706D554
:1042400043480B690468CA7A2340CB610360560770
:1042500065D462B62E689DF800400B68DA68B2F14A
:10426000384F09D03B4818603B4A4FF038454FF073
:104270007840DD6018611A60012C43D001244FF0B2
:104280000040062286F80041D8625A63DA6A002AA2
:10429000FCDA01209C6B86F880001822013AFDD1DF
:1042A0004FF00044B72286F80001DC625A63DA6AF4
:1042B000002AFCDA01229B6B86F88020CB7A214809
:1042C0001A4663B1DC0703D5244A806910601A4698
:1042D00098072BD4530702D5214B0A6A1A609DF820
:1042E0000030202B19D0012B25D11A46052301E0DF
:1042F000042300229DF8041000297FF46FAF42F0E0
:1043000014036BE74FF00040164A86F80041D8626C
:104310005A63DA6A002AFCDACCE70B235EE7124A1A
:104320004B69106803400B62136092E70F4BC8693A
:10433000CA7A1860CEE7012350E700BF0C5D010088
:1043400044B1FF1F009CFF1F40B1FF1F80E100E050
:1043500084E100E001403F0000003F8000E100E018
:1043600008E100E08017001088E100E004E100E0CF
:10437000044B1B7813F0100F14BF4FF480204FF440
:104380008030704740B1FF1F00B583B008226946F6
:104390000020FFF75BF8009B104A93421AD00133CC
:1043A00003D0002003B05DF804FB0D4B009269467A
:1043B000082200200193FFF77BFAFFF705FE002893
:1043C000FBD0082269460020FFF740F8034B009A13
:1043D0009A42E6D1019803B05DF804FB4C5596FA79
:1043E0005802F61830B50546808983B00430400085
:1043F0000DF106010222FFF729F8A889BDF8063061
:104400000430DB4340000DF106010222ADF8063016
:10441000FFF74EFAFFF7D8FD04460028FAD0A88926
:1044200004300DF1060140000222FFF70FF8BDF83D
:10443000063023B920462B606B6003B030BD0024EA
:10444000204603B030BD00BF2DE9F04F002393B0EC
:10445000036043608360C36004900C460391FFF7E0
:1044600093FF00287AD0227883B20293002A00F0CA
:104470008A80464B46482146534011F8012F00FBE5
:1044800003F3002AF8D1434F5A08A7FB0227BF0BBA
:10449000C7EBC737A3EB47070137BFB2029B002B1F
:1044A0005CD003EB43030593002301930DF1280B2C
:1044B000029B019A1946C2EB010ABAF1070F58D8BC
:1044C000101D40004FEA4A025946FEF7BFFFBAF1FD
:1044D000000F47D0029B1E1D019B03EB8302164475
:1044E0000025760008E04FF6FF739A4236D001357A
:1044F000554506F10A0635D23BF81520BA42F2D1ED
:1045000000230A2207A930460993FEF79FFF099A64
:10451000059B039C02F1020999444FEA89090DF1B8
:104520004708484610220EA9FEF790FF09F110092E
:104530000DF1370301E09845F3D014F8011B13F88F
:10454000012F8A42D3D1002AF5D1019B0498079A02
:104550002B441D46089B858180E80C00049813B00D
:10456000BDE8F08F019B029A53449A4201939FD871
:10457000F4E7019B181D400010225946FEF766FF24
:104580004FF0080AA6E74FF4204787E7C59D1C8136
:10459000930100010300018000B585B00146684623
:1045A000FFF752FF0098003018BF012005B05DF8FA
:1045B00004FB00BF00B585B001466846FFF744FF25
:1045C000009810B16846FFF70DFF05B05DF804FBD9
:1045D0002DE9F04F05468BB00E4606A82946174632
:1045E000FFF732FF069C1CB9FFF7CEFE814618B9D3
:1045F00000200BB0BDE8F08FA2461FFA89F80AF13F
:10460000080398454FF6FF7B1ED2CAEB08040AF157
:1046100004006200400006A9FEF718FF6CB1BDF867
:1046200018305B4519D006AA002303E032F8021FB8
:10463000594513D00133A342F8D3A244D045D7D96A
:104640000AF108039845E0D30AF104004000102263
:1046500006A9FEF7FBFE0824E1E700230AEB0304AA
:10466000A045C5D908EB480B4FEA8B03009303F133
:10467000080B002C67D1524A4FEA993909EA020225
:1046800002EB0B0A002F51D10AF1FF0727F0FF07B9
:1046900028460CF075FE814606A8FFF7BFFA06A86B
:1046A000FFF748FD06EB070A8245A1D809F1010290
:1046B00029465846FFF7FCF8009B03976FF0070266
:1046C000D21A08F1040804EB840002EB0B03404407
:1046D0009B08400003A90A2204960593FFF7E8F817
:1046E000FFF772FC0028FBD02A78002A65D0354BF2
:1046F0003549534015F8012F01FB03F3002AF8D187
:1047000032495A08A1FB0212920BC2EBC232A3EB50
:1047100042030133201D400003A902220393FFF747
:10472000C7F8FFF751FC0028FBD062E77A1E013E74
:104730003E445244B6FBF7F6B2FBF7F206FB07F62F
:1047400002FB07F7A4E708F10042013A04EB8401F9
:10475000881840000A2203A94FF00009CDF81490F0
:10476000FEF774FE05980399049A0BEB80030193FE
:104770009B4601EB020A102206A95846FEF766FE88
:104780009DF8183009F1010263B109F1100906AB77
:1047900003E013F8011F013221B14A45F9D10BF1B1
:1047A000100BE8E70199DFF818B003310A4402EA78
:1047B0000B0B002F3FF468AFB8E74FF42043A9E795
:1047C000FCFF0300C59D1C819301000103000180D3
:1047D0002DE9F047002388B00370074688469246CB
:1047E000FFF7D2FD002850D0DFF8B090B9F80040B4
:1047F00086B2A64249D9251D6D0002E00134A642C9
:1048000043D0284602220DF10601FEF71FFEBDF837
:1048100006300235002BF1D004EB8400B31D1844A0
:10482000062200230134400002A90393A9F80040A6
:10483000FEF70CFE029B5A1C27D0039CCAF80030DE
:1048400006EB460602343444A400B8F1000F17D03A
:104850004546102D28BF102504A92A462046FEF7FC
:10486000F5FD0DF10F01002311F8012F07F8012BC1
:10487000013372B1AB42F7D3B8EB05082C44E7D152
:10488000002307F8013C012000E0002008B0BDE84B
:10489000F087012008B0BDE8F08700BF3EB1FF1FE0
:1048A00070B50546FFF764FD06462868741E204271
:1048B0000CD16B681C4009D10BB907E02868204473
:1048C000FFF7ECF86B683444A342F7D870BD00BF23
:1048D00038B50A4D00230446294600F8043B09F088
:1048E00091FF294604F1140009F08CFF294604F1D8
:1048F000240009F087FF204638BD00BFF8570100AB
:104900004163704710B50B4A0B4B11681B688AB0A6
:10491000043A0191126800920446084A02A8202134
:104920000CF0A8FA02A9204609F06CFF20460AB054
:1049300010BD00BF6080044058800440CC5201008C
:1049400010B5044690B0043009F0E8FF21466846EF
:10495000FFF7D8FF694604F1140009F0E7FF684645
:1049600009F010FF6368094A402168460CF082FA9A
:10497000684606F0D1FC6369054A402168460CF0A0
:1049800079FA684606F0C8FC10B010BDE05201008C
:10499000F852010070B50646002390B0104633600F
:1049A0007360B360F3600AF055F90146684609F098
:1049B0003DFF844904A809F025FF04A968460AF0D0
:1049C000FBF800287ADB04A809F0DCFE2C216846FD
:1049D0000AF0E2F8041E63DB2C25002C5ADD234686
:1049E000002269460CA80AF0F9F80CA80AF060F950
:1049F00030600CA809F0C6FE621C0CA869460AF0DB
:104A000011F90CA9684609F091FF0CA809F0BAFE4B
:104A1000294668460AF0C0F8041E3BDD2346002202
:104A200069460CA80AF0DAF80CA80AF041F970609F
:104A30000CA809F0A7FE621C69460CA80AF0F2F85F
:104A40000CA9684609F072FF0CA809F09BFE2946E4
:104A500068460AF0A1F8041E1CDD234600226946C0
:104A60000CA80AF0BBF80CA80AF022F9B0600CA858
:104A700009F088FE621C69460CA80AF0D3F80CA95C
:104A8000684609F053FF0CA809F07CFE68460AF05E
:104A90000FF9F060684609F075FE304610B070BD41
:104AA0003B2168460AF078F8041E80F288802021B5
:104AB00068460AF071F8202504468EE7424908A8A6
:104AC00009F0A0FE08A968460AF076F8002803DB82
:104AD00008A809F057FE76E73C490CA809F092FEB9
:104AE0000CA968460AF068F804460CA809F04AFECA
:104AF00008A809F047FE04A809F044FE002CBFF600
:104B000065AF33490CA809F07DFE0CA9684609F091
:104B1000FFFF04460CA809F035FE002C3BD0012213
:104B200069460CA80AF07EF80CA9684609F0FEFE5A
:104B30000CA809F027FE029C002C3CD000252C4636
:104B40000DE04628A4F1370312D96628029B98BFCE
:104B5000573C05F1010598BF24189D420DD2294606
:104B6000684609F0F5FF24013928A4F13003E8D89C
:104B7000C418029B01359D42F1D3210EC4F30742B4
:104B8000C4F30723E4B286E81E00684609F0FAFD84
:104B9000304610B070BD0F490CA809F033FE0CA9C7
:104BA000684609F0B5FF04460CA809F0EBFD002C9F
:104BB000C1D00222B4E7234622462146E3E73B2543
:104BC0000BE700BF185301001C5301009053010074
:104BD000205301002453010082B02DE9F04194B02C
:104BE0001AA981E80C009DF878301B9E1C9D1D9C25
:104BF00080461746002B64D054490CA809F002FEE9
:104C00000CA910A809F012FEC7F303130A2BB4BFB6
:104C100030213721194410A809F018FF07F00F07B9
:104C20000A2FB4BF30213721394409F00FFFC6F3F2
:104C300003130A2BB4BF30213721194409F006FFB2
:104C400006F00F060A2EB4BF30213721314409F097
:104C5000FDFEC5F303130A2BB4BF302137211944DD
:104C600009F0F4FE05F00F050A2DB4BF30213721FD
:104C7000294409F0EBFEC4F303130A2BB4BF30211F
:104C80003721194409F0E2FE04F00F040A2CB4BFE6
:104C900030213721214409F0D9FE01460CA809F042
:104CA0003DFE10A809F06EFD0CA9404609F058FD24
:104CB0000CA809F067FD404614B0BDE8F04102B011
:104CC0007047114668460A2209F0CEFD694604A8DD
:104CD00009F0ACFD04A81E4909F0AAFE0A22074605
:104CE000314608A809F0C0FD08A9384609F098FE29
:104CF000174909F09DFE0A22064629460CA809F02C
:104D0000B3FD0CA9304609F08BFE114909F090FE65
:104D10000A220546214610A809F0A6FD10A928463A
:104D200009F07EFE0146404609F080FD10A809F01A
:104D300029FD0CA809F026FD08A809F023FD04A808
:104D400009F020FD684609F01DFDB4E7F8570100A1
:104D5000185301000078704701707047F0B5924910
:104D60000446CFB009F04EFD0221204609F0F0FDC7
:104D70008E4B8F49002720461F8009F033FE01AA81
:104D800040210EA8FFF724FD002840F0C18089498A
:104D9000204609F027FE0EA8FEF740FF10229DF8DE
:104DA000381006A809F060FD06A90AA809F03EFD22
:104DB00081490AA809F03CFE0146204609F00EFE92
:104DC0000AA809F0DFFC06A809F0DCFC10229DF817
:104DD000391006A809F048FD06A90AA809F026FD21
:104DE00075490AA809F024FE0146204609F0F6FD9F
:104DF0000AA809F0C7FC06A809F0C4FC10229DF817
:104E00003A1006A809F030FD06A90AA809F00EFD1F
:104E10006A490AA809F00CFE0146204609F0DEFDA9
:104E20000AA809F0AFFC06A809F0ACFC0EA8FFF731
:104E300081F9634905460AA809F0E4FC0A222946DB
:104E400006A809F039FD06A90AA809F0E9FD0146FE
:104E5000204609F0C3FD06A809F094FC0AA809F051
:104E600091FC5849204609F0BDFD57490AA809F0B0
:104E7000C9FC0A22E91B06A809F01EFD06A90AA81A
:104E800009F0CEFD0146204609F0A8FD06A809F06C
:104E900079FC0AA809F076FC4A49204609F0A2FDEF
:104EA0004A490AA809F0AEFC0A22394606A809F0C8
:104EB00003FD06A90AA809F0B3FD0146204609F042
:104EC0008DFD06A809F05EFC0AA809F05BFC3D49CF
:104ED000204609F087FD3E49204609F083FDFFF793
:104EE00047FA0A2201460AA809F0E6FC0AA9204668
:104EF00009F074FD0AA809F045FC3249204609F082
:104F000071FD0321204609F07BFD20464FB0F0BD26
:104F10000EA902A809F076FC02A90AA809F086FCED
:104F20000EA80CF02DFAC0F11606012E38BF01268E
:104F30001D4906A809F066FC002EC8BF002506DD45
:104F400001351D4906A809F04DFDAE42F8D106A96C
:104F50000AA809F065FD0146204609F03FFD06A8B4
:104F600009F010FC0AA809F00DFC02A809F00AFCDF
:104F70000A2201990AA809F09FFC0AA9204609F013
:104F80002DFD0AA809F0FEFB0C49204609F02AFD78
:104F90000EA90AA8FFF758FA0B9A0A9B13449F42DE
:104FA00038BF1F46EBE600BFF85701003EB1FF1FB8
:104FB000285301003C530100905301003853010075
:104FC0005C5301006C5301007453010084530100D1
:104FD0009453010030B5184C85B00546022008F006
:104FE000E3FF0721154808F05BFF291D204609F063
:104FF000DFFA204609F002FB0F21114808F050FFAC
:1050000005F11401204609F0D3FA204609F0F6FA1A
:1050100029466846FFF7A2FE6946204609F0C8FA0D
:10502000204609F0EBFA684609F0ACFB032008F0D3
:10503000BBFF05B030BD00BF4C9EFF1FA453010055
:10504000AC53010010B50C4B002496B01C8001AA93
:10505000402106A8FFF7BCFB10B9204616B010BDD2
:1050600006A902A8FFF7F0F9039A029B13449C4299
:1050700038BF1C46EBE700BF3EB1FF1F30B5094B00
:10508000C1B00022054668461A80FEF7C7FD684693
:10509000FFF750F804462846FFF7D4FF201A41B026
:1050A00030BD00BF3EB1FF1F10B50C46032009689C
:1050B00007F0D6FD6168042007F0D2FDA168052045
:1050C00007F0CEFDE1680620BDE8104007F0C8BD3E
:1050D0002DE9F04FADF50F7D04AF8B46054600215D
:1050E00007F1280009F08EFB07F59474B64907F123
:1050F000280009F023FCB549204609F083FB21462E
:10510000584609F0C9FC8046204609F03BFBB8F13F
:10511000000F25D02846FFF75DFF3B6BBBB12B7816
:10512000002B3CD101232B7007F1280107F1380037
:1051300009F07CFB0A2107F1380009F087FC0146E1
:10514000A34809F035FA07F1380009F01BFB07F115
:10515000280009F017FB07F50B77BD46BDE8F08F77
:1051600007F58C76424601233046594609F036FD54
:105170009849204609F046FB2146304609F08CFC50
:105180008046204609F0FEFA304609F0FBFAB8F1F5
:10519000000F07D001218F4808F082FEBDE7012BE8
:1051A000D5D1C1E78C49204609F02CFB2146584651
:1051B00009F072FC8046204609F0E4FAB8F1000FCD
:1051C00016D18649584609F051FCB8B184492046A9
:1051D00009F018FB05F11401204609F021FC0146F5
:1051E00007F1280009F09AFB204609F0CBFA94E772
:1051F0007C49204609F006FB291DEDE77A49204647
:1052000009F000FB2146584609F046FC804620463E
:1052100009F0B8FAB8F1000F1BD0FEF7AFFD34214A
:10522000724808F03DFE6A4809F0E8F91424FEF7D8
:10523000CBFE60BB4FF4FA7007F02AFE01216548EF
:1052400008F02EFE013CF2D10121694808F028FE49
:10525000ECE7424605235946304609F0BFFC654954
:10526000204609F0CFFA2146304609F015FC804669
:10527000204609F087FA304609F084FAB8F1000FA9
:105280000BD05D4907F1280009F058FB45E75B4961
:1052900007F1280009F052FB3FE75949204609F081
:1052A000B1FA2146584609F0F7FB8046204609F03E
:1052B00069FAB8F1000F05D0524907F1280009F04A
:1052C0003DFB2AE7424603235946304609F086FC57
:1052D0004D49204609F096FA2146304609F0DCFB9C
:1052E0008046204609F04EFA304609F04BFAB8F1F4
:1052F000000F00F093802C21584609F04DFC002847
:10530000C0F213812C21584609F046FC03220346C3
:105310005946204609F062FC204609F09BFC07F53F
:1053200084780146404609F081FA204609F02AFABD
:105330002C21584609F030FC5946421C204609F001
:1053400071FC204609F086FC09F0B2FC824620463A
:1053500009F018FA2D49304609F054FA4146304612
:1053600009F05EFB2A4909F063FB0A228146514697
:10537000204609F08DFA2146484609F051FB25499F
:1053800009F056FB0146124809F012F9204609F0CF
:10539000F9F9304609F0F6F9D8F80830002B00F09A
:1053A000E180BAF1000F40F36481FEF70DFE0028A2
:1053B00040F0DE80184907F1280009F0BFFA4046A6
:1053C00009F0E0F9A9E600BFF8570100BC5301005D
:1053D0004C9EFF1F20530100C0530100C853010021
:1053E000CC530100C4530100D0530100DC53010031
:1053F00038530100545401005C540100145401005E
:105400008C54010090540100A0540100C0540100CC
:10541000CC540100D054010018550100424603232A
:105420005946304609F0DAFBCE49204609F0EAF940
:105430002146304609F030FB8046204609F0A2F9AB
:10544000304609F09FF9B8F1000F43D007F5847892
:105450005946404609F0EAF9404609F0EBFB01469F
:10546000404609F05BFAC049204609F0CBF92146D5
:10547000404609F057FB8146204609F083F9B9F10F
:10548000000F00F0C08059460322304609F0CAFBE5
:10549000002321464022304609F064FB304609F0E3
:1054A00071F921460122686B00F04CFFAE4930468D
:1054B00009F0A8F93146404609F034FB044630466D
:1054C00009F060F9002C7FF47AAF0321A74809F0B6
:1054D000E5F874E7A649204609F094F921465846B4
:1054E00009F0DAFA8046204609F04CF9B8F1000FCD
:1054F00021D0A049204609F085F92846FFF7BEFDD6
:1055000001460A22304609F0D7F93146204609F013
:1055100087FA014607F1280009F000FA304609F041
:1055200031F9204609F02EF9F7E5934907F12800F3
:1055300009F004FAF1E59149204609F063F92146A2
:10554000584609F0A9FA8046204609F01BF9B8F13F
:10555000000F5DD08A49204609F054F92846FFF72C
:1055600071FDCDE7874907F1280009F0E7F926E743
:10557000D8F80830C7F810D0083323F00703ADEB94
:10558000030D0DF11009002340224046494609F061
:10559000E9FA7D4B002248461A80FEF7FDFF0028FD
:1055A00040F0BF80404609F045FB6F4983462046E6
:1055B00009F028F95846214609F0B4FA83462046F6
:1055C00009F0E0F8BBF1000F40F0A580FEF7D0FE37
:1055D0004FF6FF7151450246B8BF51464846FEF7A7
:1055E000F7FF00284BD049462046FEF72DFF2368E1
:1055F000FB60002B49D1654907F1280009F09EF9AD
:10560000D7F810D0DBE60221584809F047F83AE70E
:105610005F49204609F0F6F82146584609F03CFA61
:105620008146204609F0AEF8B9F1000F7DD0594906
:10563000304609F0E7F8544B2046A3F80080FEF707
:10564000EDFA2046FEF776FD0A220146204609F0D3
:1056500033F92146304609F0E3F9014607F1280005
:1056600009F05CF9204609F08DF8304609F08AF817
:1056700053E5494907F1280009F060F99FE64749D9
:1056800007F1280009F05AF9BAE7A368DFF8189182
:10569000616879611A46D9F80030FB610021FC6924
:1056A000BD60C7F804801546884642F2107B09E0C9
:1056B000052007F0EDFBD9F800303B623B6A1B1B6D
:1056C0005B4503D808F0C2FB0028F1D008F082FB4C
:1056D0007A6930706B1C9A421BD27A69AA4207D948
:1056E000541BFB68224658193146FEF7E1F8254461
:1056F000D9F800307B6208F10108C2457C6AD4D138
:105700002749BD68D7F8048007F1280009F016F989
:1057100076E70124E5E7002251464846FEF758FFA8
:105720005FE74846FEF746FF3CE71E49204609F082
:1057300069F82146584609F0AFF98146204609F03C
:1057400021F8B9F1000F31D029462046FFF706FBBA
:10575000214607F1280009F0E9F8204609F012F87F
:10576000DBE400BF78550100385501004C9EFF1F57
:105770007C55010084550100A45401008C550100A2
:1057800094550100D45401003EB1FF1F285601007A
:105790009C550100A4550100F4540100545501002A
:1057A00040550100AC5501004CB1FF1F0221584685
:1057B00009F0CEF93D2854D00221584609F0C8F925
:1057C0003F2800F0E080DF49584609F04FF9804655
:1057D000002800F0888007F5847807F1D80A07F1DF
:1057E000E00B03E009F0FEF809F10109D649304663
:1057F00009F008F80A224946404609F035F84146C2
:10580000304609F00DF9D14909F012F94A4678619C
:10581000696B504600F0DCFD012302939BE8030016
:105820008DE8030029469AE80C002046FFF7D4F9DA
:105830002146786909F0F4F8014607F1280009F0DB
:10584000CDF8204608F09EFF404608F09BFF30460A
:1058500008F098FFB9F1070FBD4907F12800C1D141
:105860005BE40121584609F073F9A0F13006F3B268
:10587000072B3FF652AC4946584609F069F94328D0
:1058800000F0A4824946584609F062F9632800F006
:105890009D824946584609F05BF9462840F06E82E1
:1058A00003225946204607F15808D5F8349009F0EC
:1058B000B9F9404622462946FFF76CF807F1600324
:1058C00093E803008DE803004846314698E80C0051
:1058D00000F0B2FD204608F055FF9E49204608F032
:1058E00091FF594678E49C49584609F0BFF8824632
:1058F000002800F0BA80C14607F1E80A07F584786D
:1059000007F1F00B03E009F06DF809F10109934983
:10591000304608F077FF0A224946404608F0A4FFC7
:105920004146304609F07CF8884909F081F84A463A
:105930007861696B504600F04BFD002302939BE8B1
:1059400003008DE8030029469AE80C002046FFF783
:1059500043F92146786909F063F8014607F1280008
:1059600009F03CF8204608F00DFF404608F00AFF19
:10597000304608F007FFB9F1070F754907F1280015
:10598000C1D1FFF7CABB0121584609F0E1F8A0F1E7
:1059900030085FFA88F3072B3FF6BFAB49465846FD
:1059A00009F0D6F8432800F034824946584609F0F9
:1059B000CFF8632800F0B7814946584609F0C8F887
:1059C000462800F042814946584609F0C1F8662849
:1059D00000F01C810021584609F0BAF8572800F061
:1059E00091805846002109F0B3F877287FF495ABF1
:1059F0005B49304608F006FF0A22414607F58470ED
:105A000008F032FF07F58471304609F009F84F4974
:105A100009F00EF807F1C809824642464846696B0C
:105A200000F0EEFC0023029307F1D00393E803009B
:105A30008DE803002946204699E80C00FFF7CCF8D2
:105A40002146504608F0ECFF014607F1280008F017
:105A500065FF204608F096FE07F5847008F092FE78
:105A6000304608F08FFEFFF758BB3E49584608F015
:105A7000FDFF804600287BD007F5847807F1F80900
:105A800007F5807B3849304608F0BCFE0A225146B3
:105A9000404608F0E9FE4146304608F0C1FF2B4978
:105AA00008F0C6FF52467861696B484600F09CFCDE
:105AB000012302939BE803008DE80300294699E83F
:105AC0000C002046FFF788F82146786908F0A8FF07
:105AD000014607F1280008F081FF204608F052FE39
