:1000000000800020BD0100005DC0000015C00000A0
:1000100015C0000015C0000015C0000015C000008C
:1000200015C0000015C0000015C000005DC0000034
:100030005DC0000015C00000FDD9000001DA00001D
:100040005DC000005DC000005DC000005DC000003C
:100050005DC000005DC000005DC000005DC000002C
:100060005DC000005DC000005DC000005DC000001C
:100070005DC000005DC000005DC000005DC000000C
:100080005DC000005DC000005DC000005DC00000FC
:100090005DC000005DC000005DC000005DC00000EC
:1000A000E1E90000EDE900005DC000005DC0000076
:1000B0005DC000005DC000005DC000005DC00000CC
:1000C0005DC000005DC000005DC000005DC00000BC
:1000D0005DC000005DC000005DC000005DC00000AC
:1000E0005DC000005DC000005DC000005DC000009C
:1000F0005DC000005DC000005DC000005DC000008C
:100100005DC000005DC000005DC000005DC000007B
:100110005DC000005DC000005DC000005DC000006B
:100120005DC000005DC000005DC000005DC000005B
:100130005DC000005DC000005DC000005DC000004B
:100140005DC000005DC000005DC000005DC000003B
:100150005DC000005DC000005DC000005DC000002B
:100160005DC0000029C900005DC000005DC0000046
:100170005DC000005DC000005DC000005DC000000B
:100180005DC000005DC000005DC000005DC00000FB
:100190005DC000005DC000005DC000005DC00000EB
:1001A0005DC000005DC000005DC000005DC00000DB
:1001B0005DC000005DC00000D5B40000564B4CF29D
:1001C000205210B51A804DF628121A8000BF00BFC9
:1001D0000BF048FF514B4FF010621A60504A9A6082
:1001E000504ADA60504A136813F4807304D14F49BF
:1001F0000B604FF4A85313604D4B1A78110703D5C9
:100200001A7842F008021A704A4B4B492A221A7097
:100210004A4A4B4B8B4204D252F8040F43F8040B6A
:10022000F8E7484B484900228B4202D243F8042B9E
:10023000FAE74649464A002352F8230041F82300D2
:1002400001336F2BF8D1434B434A802103F8011B44
:100250009342FBD1414B3D4A1A60414B8A221A70AE
:10026000A3F5805324225A70A0221A709A7992071B
:10027000FCD59A79D406FCD43A4A937903F00C035E
:10028000082B384BF9D105221A7143225A719A79F9
:100290009006FCD5334A9179324B4906FBD5324A58
:1002A0004FF0817111600521516020221A709A79F6
:1002B00002F00C020C2AFAD12C4B2D4A1A602D4B5D
:1002C0002D4A1A6000225A60072243F8042C2B4A58
:1002D000C3F80C2D62B60CF0DDF9144B1B68DA077D
:1002E00005D527480CF038F8264B274A1A60274BCB
:1002F0001B785B0609D5234C234B22689A4204D114
:100300001F480CF029F80023236011F02FFD0BF09B
:10031000AFFE0BF0DDFDFEE70E200540308004400F
:10032000823F04000100002B10D0034014D0034092
:1003300002D0074000E0074060A8FF1FFC7E0100DC
:10034000209BFF1F60A8FF1F84BBFF1F0096FF1F9D
:100350000000000000E400E05FE400E008ED00E0E1
:1003600000500640004006404480044004800440A1
:10037000C010050014E000E03F190100000020203B
:10038000361181611CE00340A5C3945A00F0074078
:10039000FFFFFFFFFFFFFFFFFFFFFFFFFFFFFFFF6D
:1003A000FFFFFFFFFFFFFFFFFFFFFFFFFFFFFFFF5D
:1003B000FFFFFFFFFFFFFFFFFFFFFFFFFFFFFFFF4D
:1003C000FFFFFFFFFFFFFFFFFFFFFFFFFFFFFFFF3D
:1003D000FFFFFFFFFFFFFFFFFFFFFFFFFFFFFFFF2D
:1003E000FFFFFFFFFFFFFFFFFFFFFFFFFFFFFFFF1D
:1003F000FFFFFFFFFFFFFFFFFFFFFFFFFFFFFFFF0D
:10040000FFFFFFFFFFFFFFFFFFFFFFFFDEF9FFFF23
:1004100010B5054C237833B9044B13B10448AFF33E
:1004200000800123237010BD60A8FF1F00000000A2
:10043000F87E0100084B10B51BB108490848AFF31E
:1004400000800848036803B910BD074B002BFBD0A0
:10045000BDE81040184700BF0000000064A8FF1F5F
:10046000F87E010060A8FF1F0000000010B50446E0
:1004700024300BF0C7F904F114000BF0C3F9201D70
:100480000BF0C0F9204610BD10B5064B03600446C2
:1004900000F5DE700BF0B6F904F5D6700BF0B2F98A
:1004A000204610BD2074010070B500F65836054690
:1004B0004EB100F6E844A64205D0103C20460BF0B1
:1004C000A1F9A642F9D105F51C6605F53564A642E9
:1004D00005D0103C20460BF095F9A642F9D105F65F
:1004E000280605F6B814A64205D0103C20460BF0AD
:1004F00089F9A642F9D105F5D26605F50264A6424E
:1005000005D0103C20460BF07DF9A642F9D105F547
:100510009F6605F5D164A64205D0103C20460BF03D
:1005200071F9A642F9D105F5587605F59E64A64203
:1005300005D0103C20460BF065F9A642F9D105F52F
:10054000E47605F55674A64205D0103C20460BF023
:1005500059F9A642F9D128460BF054F9284670BD46
:10056000022101480AF09CBCD8ABFF1F01B17047C3
:10057000014808F079B800BF7CA8FF1F01480AF0C5
:10058000DBBD00BFACAAFF1F70B5254C254D264E24
:1005900020460AF069F9014628460AF0ADFD2046DA
:1005A0000AF064F9014628460AF0AAFD20460AF03E
:1005B0005FF9014628460AF0A7FD20460AF05AF9DD
:1005C000014628460AF0A4FD20460AF055F90146E6
:1005D00028460AF0A1FD20460AF050F901462846B7
:1005E0000AF09EFD20460AF04BF9014628460AF023
:1005F0009BFD20460AF058F9014628460AF098FD6E
:1006000020460AF03DF90146304608F0A5FA20469A
:100610000AF04AF901463046BDE8704008F0A0BA39
:100620005CABFF1FACAAFF1F7CA8FF1F08B504210D
:10063000044808F0A3FA05210348BDE808400AF081
:100640002FBC00BF7CA8FF1FD8ABFF1F08B503213C
:10065000044808F093FA04210348BDE808400AF072
:100660001FBC00BF7CA8FF1FD8ABFF1F08B505212A
:10067000044808F083FA06210348BDE808400AF060
:100680000FBC00BF7CA8FF1FD8ABFF1F08B50D48EB
:1006900008F07AFA88B901210A4808F06FFA094887
:1006A00008F062FA18B1012107480AF01DF9032188
:1006B0000648BDE808400AF0F3BB0221014808F0F3
:1006C0005DFAECE77CA8FF1F5CABFF1FD8ABFF1FF8
:1006D00008B50C4808F058FA012803D0052109484C
:1006E00008F04CFA062108480AF0DAFB054808F041
:1006F0003BFA00B908BD00210448BDE808400AF0F3
:10070000F3B800BF7CA8FF1FD8ABFF1F5CABFF1F77
:1007100000B585B02F4968460BF0B4F869462E48FD
:1007200008F06CFA68460BF06DF82C492C4807F07D
:10073000E9FE2C480AF0D6FC284807F049FB274977
:10074000254808F03BFA254927480AF0EBF82748E6
:1007500009F0A8FF0022264924480AF0B3F8002235
:100760001F4920480AF048FD002222491D480AF08E
:10077000E9FC002220491B480AF0F6FC00221F4930
:1007800018480AF003FD00221D4916480AF046FDEC
:1007900000221C4913480AF00BFD00221A49114897
:1007A0000AF018FD002219490F480AF067FB0F48AC
:1007B0000AF086F8212807DDFF20032214490BF0F8
:1007C0000BFD05B05DF804FB08480AF079F8C0B2EB
:1007D000F3E700BFF46C010074AAFF1FB0ACFF1F69
:1007E0007CA8FF1FACAAFF1FD8ABFF1F5CABFF1F8D
:1007F00089050000610500008D0600002D0600003F
:100800004D060000D10600006D0600006D050000D9
:100810007D05000008B500210F4800F089FF002188
:100820000E4800F085FF00210D4800F081FF0021F7
:100830000C4800F07DFF0C4809F0FAFE0A4808F069
:10084000E7FB00B908BD094804F0F2FE00210648A4
:10085000BDE8084008F0DEBB5CABFF1FACAAFF1F81
:100860007CA8FF1FD8ABFF1F74AAFF1FB0ACFF1FEF
:100870002DE9F8430021994C99489A4E9A4F0BF074
:1008800001F89A4A9A4996480DF094F92C220021D1
:10089000204611F013FE974B32682360FF2100239E
:1008A000012061726175A1752072276384F8393067
:1008B000236484F83830E36311460AB9CFE119465E
:1008C0004B69002BFBD18C4B4B61134600228B48AC
:1008D00067654FF480416264A286E28684F83A201C
:1008E00084F85D20626684F85C20226620632165BE
:1008F00000E02B465D69002DFBD1DFF81C92DFF88C
:100900001C82C3F814904846A566A4F85850A4F871
:100910005A5084F85E50E56625676567A4F87850FC
:10092000C4F8548007F04AFD3268C4F8887084F82F
:100930009150C4F8985084F89050C4F89450694984
:100940000AB990E11A465369002BFBD16C4B5361F5
:1009500000256B48C4F88880C4F89C50A4F88C50DB
:10096000A4F88E5084F89250C4F8A050C4F8A45053
:10097000C4F8A850A4F8AC5007F020FD326884F801
:10098000C550C4F8CC5084F8C450C4F8C850C4F85A
:10099000BC70544B0AB96AE11A465369002BFBD16B
:1009A000584B536100255748C4F8BC80C4F8D05058
:1009B000A4F8C050A4F8C25084F8C650C4F8D4506B
:1009C000C4F8D850C4F8DC50A4F8E05007F0F6FCA6
:1009D000326884F8F950C4F8005184F8F850C4F82B
:1009E000FC50C4F8F0703F4B0AB943E11A46536912
:1009F000002BFBD1444B536100254348C4F8F080E1
:100A0000C4F80451A4F8F450A4F8F65084F8FA504D
:100A1000C4F80851C4F80C51C4F81051A4F814518A
:100A200007F0CCFC3948C4F834014FF0040E0246FC
:100A300084F82C512B46C4F83051C4F8247129464F
:100A4000A0F5A67084F82DE101E0D0F8342142F839
:100A5000231094F82D2101339A42F6DC3268214BA1
:100A60000AB90AE11A465369002BFBD1284B53619E
:100A70002848DFF8ACE0C4F85C7100214FF4803501
:100A800001270246C4F86C010B46A0F5BA70C4F801
:100A90003811A4F82811A4F82A1184F82E1184F82A
:100AA0006411C4F86811C4F824E1C4F83C51C4F8D6
:100AB0004051C4F84451C4F8485184F8657101E0CC
:100AC000D0F86C2142F8231094F8652101339A4242
:100AD000F6DC3268034B32BBD2E000BF7CA8FF1FBC
:100AE000A0B9FF1FCCB9FF1FF06C0100FC9BFF1FDA
:100AF00005B8000020740100ACA8FF1F8871010038
:100B000004A9FF1F38A9FF1F6CA9FF1FC8A9FF1F59
:100B1000A0A9FF1FF0A9FF1FD0A8FF1F7C71010033
:100B2000647101001A465369002BFBD1564B536187
:100B30000025564BC4F85C31C4F87051A4F86051DC
:100B4000A4F8625184F866514F48514FDFF8848110
:100B500007F01EFB2946C4F89051C4F89451C4F81C
:100B60009851A4F89C514B48C4F87851C4F87C5172
:100B7000C4F88051C4F88451C4F88851C4F88C5129
:100B80000AF080FE294644480AF07CFE4FF0010935
:100B90000023424A42494348C4F8CC31C4F8D0311A
:100BA000C4F8D431C4F8D831C4F8DC31C4F8E03129
:100BB000C4F8E431C4F8E831C4F8EC31C4F8F031D9
:100BC00084F8F4910CF0F6FF294638462C2211F0F7
:100BD00075FC3846FF26344B344C40F8383B2946E8
:100BE0006B2287F808907E727E75BE7500F074F8EF
:100BF000294640462C2287F85C5011F05FFC2946BC
:100C00002B4B88F80890204688F8096088F8156012
:100C100088F816602C22C8F8003011F04FFC082329
:100C2000244A84F8089066726675A6752248C4F84E
:100C30008830C4F88C302260C4F8D45007F0A6FF86
:100C4000164A1E491C480CF0B5FF1D4800F094FFE1
:100C5000124A1C491A48BDE8F8430CF0ABBF04F136
:100C60003003336032E609F134030B6070E6164A54
:100C70001A6097E6154A1A60BEE6154A1A60F7E64A
:100C8000014A1A6054E700BFD8A9FF1F7071010024
:100C90005CABFF1F28AAFF1F38AAFF1FFC9BFF1F8A
:100CA000890400007CA8FF1F40780100D8ABFF1F1B
:100CB000487901003079010074AAFF1F6D0400001B
:100CC000B0ACFF1FA904000038A9FF1F6CA9FF1FCB
:100CD000A0A9FF1FACAAFF1FF0B50A236B24017067
:100CE0004470837019BB427001234FF4D0724FF4EB
:100CF000FA6E4FF4C8771026642540F6B8340371B5
:100D0000037343738373C3738375C3750376437629
:100D10000A210023A0F806E0028142824781068270
:100D2000858244838183837703844384F0BD0129D2
:100D300008BF8270D8E700BF2DE9F0410C4601786A
:100D4000064690461D46002950D001294AD13D4F04
:100D5000807800210BF010FC396848F080034FF0D8
:100D60000042CA624B63CB6A002BFCDA8B6B002D0E
:100D70005FD06A1ED2B201320020224484464FF076
:100D8000004EC1F82CE0C1F834C0CB6A002BFCDA6D
:100D90008B6BDBB2FF2B04F8013B04BF0130C0B208
:100DA000A2423CD03968ECE743462A46717838467F
:100DB0000DF008FD97F8392097F838309A4211D095
:100DC00085B1691EC9B2013121449A4233D8FF224C
:100DD00004F8012B97F8392097F838309A4201D05F
:100DE0008C42F2D100242046BDE8F0814378164FB2
:100DF0004FF0010811465B00384687F83B3087F812
:100E00005E8087F85D800DF04DFA414638460DF062
:100E10004FFC0028C8D044462046BDE8F081A842D7
:100E200007D00024B07801210BF0A6FB2046BDE8D6
:100E3000F0810524F6E7FA180133127E87F838307E
:100E4000C6E700BFA49DFF1FDC9DFF1F10B582B049
:100E50000223282201A90446FFF76EFF9DF8052012
:100E60009DF8043043EA02231BB220B1052805D0C7
:100E7000628C01326284184602B010BD228C184682
:100E80000132228402B010BD38B50446FFF7DEFF00
:100E90000546208A400810F0E3FC0446284610F07E
:100EA000DFFC054910F030FD0146204610F02CFD16
:100EB000024910F0DDFD38BD23DB793D00007A44A6
:100EC00010B582B002232A2201A90446FFF734FF9D
:100ED0009DF805209DF8043043EA02231BB220B19F
:100EE000052805D0628C01326284184602B010BD1C
:100EF000228C18460132228402B010BD38B5044657
:100F0000FFF7DEFF0546208A400810F0A9FC0446E2
:100F1000284610F0A5FC054910F0F6FC01462046D5
:100F200010F0F2FC024910F0A3FD38BD23DB793D3F
:100F300000007A4410B582B002232C2201A9044695
:100F4000FFF7FAFE9DF805209DF8043043EA0223DE
:100F50001BB220B1052805D0628C0132628418468C
:100F600002B010BD228C18460132228402B010BD9E
:100F700038B50446FFF7DEFF0546208A400810F02A
:100F80006FFC0446284610F06BFC054910F0BCFCD1
:100F90000146204610F0B8FC024910F069FD38BD4A
:100FA00023DB793D00007A4410B582B0022322226F
:100FB00001A90446FFF7C0FE9DF805209DF8043006
:100FC00043EA02231BB220B1052805D0628C01320E
:100FD0006284184602B010BD228C18460132228469
:100FE00002B010BD38B50546FFF7DEFFEB88F52BE4
:100FF000044614D00B48A0FB0330C0F3C70010F028
:101000002FFC0546204610F02BFC074910F07CFC15
:10101000294610F079FC054910F02AFD38BD4FF043
:101020008045EFE7D34D621000008C4000007A4409
:1010300010B582B00223242201A90446FFF77CFEEA
:101040009DF805209DF8043043EA02231BB220B12D
:10105000052805D0628C01326284184602B010BDAA
:10106000228C18460132228402B010BD38B50546E4
:10107000FFF7DEFFEB88F52B044614D00B48A0FBEE
:101080000330C0F3C70010F0EBFB0546204610F01C
:10109000E7FB074910F038FC294610F035FC0549FC
:1010A00010F0E6FC38BD4FF08045EFE7D34D6210FD
:1010B00000008C4000007A4410B582B00223262242
:1010C00001A90446FFF738FE9DF805209DF804307D
:1010D00043EA02231BB220B1052805D0628C0132FD
:1010E0006284184602B010BD228C18460132228458
:1010F00002B010BD38B50546FFF7DEFFEB88F52BD3
:10110000044614D00B48A0FB0330C0F3C70010F016
:10111000A7FB0546204610F0A3FB074910F0F4FB9F
:10112000294610F0F1FB054910F0A2FC38BD4FF044
:101130008045EFE7D34D621000008C4000007A44F8
:101140002DE9F84390F8008007460C469146B8F127
:10115000000F2DD0B8F1010F25D1002180780BF0C0
:101160000BFA2E4B1B6849F080024FF00041D96208
:101170005A63DA6A002AFCDA4FF000410022986BC9
:10118000D9625A63DA6A002AFCDA9E6BB878F6B242
:1011900001210BF0F1F9FF2E0CBF05270027267067
:1011A0003846BDE8F883002726703846BDE8F88346
:1011B0001B4D43784FF0010911465B00284685F826
:1011C0003B3085F85E9085F85D900DF06BF84946F0
:1011D00028460DF06DFA79784B46071C4A4628469A
:1011E00018BF01270DF0EEFA95F8383095F8391050
:1011F0008B421A46D8D04046994203F101062A4450
:1012000083BFF3B20120167EFF268B421A46F3D12C
:101210000028C9D085F83830C6E700BFA49DFF1F5D
:10122000DC9DFF1F30B5057883B00446002D35D016
:10123000012D1BD000238DF8063042F210729DF86C
:101240000630013A0133DBB292B28DF80630002A43
:10125000F5D120460F220DF10701FFF771FF9DF830
:101260000700693818BF012003B030BD0D480CF0ED
:101270003DFE0D490B480CF0D1FE294609480CF003
:10128000A1FE002107480CF0C3FE2946A0780BF010
:1012900087F92946A0780BF06FF9CBE703480DF0EA
:1012A00015F8C7E7A49DFF1F00000238DC9DFF1F53
:1012B00070B503780446154603B3012B1CD10E46C6
:1012C000807800210BF058F9194B1B684FF0004251
:1012D000DA625E63D96A0029FCDA4FF00042996B4A
:1012E000DA625D63DA6A002AFCDAA0789B6B01217E
:1012F0000BF042F9002070BD002070BD0D4C43780A
:1013000001265B00204684F83B3084F85E6084F858
:101310005D600CF0C7FF294620460CF0C3FF314644
:1013200020460DF0C5F9003018BF012070BD00BF88
:10133000A49DFF1FDC9DFF1F70B5044682B00025F1
:101340008DF80650FFF76EFFA27B8DF80650012A3C
:10135000064651D02A4610212046FFF7A9FF132246
:101360000DF106012046FFF7EBFE9DF80620E37B1A
:1013700002F07F02012B8DF806204FF0130108BF09
:1013800042F08002204608BF8DF80620FFF790FF4C
:1013900023790022012B8DF806200CD01121204644
:1013A000FFF786FF20460F220DF10701FFF7C8FE69
:1013B000304602B070BDE388F52B07D051D9B3F5A4
:1013C000FA7F63D0B3F57A7F5ED108222389D02BD0
:1013D00000F08E803AD940F241318B4200F0838098
:1013E00040F27C618B4279D0B3F5D07F62D042F07D
:1013F00040028DF80620D1E7A38A642B4BD0C82B7E
:1014000003D0322B14BF2A460322238A042B3FD059
:10141000082B2AD0022B01D042F00402638AB3F5D4
:10142000D07F00F08A8023D940F602518B4275D0DC
:1014300033D840F241318B4241D040F27C618B4243
:1014400071D142F080028DF8062084E71A2B59D022
:10145000342B52D00D2BCAD142F010028DF8062049
:101460009CE77D2B10D10222B0E742F00C02D5E7B9
:101470001A2B5DD04BD9342B26D0D02B53D142F030
:1014800050028DF8062066E70C229FE704229DE7B4
:1014900042F00802C2E70222B7E741F604218B427C
:1014A00017D043F212418B423DD142F0B0028DF889
:1014B000062050E742F060028DF806206EE742F009
:1014C00070028DF8062046E742F030028DF80620C3
:1014D00041E742F0A0028DF806203CE742F080028E
:1014E0008DF806205AE742F070028DF8062055E785
:1014F00042F050028DF8062050E742F030028DF89D
:1015000006204BE742F020028DF8062046E70D2B1F
:1015100009D142F010028DF806201CE742F090023B
:101520008DF8062017E742F040028DF8062012E7FA
:1015300042F020028DF806200DE742F060028DF89F
:10154000062008E790F91500704700BF002330B46B
:101550004A1E1D4600E0013312F8014F002CFAD15B
:1015600001358542F7D1581C084430BC704700BF94
:1015700010B5037A016123F00103043204460277B7
:10158000037201460022054800F044FAFF230022BE
:10159000227563756372204610BD00BFB0B9FF1F8E
:1015A0002DE9F04F85B09A46BAF1FF3F0F9B0E9F91
:1015B00003930C461546DDF84080DDF8449028D0B2
:1015C000012F18DD039BB3B105EB4505002604EBA5
:1015D0008504354620460095013600234A4641469B
:1015E00000F006FAB74204F10C04F3D105B0BDE8EF
:1015F000F08F4FF0000A554405EB4500002304EB43
:1016000080004A4641460E9305B0BDE8F04F00F019
:10161000EFB9002FEDDD02EB4203002601EB830B57
:10162000B246584600F0F2F9002808BFB24601362B
:10163000B7420BF10C0BF4D1C2E700BF2DE9F04F1C
:1016400085B09A46BAF1FF3F0F9B0E9F03930C465D
:101650001546DDF84080DDF8449028D0012F18DDD4
:10166000039BB3B105EB4505002604EB8504354625
:1016700020460095013600234A46414600F0AAF96B
:10168000B74204F10C04F3D105B0BDE8F08F4FF080
:10169000000A554405EB4500002304EB80004A4650
:1016A00041460E9305B0BDE8F04F00F093B9002F0E
:1016B000EDDD02EB4203002601EB830BB2465846F8
:1016C00000F0A4F9002808BFB2460136B7420BF17A
:1016D0000C0BF4D1C2E700BF2DE9F04112F08004F9
:1016E000069FDDF81C8017D022F080049C4211DA9E
:1016F00004EB44051E4601EBC505284601340023D2
:101700004246394600F048F9A64205F10C05F4D1ED
:10171000BDE8F081BDE8F0811A4402EB420001EB24
:101720008000234642463946BDE8F04100F034B916
:101730002DE9F04F7C4E8BB033680693DDF81880AE
:1017400004460F46237A9D074FD1A26A94F91410DC
:1017500043F00203013201312372A26250D194F9A5
:101760001510227F2069012311FB0233034493F9F2
:1017700000104B1C04D023682046DB689847227F6A
:10178000032A40F3B9804FF0030E75460AE094F93E
:10179000093099451DD0227F01356DB29542AE4684
:1017A00080F2AA80216994F9153002FB0313AEF18F
:1017B000030913F905A0BAF1FF3F4946204602F19B
:1017C000FF33E9D0734504D023689B68984700280D
:1017D000DDD0237A84F814A0033DFF22A57503F021
:1017E000FE03627223F00203237233680993099B9C
:1017F000C8EB0303BB42A5D320460BB0BDE8F08F76
:1018000023686FF00201DB6820469847256A002DA7
:101810003ED094F91530D4F82490581C7ED0207F07
:10182000D4F818A00344981E411C79D000286ED02B
:101830005146FFF78BFE834694F914104A1C6BD077
:10184000207F0144881E431C66D0002858D0514692
:10185000FFF77CFE034694F91600411C55D0013079
:10186000421C52D0002849D051460593FFF76EFE26
:10187000059B326807926168079A0190511AA26A23
:101880000392009302915B46524648462146A84780
:1018900094F91530002B09DB257F2169226802208D
:1018A00013FB0503D268C95620469047326894F965
:1018B00014000892237F089D2268656010FB03F3E3
:1018C00021696075FF252575C956D368204698475C
:1018D00094F91530227F2069012113FB021143186E
:1018E000415CFE29217A0CBF41F0010121F0010188
:1018F00021720021A1623AE7237A73E75046B8E7E4
:1019000094F91600411C5346A9D10848B1E794F94F
:1019100014104A1CD34693D1044B9CE7D4F818A06A
:10192000DFF808B088E700BF08BAFF1FFC6C0100B1
:1019300070B504460E46082501E05A1C27D1237ACB
:1019400023F00103237200212046FFF7F1FE94F9F2
:101950001520237F216912FB03630B44013D93F99A
:101960000330EAD1002B10DB237A667223F00103E7
:10197000237200212046FFF7DBFE237A23F00103C8
:10198000237200212046FFF7D3FE204670BD94F954
:1019900009200132D3D1E5E710B5047804F007043B
:1019A000012C0CD0032C08D1436833B11A6881682C
:1019B000526818469047012010BD012010BD3BB968
:1019C00043681BB180689847204610BD204610BD73
:1019D000002010BD10B49DF904404160640144F042
:1019E000010444EAC3038260037010BC704700BF67
:1019F00010B49DF904404160640144F0030444EADA
:101A0000C3038260037010BC704700BF007800F011
:101A1000070070470B7A5B0700D532B10368CB60D3
:101A200001600B7A43F004030B7270472DE9F84311
:101A3000D1F800E0BEF1000F4BD0804692E80102E1
:101A400048458C4618D29EF800100578A94247D127
:101A5000431C89B3764600E074B31F4616F8014F65
:101A600013F8015BAC42F7D01DB117F8013F002B12
:101A7000FBD1781C8145E8D8DCF808409168631CEC
:101A80004B4499420AD20123137498F8083023F08A
:101A90007F0388F808300020BDE8F8835360B9F16F
:101AA000000FF2D0DCF80010224648460AF018FA7F
:101AB000002309F80430484698F80830C8F80000B8
:101AC00023F07F0343F0050388F808300120BDE8C8
:101AD000F883037A23F07F0303720120BDE8F883C3
:101AE0000746C1E7002843D0F0B5037A13F07F041E
:101AF0002BD123F07F0343F0400303720460446062
:101B0000013137D000274FF0010E04E082F810E0D9
:101B10000023013917D05368946810339C42A4F114
:101B20001003F3D39360002BF3D045685E1B36118E
:101B3000DDB16E814360013924F8067C04F8087C2D
:101B400044F8047CE7D11846F0BD5B0612D5036863
:101B5000002BD5D00029F6D0B3F90A400139002C6A
:101B6000CED013EB0413F5D1CAE703604360E2E77C
:101B7000002070470020F0BD10B50021044609F098
:101B800081FE04F5E47006F031F904F5587006F0B2
:101B90002DF904F59F6006F029F904F5D26006F0EE
:101BA00025F904F6280006F021F904F51C6006F07A
:101BB0001DF904F6583006F019F9204610BD00BF93
:101BC00070B505460126002488B0C0F85863C0F8F7
:101BD000C441334900F5E47009F0F0FEC5F8F06443
:101BE000304905F5587009F0E9FEC5F8886605F535
:101BF0009F602D4909F0E2FE0A23C5F8203805F55B
:101C0000D2660134294904A809F03CFE0A22214683
:101C1000684609F069FE694604A809F041FF2449B5
:101C200009F046FF0146304609F0B8FE684609F063
:101C3000E9FD04A809F0E6FDD5F82038A34206F135
:101C40001006DEDC0A23C5F8B83905F6280600249C
:101C50000134184904A809F015FE0A2221466846F5
:101C600009F042FE694604A809F01AFF104909F07C
:101C70001FFF0146304609F091FE684609F0C2FD9B
:101C800004A809F0BFFDD5F8B839A34206F1100643
:101C9000DEDC0023C5F8503BC5F8E83C08B070BD59
:101CA0001C6E01002C6E01003C6E0100486E0100AC
:101CB000346E0100506E01002DE9F8435E4F5F491C
:101CC000044609F07BFE97E80F0000264FF0FF095D
:101CD00007F1100504F1240EC4F81490A661E66122
:101CE00026628EE80F0095E80F0004F1340E07F12C
:101CF00020058EE80F0095E80F0007F1300E04F183
:101D0000540C6664C4F84890E66426658CE80F00BD
:101D10009EE80F0007F1400C04F1640888E80F000A
:101D20009CE80F0004F1840CC4F87C906667A667F9
:101D3000C4F880608CE80F0095E80F0004F1A40C53
:101D4000C4F89460C4F89860C4F89C60C4F8A060BB
:101D50008CE80F0004F1B40C8CE80F0004F1C40C03
:101D60008CE80F0004F1D40C8CE80F009EE80F0003
:101D700004F1E40E8EE80F0095E80F0004F1F40E74
:101D80008EE80F0004F5827E8EE80F0007F1500503
:101D900004F58A7E8EE80F0095E80F0004F59A7E20
:101DA00007F16005C4F82461C4F82861C4F82C6107
:101DB000C4F830618EE80F0095E80F0004F5A27EAC
:101DC00007F170058EE80F0095E80F0004F5AA7E74
:101DD00007F180058EE80F0095E80F0004F5B27E4C
:101DE00007F190058EE80F0095E80F0004F5BA7E24
:101DF00007F1A0058EE80F0095E80F0004F5C27EFC
:101E000007F1B0058EE80F0095E80F00C03704F524
:101E1000CA7585E80F0097E80F0004F5D27585E8CC
:101E20000F00C4F8B461C4F8B861C4F8BC61C4F868
:101E3000C061BDE8F88300BF4C6D0100586E010021
:101E400010B5062304460361FFF736FF2046BDE8C0
:101E50001040FFF7B5BE00BF10B501F5E4710446B0
:101E600005F0E8FF204610BD10B584B00446684672
:101E700009F01CFD694604F5E47006F017F86846A1
:101E800009F0C0FC04B010BD10B501F5E4710446C2
:101E900005F0BEFF204610BD10B501F5587104468F
:101EA00005F0C8FF204610BD10B584B00446684652
:101EB00009F0FCFC694604F5587005F0F7FF684628
:101EC00009F0A0FC04B010BD10B501F5587104462E
:101ED00005F09EFF204610BD10B501F59F61044638
:101EE00005F0A8FF204610BD10B584B00446684632
:101EF00009F0DCFC694604F59F6005F0D7FF6846F1
:101F000009F080FC04B010BD10B501F59F610446D6
:101F100005F07EFF204610BD10B501F628010446ED
:101F200005F088FF204610BD10B584B00446684611
:101F300009F0BCFC694604F6280005F0B7FF6846C6
:101F400009F060FC04B010BD10B501F6280104468C
:101F500005F05EFF204610BD10B501F51C6104467A
:101F600005F068FF204610BD10B584B004466846F1
:101F700009F09CFC694604F51C6005F097FF684673
:101F800009F040FC04B010BD10B501F6583104460C
:101F900005F050FF204610BD10B584B004466846D9
:101FA00009F084FC694604F6583005F07FFF684666
:101FB00009F028FC04B010BD10B501F51C61044601
:101FC00005F026FF204610BD10B5D1F8543B01EBBB
:101FD0000311044601F6583109F068FC204610BD93
:101FE000D0F8502BD0F8E80C9042A8BF10467047AC
:101FF00010B501F5D261044605F01CFF204610BD66
:1020000010B584B00446684609F050FC694604F5F2
:10201000D26005F04BFF684609F0F4FB04B010BD38
:1020200010B501F5D261044605F0F2FE204610BD60
:10203000F0B593B00C4617460DF080FB20B91C4854
:102040000CF0FEFC13B0F0BD20460DF05FFE20B397
:10205000214602A80DF0B2FD039E049CA64216D8AC
:10206000F0E7A64207D9321B3546029801A9204461
:102070000CF0A6FD2C469DF8040027B1A0F1090341
:10208000DBB2F52BDED80BF055FBA642DAD9631C88
:102090009E42E6D31D460122E7E72346054A40213A
:1020A00002A810F067FC02A80CF0CAFC13B0F0BD47
:1020B000606E0100986E01000069704701EB02122A
:1020C000143210B404460FCA84E80F00204610BC36
:1020D000704700BF01EB0212A43210B404460FCACD
:1020E00084E80F00204610BC704700BF01EB0212CD
:1020F00002F59A7210B404460FCA84E80F00204615
:1021000010BC704782B010B401AC84E80C0001AB85
:1021100000EB01140FCB143484E80F0010BC02B0A4
:10212000704700BF82B010B401AC84E80C0001AB72
:1021300000EB01140FCBA43484E80F0010BC02B0F4
:10214000704700BF82B010B401AC84E80C0001AB52
:1021500000EB01140FCB04F59A7484E80F0010BC57
:1021600002B070472DE9F04F427C83B00125002476
:10217000B2B1027C202A27D8DFE802F01B262626EF
:10218000262626262611112626112626262626262E
:1021900026262626262626262626262611004474AE
:1021A000C268561CC6601278457422EAE272027454
:1021B000E0E7037A002B0CBF0123022380F858309C
:1021C000002003B0BDE8F08F457C01240472EDB11E
:1021D000272A26D00D46044621D95B2A00F0D1805B
:1021E0007B2A46D12A7A22F07F02DEB242F0200317
:1021F00000222B722A606A60002E40F05481052371
:10220000002084F8583003B0BDE8F08FC26815197B
:10221000C5601278447422EAE2720274D8E7222A76
:1022200027D1437C04684460002B00F0FA8300242B
:1022300023464474A6462646012793B1037C467480
:102240009A424FF0000400F0E580002B00F0F0808F
:102250005C2B71D00468651C05602370437C002BE7
:10226000ECD1C3685C1CC4601B7823EAE37303747D
:10227000E5E70020864604F1170647F6ED7C0127C6
:10228000A2F15F03DBB2A2F141011B2BC9B25FFADD
:1022900080F845D80130402835D104EB08030026EA
:1022A0001E76237E742B1BD0662B00F027846E2BAA
:1022B0001ED02B2B00F02A852D2B00F021851A46ED
:1022C00004F11801A2F13003DBB2092B40F248847B
:1022D0002E2A00F07585032384F85830002070E71B
:1022E0002B7A23F07F0343F0060301222B722A701E
:1022F000B8F1040F00F092830223002084F85830D4
:1023000003B0BDE8F08F84F811E006F8012FE36810
:102310005A1CE2601A78677422EAE2722274AFE70C
:10232000A2F12B031929DBB2B4D90E2B2CFA03F13D
:10233000B3D8CB07B1D5ADE7C3681D460133C36041
:1023400095F800C047742CEAEC7C5FFA8CF50574B4
:10235000BCF1000F6CD0BCF1750F70D02F2DC54CA7
:1023600002D109E0AB4207D014F8023F002BF9D1AB
:10237000032380F858305EE06378002BF8D0467471
:1023800068E72A7A22F07F02DEB242F040030022A0
:102390002B722A606A60002E3FF431AFE3686274EA
:1023A000012019460133E3600978607421EAE17184
:1023B0002174202900F25482DFE811F0210052023A
:1023C0005202520252025202520252025202C800F9
:1023D000C80052025202C800520252025202520275
:1023E000520252025202520252025202520252024D
:1023F000520252025202520252025202C800237A80
:10240000002B0CBF01230223002084F8583003B0B6
:10241000BDE8F08F03685A1C02601C700B7A42689A
:102420000A6023F07F0343F004030B720120C8E627
:10243000022380F85830002003B0BDE8F08F4674C6
:102440004FF0040C1D460133C36095F800804774BB
:1024500028EAE8785FFA88F5A5F130090574B8F143
:10246000000FE5D0402D85BF25F02005373D5FFAF0
:1024700089F5EDB245EA04140FFA84F80F2D0CF13A
:10248000FF3C1FFA88F43FF673AF1CF0FF0C467454
:10249000D8D104F520539BB2B3F5806F80F07A82D7
:1024A000C4F3090EDDE6E3686274012019460133C6
:1024B000E3600978607421EAE1712174202949D828
:1024C00001A757F821F000BFFF23000055250000A9
:1024D0005525000055250000552500005525000014
:1024E0005525000055250000552500005125000008
:1024F00051250000552500005525000051250000FC
:1025000055250000552500005525000055250000E3
:1025100055250000552500005525000055250000D3
:1025200055250000552500005525000055250000C3
:1025300055250000552500005525000055250000B3
:10254000552500005525000051250000627428E73C
:102550006274ABE701227D29227200F048820027D5
:10256000B846627C21686160002A00F0DC82227C2F
:10257000272A00F07D82222A00F07282607C0028E7
:1025800000F06A831346A3F13002D2B2092A00F2A6
:102590005182012047F6ED7E4A1C677422600B7061
:1025A000637C002B00F01A82237CA3F15F02D2B27D
:1025B0001B2A40F21182A3F14101C9B2A3F12B02FF
:1025C0001929D2B240F208820E2A2EFA02F140F204
:1025D000008223685A1C22601F70637C0122002B3A
:1025E0004BD0237C202B51D801A151F823F000BF00
:1025F000FF2300008D2600008D2600008D260000A0
:102600008D2600008D2600008D2600008D260000FE
:102610008D26000079260000792600008D26000016
:102620008D260000792600008D2600008D260000F2
:102630008D2600008D2600008D2600008D260000CE
:102640008D2600008D2600008D2600008D260000BE
:102650008D2600008D2600008D2600008D260000AE
:102660008D2600008D2600008D2600008D2600009E
:1026700079260000246F01006774E368591CE1604B
:102680001B78627423EAE3732374ABE7617C012255
:102690002272002900F05B823A2B7FF41CAED5F841
:1026A0000090D4F804A067740DE0BAF1000F03D0D5
:1026B00013B110F019FA80B1B9F90A30002B00F00B
:1026C0003C8209EB03195046B9F1000F00F0358246
:1026D000D9F80C309A451946E7D14946731E4FF098
:1026E00000022046FFF73EFD00283FF4A4AE637CC5
:1026F0000122002B49D0237C202B4FD801A151F877
:1027000023F000BFFF2300009D2700009D2700004D
:102710009D2700009D2700009D2700009D270000A9
:102720009D2700009D2700008927000089270000C1
:102730009D2700009D270000892700009D2700009D
:102740009D2700009D2700009D2700009D27000079
:102750009D2700009D2700009D2700009D27000069
:102760009D2700009D2700009D2700009D27000059
:102770009D2700009D2700009D2700009D27000049
:102780009D270000892700006774E368591CE160F9
:102790001B78627423EAE3732374ADE7617C012242
:1027A0002272002900F041827D2B00F020812C2B29
:1027B0007FF491ADE368677401211A460133E36049
:1027C0001278617422EAE2722274202A3FF6C9AEBE
:1027D00001A050F822F000BFF9220000632500009C
:1027E00063250000632500006325000063250000C9
:1027F0006325000063250000632500005D280000BC
:102800005D28000063250000632500005D280000AE
:102810006325000063250000632500006325000098
:102820006325000063250000632500006325000088
:102830006325000063250000632500006325000078
:102840006325000063250000632500006325000068
:1028500063250000632500005D2800006774ACE775
:1028600001235D29237200F0C28063695A68996868
:1028700010329142C0F0C08010399960002900F0F8
:102880008480013EF6B200276B68002B00F0E181E6
:10289000CA1A12115A8169604F810F72CF60334694
:1028A0004FF000022046FFF75DFC00283FF4C3AD67
:1028B000637C0122002B48D0237C202B4ED801A121
:1028C00051F823F0FF2300005D2900005D2900007E
:1028D0005D2900005D2900005D2900005D290000E0
:1028E0005D2900005D2900004929000049290000F8
:1028F0005D2900005D290000492900005D290000D4
:102900005D2900005D2900005D2900005D290000AF
:102910005D2900005D2900005D2900005D2900009F
:102920005D2900005D2900005D2900005D2900008F
:102930005D2900005D2900005D2900005D2900007F
:102940005D290000492900006774E368591CE160B3
:102950001B78627423EAE3732374AEE7617C01227F
:102960002272002900F0D6805D2B40D02C2B7FF402
:10297000B2AC636967745A689968103291423BD36C
:102980001039996000297FF47FAF042384F8583010
:10299000002016E404F510539BB2B3F5806FC0F02D
:1029A000C7817F2C8DF800C000F2CA8102AD5FFAAA
:1029B00088F305F8073D002B3FF450AC046804F1A0
:1029C000010CC0F800C0237015F8013D002BF5D1B3
:1029D00044E4CA077FF5FDAD2168DDE5E3685A1CD4
:1029E000E2601B78607423EAE3732374DDE500235F
:1029F00063740120FFF7E5BB01221A74C5E7B9F142
:102A0000000F40F03F82002E00F0B282C24A2B7AC3
:102A10002A6023F07F0343F00C032B720120FFF7A1
:102A2000D0BBC3685A1CC2601A7822EAE2720274F0
:102A3000FFF7FDBBA3F15F02D2B21B2A7FF6A9AD5F
:102A4000A3F14102D2B2192A7FF6A3AD2B2B3FF49A
:102A5000A0AD2D2B3FF49DAD2E2B7FF43CAC98E523
:102A6000617C29B95A1CE2601B7823EAE372227464
:102A7000002367749E46012093B1237C67749342C0
:102A800000F0E180002B00F0D9805C2B10D0216891
:102A900001F1010CC4F800C00B70637C002BECD179
:102AA000E368591CE1601B7823EAE3732374E5E7CC
:102AB000E36819460133E3600978607421EAE17143
:102AC0005FFA81FC84F810C0002900F0B7807529F6
:102AD00000F0CB80BCF12F0F904902D109E0634593
:102AE00007D011F8023F002BF9D1032384F85830A6
:102AF000A1E44B78002BF8D06774C8E72B7A2E70CE
:102B000023F07F0343F00603B8F1050F2B727FF427
:102B1000F3AB83E7E3689918E1601B78627423EAFA
:102B2000E373237420E71A460133E360127801202F
:102B300022EAE272227460741AE56269516893684D
:102B400010318B4280F0C780012313741DE7E368C6
:102B50009918E1601B78627423EAE37323749BE5A0
:102B60000020DFF8BC8105E040451AD84FEA4C0050
:102B7000704516D811F8017FA7F13002D2B218447F
:102B8000092A00EB800C13466FEA020EECD9002FE5
:102B900040F01781002E00F01F81B0F1004F40F28D
:102BA0007581DFF880C1DFF880E10023ACFB008095
:102BB000C008013370455BB2F8D8092A88BF3A468D
:102BC00007D811F8012FA2F130070133092F5BB2AA
:102BD000F7D92E2A00F008810F7807F0DF02452A86
:102BE00000F0C1800022002F7FF475AB9C180EF01E
:102BF00033FE002C40F39481DFF8308114F0010F94
:102C0000FBB207F1010703D058F823100EF07CFE49
:102C10006410F3D10EB100F100402B7A286023F04C
:102C20007F0343F00C032B72F8E6E3689918E16028
:102C30001B78627423EAE3732374B5E5022384F8F6
:102C40005830FFF7F8BB23685A1C226083F80080D5
:102C5000C3E4296069601FE65A1CE2601B78012208
:102C600023EAE373237462748DE467744FF0040CF9
:102C70004FF0000919460133E36091F800A0607439
:102C80002AEAEA7A5FFA8AF1A1F1300B2174BAF1EB
:102C9000000FD3D0402985BF21F0200137395FFADA
:102CA0008BF1C9B241EA09190FFA89FA0F290CF11F
:102CB000FF3C1FFA8AF93FF618AF1CF0FF0C67744F
:102CC000D8D109F520539BB2B3F5806F80F0B8805E
:102CD000C9F3090EE4E6A3F11001916000293FF465
:102CE00054AE6A68002A00F0CA80881A0011508128
:102CF000696023F8067C03F8087C43F804ACEDE433
:102D000004F11901627E0126FFF7DCBA627E04F14C
:102D10001901FFF7D7BA00BF000080FF246F010040
:102D200099999919CDCCCCCCFFFF7F00346D01006F
:102D3000C4F3090444EA8E2404F580348DF800C0FD
:102D400004F03F03A409A5B263F07F031F2D8DF8A3
:102D5000013064D864F03F04E3B28DF802300DF125
:102D60000305013D2AE64F782D2F00F0C5802B2F5B
:102D700000F0D28001F1010EA7F13002D1B2092991
:102D80003FF630AF991826293FF73DAE4FF00009C6
:102D900005E001EB4802D11826293FF730AE1EF8B6
:102DA000017FA7F130015FFA81FCBCF1090F02EB52
:102DB0008208EED9B9F1000F3FF415AF524212E785
:102DC00000200F78B0F5000FA7F13002D2B238BF63
:102DD0000023FFF4F2AEE4E62B7A286023F07F03B1
:102DE00043F008032B7219E64F78A7F13002D2B2F4
:102DF000092A01F101013FF6F0AEDFF89CE17045D0
:102E000005D800EB8000013B02EB40005BB211F8FB
:102E1000017FA7F13002D2B2092AF0D9DDE604F031
:102E20003F05C4F3891365F07F050F2B8DF8025021
:102E300053DC63F01F03DBB28DF8033001AD90E784
:102E400009F510539BB2B3F5806F28D34B467F2B07
:102E50008DF800C02BD80DF1080C5FFA8AF30CF83E
:102E6000073D002B3FF419AE216801F10109C4F8B8
:102E700000900B701CF8013D002BF5D10DE6296088
:102E8000696036E7002E5ED10022C0E52B7A23F080
:102E90007F03404243F00A0328602B72BEE5C9F36A
:102EA000090343EA8E2303F580338DF800C003F055
:102EB0003F019B091FFA83FC61F07F01BCF11F0FEA
:102EC0008DF8011042D863F03F03DBB28DF8023079
:102ED0000DF1030C0CF1FF3CC6E703F03F03C4F314
:102EE000033463F07F0544F0F0038DF803508DF850
:102EF00004300DF1050534E78F78A7F130025FFA51
:102F000082FCBCF1090F01F1020E43D89918262961
:102F1000B8DC4FF0010942E701F1020E8F782BE790
:102F20006442002C3FF476AEDFF8708014F0010F9D
:102F3000FBB207F1010703D058F823100EF0E4FCB0
:102F40006410F3D166E64FF0004260E503F03F0CF9
:102F5000C3F389116CF07F0C0F298DF802C00ADCD5
:102F600061F01F03DBB28DF803300DF1040CB1E703
:102F70004FF0FF424BE501F03F01C3F3033361F033
:102F80007F0143F0F0038DF803108DF804300DF14C
:102F9000050C9FE7002211E7CBCC0C001C6D010053
:102FA000F8B5037A13F07F0407D123F07F0343F0D1
:102FB0002003DBB20372046044609B061DD5E1B1BF
:102FC00017460D460646046808E013B10FF08CFD65
:102FD00050B1B4F90A304BB104EB031428462CB1BC
:102FE000E368AB421946F0D12046F8BD7A68BB6869
:102FF0001032934203D201233B740020F8BDA3F1A9
:103000001004BC60002CF8D0726862B1A11A0911DA
:1030100051817460002203F8082C43F8045C2046B8
:1030200023F8062CF8BD34607460F3E738B5037AF2
:1030300003F02003ABB10D46046809E01DB113B1E4
:103040000FF052FD50B1B4F90A0048B104EB00147E
:1030500028461CB1E368AB421946EFD1204638BD83
:1030600038BD03F0FF04204638BD00BF2DE9F84FFE
:10307000C3681A7F9206884640F1E5805E6905695B
:10308000074634460BE01DB113B10FF02DFD70B1B2
:10309000B4F90A30002B00F0D68004EB0314284664
:1030A000002C00F0D080E3689D421946EBD1237AD2
:1030B0005B0640F1C8802368002B00F0C480D7F87D
:1030C00014B00BF1FF3ABBF1000F13D0B3F90A2093
:1030D000002A00F0B880002105E0B3F90A20013190
:1030E000002A00F0B080514503EB0213F5D1002B0C
:1030F00000F0A9801A7A940640F1A5801C68D7F8E0
:1031000018900DE0B9F1000F03D013B10FF0ECFCF3
:1031100070B1B4F90A30002B00F0958004EB031471
:103120004846002C00F08F80E36899451946E9D1A4
:10313000237A980640F18780FF6924680AE01FB16E
:1031400013B10FF0D1FC60B1B4F90A30002B7AD082
:1031500004EB03143846002C75D0E3689F421946EF
:10316000EDD1237A03F07F03082B68D00A2B0BD014
:1031700069E01DB113B10FF0B7FC60B1B6F90A30C8
:10318000002B68D006EB03162846002E63D0F368A8
:10319000AB421946EDD1337A59065CD53368002B22
:1031A00059D0BBF1000F10D0B3F90A20002A52D039
:1031B000002104E0B3F90A200131002A4BD0514527
:1031C00003EB0213F6D1002B45D01A7A920642D5B2
:1031D0001C680CE0B9F1000F03D013B10FF084FCB0
:1031E00058B1B4F90A30002B35D004EB031448462B
:1031F0008CB3E36899451946ECD1237A9B062AD50E
:10320000246809E01FB113B10FF06EFC50B1B4F99E
:103210000A3003B304EB03143846E4B1E3689F4279
:103220001946EFD1237A03F07F03043B082B12D811
:10323000DFE803F032322F11281125111400236822
:10324000B3F1004FA0D3D8F80000BDE8F88FBCF16F
:10325000000F40F0F3800020BDE8F88F24684FF0A5
:103260004F4120460EF002FD58B34FF09E412046DC
:103270000EF0F2FC002840F08A80BDE8F88F20684C
:10328000BDE8F88F2068B0F1004F28BF0020BDE8EE
:10329000F88F2078BDE8F88F226813782B2B7ED02A
:1032A0002D2B79D1012451782244A1F13003DBB2D6
:1032B000092B4FF0000006D92E2900F0E980BDE867
:1032C000F88FBDE8F88FDFF8F4E104E0704518D816
:1032D0007800B04215D812F8015FA5F13001C9B2EB
:1032E0001844092900EB80070B466FEA0106EDD967
:1032F000002D40F0CD80002C00F08180B0F1004F17
:103300007AD9694F694E0023A7FB00E0C00801335A
:10331000B0425BB2F8D8092988BF294607D812F80D
:10332000011FA1F130050133092D5BB2F7D92E2918
:103330006BD0167806F0DF01452934D00021002E2D
:1033400089D15D180EF088FA002D40F38C80584F1B
:1033500015F0010FF3B206F1010603D057F8231060
:103360000EF0D2FA6D10F3D1002C6AD000F10044B7
:103370004FF04F4120460EF079FC0028A1D04FF0CD
:103380009E4120460EF068FC08B9BDE8F88F204643
:103390000EF096FCBDE8F88F1946002485E75178B9
:1033A0000024013281E756782D2E4CD02B2E08BFF9
:1033B0009678A6F13001CDB214BF01320232092D48
:1033C000BCD85D18262D3FF746AF4FF0000C05E046
:1033D00005EB4E01CD18262D3FF739AF12F8016FDE
:1033E000A6F13005EFB2092F01EB810EF0D9BCF147
:1033F000000FA4D04942A2E74042BDE8F88FB0F1E7
:10340000004F28BF0020BDE8F88F5678A6F13001A4
:10341000C9B2092902F101028CD8264DA84205D86B
:1034200000EB8000013B01EB40005BB212F8016F42
:10343000A6F13001C9B20929F0D97BE72CBB0020E5
:10344000A6E7044694E79678A6F13001CDB2092D9F
:1034500002F1020288BF0021CCD8CD18262DEDDC68
:103460004FF0010CBAE76D42002D3FF47DAF124FD3
:1034700015F0010FF3B206F1010603D057F823103F
:103480000EF042FA6D10F3D16EE74FF000407FE787
:103490001578B0F5000FA5F13001C9B238BF00238F
:1034A000FFF439AF2DE700BFCDCCCCCCFFFF7F00C0
:1034B000346D0100CBCC0C001C6D01009999991959
:1034C000002845D0F8B5037A13F07F0418D09B0686
:1034D00020D5F9B1064617460D46046808E013B139
:1034E0000FF002FB50B1B4F90A30ABB104EB031496
:1034F00028468CB1E3689D421946F0D12046F8BDBC
:1035000023F07F0343F02003DBB203729B060460C9
:103510004460DED40020F8BD7A68BB681032934264
:1035200013D3A3F11004BC60002CF3D072688AB1ED
:10353000A11A091151817460002203F8082C43F884
:10354000045C204623F8062CF8BD01233B74E1E718
:103550000020704734607460EEE700BF2DE9F04F43
:10356000037A03F07F03023B8BB00C463E2B00F244
:103570009182DFE813F0B400B400FD00FD004402C6
:103580008F02CE008F025E028F0238018F028F02FF
:103590008F028F028F028F028F028F028F028F02A3
:1035A0008F028F028F028F028F028F028F028F0293
:1035B0008F026D018F028F028F028F028F028F02A6
:1035C0008F028F028F028F028F028F028F028F0273
:1035D0008F028F028F028F028F028F028F028F0263
:1035E0008F028F028F028F028F028F028F028F0253
:1035F0008F023F00D0F80080B8F1000F00F0368550
:1036000091E8C000B7423D4680F08285984A3B462B
:1036100002F1030E02E0724500F06384581C12F8B8
:10362000011B6060197063682668B3421D46F2D3BF
:10363000DF1B227CA36801323B44D2B22274A36018
:103640002027DAB10022B54205F10100294680F0B9
:10365000758260602F7065682668B54205F10103C8
:1036600003D263602F7065682668A368691A013207
:10367000207CD2B20B449042A360E4D8214640465D
:10368000FFF76CFFB8F90A30002B00F0438218EB0B
:10369000031800F03F8265682668AE42AE4640F2ED
:1036A000E284744903222B4602E0002A00F04D8296
:1036B0005D1C11F8010B6560187063682668B342E1
:1036C00002F1FF321D46F0D3CEEB030EA368734424
:1036D000A360B8F1000F00F09682227CB1E791E878
:1036E0004800B34290E8060040F20885002A00F046
:1036F0000385334600E052B1581C606011F8010B9D
:10370000187094E80900834202F1FF32F3D3981B4A
:10371000D5E10DF1260E584E03687046A6FB031244
:10372000D20802EB8201A3EB41033033DDB200F893
:10373000015D1346002AF1D194E842008E42C0EBAD
:103740000E020FD272B1421C334603E0964508D0F8
:1037500012F8015B591C61601D7094E80A008B42ED
:10376000F4D39B1BA0681844A0600BB0BDE8F08F99
:103770004D680F680668BD4280F09C836A1C222356
:103780004A602B704D680F680123A268013E134404
:10379000A36016F8010F4FF05C0ED8B1222800F09C
:1037A000B181364B03E0D978814200F0AC811A79BF
:1037B0000233002AF7D1BD4205D26B1C636028702A
:1037C000656827680122A3681344A36016F8010FF7
:1037D0000028E3D1BD4280F072816A1C222362601E
:1037E00001202B706BE1D0F800A0514650460EF03E
:1037F00051FA002840F06A842AF000452846204902
:103800000EF048FA002840F0318228461C490EF09C
:1038100023FA002840F02A82626823689A4280F0E6
:103820005284184913460E1D01E0B14208D05D1CB8
:1038300011F8010B6560187094E809008342F4D315
:103840009A1AA3681344A36018460BB0BDE8F08F22
:10385000D0F80090B9F1000F00F0EA8348680E68D4
:10386000B04280F05B84084B0546DF1C10E000BFCF
:10387000406F0100486F0100CDCCCCCC246F01001B
:10388000FFFF7F7F386F01004C6F0100BB4208D003
:10389000691C13F8012B61602A7065682668B542BF
:1038A000F4D3281A227CA36801323146D2B20344F1
:1038B0002E462274A3604FF020082227CA460D46E8
:1038C000EAB10021AE4206F1010280F03981626066
:1038D00086F8008062682568AA4202F1010304D2DA
:1038E000636082F8008062682568A368901B1646B2
:1038F0000131227CC9B203448A42A360E2D8AE42BD
:10390000DAF80C1080F00481731C6360377094E85F
:103910006000A36801221344A36001F1FF3C4FF053
:103920005C091CF8010FD8B1222800F0CE80AF4B03
:1039300003E0D978814200F0C9801A790233002A65
:10394000F7D1AE4205D2731C6360307094E860001A
:103950000122A3681A44A2601CF8010F0028E3D1D9
:10396000AE4217D2731C63603770A2686168236827
:1039700001329942A2600ED24A1C3A2362600B7057
:1039800094E80C00934204D25A1C626083F80080D1
:103990006368581AA2681044A06021465046FFF799
:1039A000DDFDBAF90A30002B00F0BE801AEB031AD5
:1039B00000F0BA8094E84200B142B64640F251832A
:1039C0008B480322334602E0002A00F0BB805E1CD5
:1039D00010F8011B6660197094E80A008B4202F12E
:1039E000FF321E46F0D3CEEB030EA3687344A360F0
:1039F000BAF1000F00F099830D46227C60E7017850
:103A000062682368002940F07382934240F2788311
:103A1000784913464E1D02E0B1423FF411AF5D1CE0
:103A200011F8010B6560187094E809008342F3D324
:103A300006E70268002AC0F2CC820F684D68134680
:103A40000DF1260E6C4E7046A6FB0321C90801EB52
:103A50008102A3EB42033033DAB200F8012D0B46AA
:103A60000029F1D1AF42C0EB0E017FF67BAE0029F9
:103A70003FF478AE411C2B4603E08E4508D011F888
:103A8000012B581C60601A7094E80C009342F4D328
:103A90005B1B67E648680B68984280F02F83574AA3
:103AA0000346161D01E0B24208D05D1C12F8011B4E
:103AB0006560197094E80A008B42F4D3181AA36861
:103AC0001844A0600BB0BDE8F08F0246AE4204D3AC
:103AD000A36800221344A36023E7731C636086F885
:103AE000009094E86000A368AE4203F10103A36074
:103AF00080F00C83731C636032706668A36825686D
:103B00000122E7E70246BD4222D3A36800225BE61A
:103B1000002200E765682668AE42AE4672D90222EE
:103B20004FF000083649BEE594E84200B142B6467F
:103B300021D902224FF0000A314843E7002196E5DF
:103B40000020D5E6CEEB060E4FE7CEEB050EBDE529
:103B50006B1C636085F800E0A36865682768013323
:103B6000BD42A360D2D26B1C63602A706568A368F3
:103B70002768012228E6A36835460E46227C013AD2
:103B8000D2B222742F4602B300202022AE4205F1A9
:103B9000010140F2A28161602A7063682668B34225
:103BA00003F101011CD261601A7063682668B34298
:103BB0001F4615D2A368C5EB070E3D460130217C98
:103BC000C0B273448142A360E0D8B54280F0AA82BB
:103BD0006A1C7D2362602B706268A368D21B31E689
:103BE0001F46C5EB070EA3683D46E7E7246F0100BB
:103BF000486F0100586F0100CDCCCCCC386F01006C
:103C0000446F0100A368227C013AD2B222742F468D
:103C100002B300202022B54205F1010180F0648149
:103C200061602A70636826689E4203F1010117D91A
:103C300061601A7063682668B3421F4610D2A36899
:103C4000C5EB070E3D460130217CC0B27344814272
:103C5000A360E0D8AE4240F265826A1C5D23B9E7FA
:103C60001F46C5EB070EA3683D46ECE70021504612
:103C70000DF0E8FF656826680195002840F0C881CE
:103C8000BC4950460DF0F2FF002800F02081DFF81B
:103C900000B3DFF8009300274FF0200851465BF88F
:103CA000040D0DF0D9FF38B15046D9F800100DF0D1
:103CB0002BFE474482463FB2AF4B9B454FEA680814
:103CC000A9F10409EAD14FF0FF3B002150460DF065
:103CD000D7FF08B3A94950460DF0BEFFC8B91BE095
:103CE0000FFA8BF9A64B514653F829000DF0C8FF87
:103CF00048B1A14B504653F829100DF005FEC8EB12
:103D0000070782463FB20BF1FF3B4FFA8BFB4FEAAE
:103D10006808BBF1FF3FE3D150460DF0F7FF0928DB
:103D2000834640F2C081974B97485A460521A0FB35
:103D300002E2D208A0FB03E3092A01F1FF3E4FFA99
:103D400081F84FEAD3035FFA8EF1F0D81846029358
:103D50000DF082FD029B02465846039302920DF03D
:103D60007BFD014650460DF0C5FC029A11460DF050
:103D7000CBFD02900DF0CAFF82460DF06DFD029A58
:103D8000014610460DF0B6FC01460DF0B5FC0DF0F5
:103D9000BDFF039B50449842C0F08E800BF1010B95
:103DA000002F40F00A810020B8F1000F11DD764AA3
:103DB000414600E061B1A2FB0030C008A2FB00E375
:103DC000DB0803EB83030139B0EB430F49B2F1D0B9
:103DD00088460DF1260EDFF8B0C17146ACFB0B3200
:103DE000D20802EB8203ABEB43033033DBB201F8C2
:103DF000013D9346002AF1D1AE42C1EB0E0240F2E2
:103E00008281002A00F07F8101312A4604E0714559
:103E100000F0EF8011F8013B551C6560137062687B
:103E20002668B2421546F2D3019BC3EB0209A16892
:103E300009EB0103A360B8F1000F6DD1002F00F072
:103E4000C580B54280F0DA806A1C652362602B7001
:103E5000A368656826680133002FA360C0F228813B
:103E6000BFB2494B7146A3FB0720C00800EB80029C
:103E7000A7EB42023032D2B287B201F8012D002FF7
:103E8000F1D1B542C1EB0E030FD273B101312B4614
:103E900003E08E4508D011F8012B581C60601A70A1
:103EA00094E80C009342F4D35F1BA3683B44A360E7
:103EB0001846CAE4002368E4334BA3FB0023DB0865
:103EC00003EB8303B0EB430F3FF46EAF81E707468C
:103ED0004FF020084FF0050BF7E62F464FF0000E8D
:103EE0006CE6EF1BFFF7A5BB2F464FF0000EAAE6CE
:103EF0009A4280F01081254913460E1D02E0B1421E
:103F00003FF49EAC5D1C11F8010B6560187094E8DD
:103F100009008342F3D393E408F1FF380AA95FFA5A
:103F200088FBCBEB010A08A9AAF1090A894601938B
:103F3000154BA3FB003C4FEADC0C0CEB8C08A0EB10
:103F40004800303009F8010DD1456046F0D16FEAE4
:103F50000B00084400F1FF384FF02E0CB542019BD6
:103F600000F801CCC8EB010123D211B30239431888
:103F7000414615E08096184B346D0100ACC52737DB
:103F8000046D010040420F00CDCCCCCC506F01003D
:103F90004C6D0100306D01008B4209D011F801CF4A
:103FA000681C606085F800C065682668B542F3D378
:103FB000A368AA1A1A44A26040E7BBF1090F7FF672
:103FC000F2AE01373FB24FF0010BECE6A3681846A2
:103FD0003BE44D680F68BD4261D2691C2D236160CE
:103FE0002B70656827680123A1681944A1605342BA
:103FF00026E5019B2A46C3EB050918E7002FA368B5
:10400000BFF62EAF002213447A42A36097B228E78E
:10401000B54246D26A1C2D2362602B706568266803
:1040200001950123A26813440AF1004AA36027E620
:104030004A680B689A420ED2511C7B236160137050
:1040400094E80A008B4204D2581C7D2160601970EC
:104050006368C2EB0309A3684B44A3601846FFF7EB
:10406000F4BBA368C8E4A368FFF737BB4A680B68D2
:104070009A420ED2511C5B236160137094E80A00CF
:10408000994204D9581C5D21606019706368C2EBC5
:104090000308A3684344A3601846FFF7D6BB002378
:1040A000A2E70023BEE7224A224B4FF0060853E660
:1040B000B542A7D26A1C2D2362602B706568A36885
:1040C000266801229FE70246FFF7BBBB62682368B0
:1040D0009A4220D218491346081D02E081423FF45B
:1040E000AFAB5E1C11F8015B66601D7063682568EC
:1040F000AB42F3D3FFF7A4BB1046E0E40020DEE4BC
:104100000A46FFF79EBBD9462A4690E60022E1E424
:104110000027FFF78EBA0022FFF793BB0546002069
:10412000FFF7C0BB0022FFF78DBB35460E4625E5E5
:104130000024744940420F00386F01002DE9F04F10
:10414000ADF5004D95B00DF580435033A3F120043B
:10415000A149834603A80BF031FD0DF5004503A8E6
:104160000BF058FF5035237FA5600DF580460DF507
:104170008042E56030360DF58045503200205035E4
:1041800023F07F0362602074944935602246A5F1D4
:104190000C002377FEF704FF18B122465946FDF7BD
:1041A00045FC0DF58043503322468D49A3F10C00A8
:1041B000FEF7F6FEDBF8102030B1037A026023F040
:1041C0007F0343F00A030372CDF804B05F46002674
:1041D000237F13F07F0207D123F07F0343F02003F6
:1041E000DBB223776261A261980641F117806569AD
:1041F000DFF8F0810AE013B10EF076FC70B1B5F98A
:104200000A30002B01F0028005EB03157548002DE4
:1042100000F0FC87EB6843451946ECD1284622465E
:104220003146FDF75FFC22466F49FFF749F9224608
:104230006E49FFF745F97A6930B1037A026023F0DD
:104240007F0343F00A030372237F13F07F0207D139
:1042500023F07F0343F02003DBB223776261A26186
:10426000990640F1D0876569DFF878810AE013B1DB
:104270000EF03AFC70B1B5F90A30002B00F0BB87A4
:1042800005EB03155748002D00F0B587EB68434553
:104290001946ECD1284622463146FDF723FC22463A
:1042A0005149FFF70DF922465149FFF709F9BA695B
:1042B00030B1037A026023F07F0343F00A030372F4
:1042C000237F13F07F0207D123F07F0343F0200305
:1042D000DBB223776261A2619A0640F18987656942
:1042E000DFF800810AE013B10EF0FEFB70B1B5F902
:1042F0000A30002B00F0748705EB03153948002DB8
:1043000000F06E87EB6843451946ECD128462246FB
:104310003146FDF7E7FB22463349FFF7D1F8224645
:104320003449FFF7CDF8FA6930B1037A026023F01F
:104330007F0343F00A030372237F13F07F0207D148
:1043400023F07F0343F02003DBB223776261A26195
:104350009B0640F142876569DFF888800AE013B167
:104360000EF0C2FB70B1B5F90A30002B00F02D87BA
:1043700005EB03151B48002D00F02787EB6843452C
:104380001946ECD1284622463146FDF7ABFB2246C2
:104390001549FFF795F822461749FFF791F83A6A51
:1043A00030B1037A026023F07F0343F00A03037203
:1043B000237F13F07F0207D123F07F0343F0200314
:1043C000DBB223776261A2619D0640F1FB866569DD
:1043D000DFF810801DE000BF606F01006C6F01000E
:1043E000746F0100806F0100886F0100906F010001
:1043F000946F01009C6F0100A46F010013B10EF0D7
:1044000073FB70B1B5F90A30002B00F0D38605EBD1
:104410000315B148002D00F0CD86EB6843451946E1
:10442000ECD1284622463146FDF75CFB2246AB49DB
:10443000FFF746F82246AA49FFF742F8D7F8A4202A
:1044400030B1037A026023F07F0343F00A03037262
:10445000237F13F07F0207D123F07F0343F0200373
:10446000DBB223776261A261980640F1A08665699C
:10447000DFF864820AE013B10EF036FB70B1B5F9D3
:104480000A30002B00F08B8605EB03159248002DB7
:1044900000F08586EB6843451946ECD12846224654
:1044A0003146FDF71FFB22468C49FFF709F82246EB
:1044B0008C49FFF705F8D7F8A82030B1037A0260DD
:1044C00023F07F0343F00A030372237F13F07F027C
:1044D00007D123F07F0343F02003DBB2237762612F
:1044E000A261990640F158866569DFF8EC810AE01F
:1044F00013B10EF0F9FA70B1B5F90A30002B00F0E3
:10450000438605EB03157448002D00F03D86EB68EB
:1045100043451946ECD1284622463146FDF7E2FADA
:1045200022466E49FEF7CCFF22466F49FEF7C8FFD0
:10453000D7F8AC2030B1037A026023F07F0343F058
:104540000A030372237F13F07F0207D123F07F0356
:1045500043F02003DBB223776261A2619A0640F147
:1045600010866569DFF870810AE013B10EF0BCFABD
:1045700070B1B5F90A30002B00F0FB8505EB03158F
:104580005548002D00F0F585EB6843451946ECD100
:10459000284622463146FDF7A5FA22464F49FEF746
:1045A0008FFF22465149FEF78BFFD7F8B02030B17C
:1045B000037A026023F07F0343F00A030372237F30
:1045C00013F07F0207D123F07F0343F02003DBB217
:1045D00023776261A2619B0640F1C8856569DFF8B7
:1045E000F8800AE013B10EF07FFA70B1B5F90A3025
:1045F000002B00F0B38505EB03153748002D00F0C4
:10460000AD85EB6843451946ECD128462246314634
:10461000FDF768FA22463649FEF752FF2246304936
:10462000FEF74EFFD7F8342130B1037A026023F051
:104630007F0343F00A030372237F13F07F0207D145
:1046400023F07F0343F02003DBB223776261A26192
:104650009D0640F180856569DFF87C800AE013B132
:104660000EF042FA70B1B5F90A30002B00F06B85FC
:1046700005EB03151848002D00F06585EB684345F0
:104680001946ECD1284622463146FDF72BFA224640
:104690001749FEF715FF22461249FEF711FFD7F81A
:1046A000382130B1037A026023F07F0343F00A031C
:1046B0000372237F13F07F0207D123F07F0343F0BF
:1046C0002003DBB223776261A261980640F138854E
:1046D0006569DFF8048018E0806F0100AC6F0100AD
:1046E000906F0100946F01009C6F0100A46F0100A6
:1046F000B46F010013B10EF0F7F970B1B5F90A30DB
:10470000002B00F0158505EB0315A048002D00F0E7
:104710000F85EB6843451946ECD1284622463146C1
:10472000FDF7E0F922469A49FEF7CAFE224699496A
:10473000FEF7C6FED7F83C2130B1037A026023F0C1
:104740007F0343F00A030372237F13F07F0207D134
:1047500023F07F0343F02003DBB223776261A26181
:10476000990640F1E2846569DFF820820AE013B11E
:104770000EF0BAF970B1B5F90A30002B00F0CD8413
:1047800005EB03158148002D00F0C784EB68434515
:104790001946ECD1284622463146FDF7A3F92246B8
:1047A0007B49FEF78DFE22467B49FEF789FED7F84E
:1047B000402130B1037A026023F07F0343F00A0303
:1047C00003720136082E07F110077FF401AD0DF5D5
:1047D0008043503322467149A3F10C00FEF7E0FB01
:1047E00022466F49FEF76CFEDBF8C42130B1037A34
:1047F000026023F07F0343F00A030372DBF85833AF
:10480000002B74DD654ED8460027237F13F07F020E
:1048100007D123F07F0343F02003DBB223776261EB
:10482000A2619A0640F14E8465690AE013B10EF068
:104830005BF970B1B5F90A30002B00F03B8405EB51
:1048400003155648002D00F03584EB68B342194635
:10485000ECD1284622465349FEF732FE224639461D
:10486000FDF740F9054600283AD0D8F8C891B9F1CB
:10487000000F31D094E80A009942009320D299F8B1
:1048800000A00878504540F081864B1CBAF1000F1B
:1048900000F0F383CE4602E0002A00F0EE839C464F
:1048A0001EF8012F13F8010B8242F5D018B11CF845
:1048B000013F002BFBD1009B0CF101018B42E0D8A2
:1048C000D8F8D0A10099A2680AF101030B449A42DA
:1048D00080F0C483012323742B7A23F07F032B728F
:1048E000DBF858330137BB4208F110088DDCDBF8E8
:1048F000F034002B40F38680284ED8460027237FD3
:1049000013F07F0207D123F07F0343F02003DBB2D3
:1049100023776261A2619B0640F1CA8365690AE060
:1049200013B10EF0E1F870B1B5F90A30002B00F0C8
:10493000B78305EB03151948002D00F0B183EB6830
:10494000B3421946ECD1284622461749FEF7B8FD76
:1049500022463946FDF7C6F8054600284AD0D8F861
:104960006093B9F1000F41D094E80A009942009396
:1049700030D299F800A00878504540F004864B1CCE
:10498000BAF1000F00F06283CE4612E0806F0100A2
:10499000B46F01009C6F0100A46F0100BC6F0100A7
:1049A000C46F010050710100D06F0100002A00F0B7
:1049B0004D839C461EF8012F13F8010B8242F5D05F
:1049C00018B11CF8013F002BFBD1009B0CF1010139
:1049D0008B42D0D8D8F868A30099A2680AF10103E5
:1049E0000B449A4280F02383012323742B7A23F013
:1049F0007F032B72DBF8F0340137BB4208F110085B
:104A00003FF77DAFDBF88836002B74DD9D4ED8462E
:104A10000027237F13F07F0207D123F07F0343F0A9
:104A20002003DBB223776261A2619D0640F15F83C0
:104A300065690AE013B10EF057F870B1B5F90A30A4
:104A4000002B00F04C8305EB03158E48002D00F081
:104A50004683EB68B3421946ECD1284622468A4980
:104A6000FEF72EFD22463946FDF73CF805460028A4
:104A70003AD0D8F8F894B9F1000F31D094E80A0090
:104A80009942009320D299F800A00878504540F050
:104A900077854B1CBAF1000F00F0C182CE4602E0D0
:104AA000002A00F0BC829C461EF8012F13F8010B6F
:104AB0008242F5D018B11CF8013F002BFBD1009BBE
:104AC0000CF101018B42E0D8D8F800A50099A2684A
:104AD0000AF101030B449A4280F09282012323746D
:104AE0002B7A23F07F032B72DBF888360137BB4229
:104AF00008F110088DDCDBF82038002B74DD614EE6
:104B0000D8460027237F13F07F0207D123F07F03CD
:104B100043F02003DBB223776261A261980640F183
:104B2000FA8265690AE013B10DF0DEFF70B1B5F9E4
:104B30000A30002B00F0E78205EB03155148002DE9
:104B400000F0E182EB68B3421946ECD128462246D8
:104B50004E49FEF7B5FC22463946FCF7C3FF054631
:104B600000283AD0D8F89096B9F1000F31D094E8E7
:104B70000A009942009320D299F800A00878504585
:104B800040F0FB844B1CBAF1000F00F02982CE46A6
:104B900002E0002A00F024829C461EF8012F13F840
:104BA000010B8242F5D018B11CF8013F002BFBD15C
:104BB000009B0CF101018B42E0D8D8F898A600992F
:104BC000A2680AF101030B449A4280F0FA810123A2
:104BD00023742B7A23F07F032B72DBF82038013704
:104BE000BB4208F110088DDCDBF8B839002B7CDD06
:104BF000244ED8460027237F13F07F0207D123F0ED
:104C00007F0343F02003DBB223776261A261990640
:104C100040F1778265690AE013B10DF065FF70B16C
:104C2000B5F90A30002B00F0648205EB0315154836
:104C3000002D00F05E82EB68B3421946ECD12846A5
:104C400022461349FEF73CFC22463946FCF74AFF50
:104C50000546002842D0D8F82898B9F1000F39D07D
:104C600094E80A009942009328D299F800A00878A5
:104C7000504540F07F844B1CBAF1000F00F0998141
:104C8000CE460AE0BC6F0100D46F0100AC6F01009A
:104C9000B46F0100002A00F08C819C461EF8012FA1
:104CA00013F8010B8242F5D018B11CF8013F002B1C
:104CB000FBD1009B0CF101018B42D8D8D8F830A869
:104CC0000099A2680AF101030B449A4280F06281C4
:104CD000012323742B7A23F07F032B72DBF8B8397E
:104CE0000137BB4208F1100885DCDBF8503B002B94
:104CF00074DDBF4ED8460027237F13F07F0207D113
:104D000023F07F0343F02003DBB223776261A261CB
:104D10009A0640F1E28165690AE013B10DF0E4FE04
:104D200070B1B5F90A30002B00F0CF8105EB031507
:104D3000AF48002D00F0C981EB68B3421946ECD1B1
:104D400028462246AB49FEF7BBFB22463946FCF714
:104D5000C9FE054600283AD0D8F8C099B9F1000F2D
:104D600031D094E80A009942009320D299F800A02B
:104D70000878504540F0FC834B1CBAF1000F00F05E
:104D80000181CE4602E0002A00F0FC809C461EF81D
:104D9000012F13F8010B8242F5D018B11CF8013F26
:104DA000002BFBD1009B0CF101018B42E0D8D8F81D
:104DB000C8A90099A2680AF101030B449A4280F045
:104DC000D280012323742B7A23F07F032B72DBF82C
:104DD000503B0137BB4208F110088DDCDBF8E83CA2
:104DE000002B7ADD824E019D0027237F13F07F0286
:104DF00007D123F07F0343F02003DBB22377626106
:104E0000A2619B0640F14A81D4F814802B464546A6
:104E100098460AE013B10DF067FE70B1B5F90A309B
:104E2000002B00F0328105EB03157148002D00F0D6
:104E30002C81EB68B3421946ECD14346A846404664
:104E40001D4622466C49FEF73BFB22463946FCF7DD
:104E500049FE8046002839D0D5F8C099B9F1000F35
:104E60002ED094E80A00994200931ED299F800A02F
:104E70000878504540F07A834B1CBAF1000F67D098
:104E8000CE4601E0002A63D09C461EF8012F13F89D
:104E9000010B8242F6D018B11CF8013F002BFBD168
:104EA000009B0CF101018B42E2D8D5F8C8A900990A
:104EB000A2680AF101030B449A423BD201232374F6
:104EC00098F8083023F07F0388F80830DBF8E83CD6
:104ED0000137BB4205F1100587DC0DF580430CADB1
:104EE0005033A3F10C00002605F5804307A9079372
:104EF000089509968DF82C60FEF730FBB0F5804FD1
:104F0000044604D22E5410B93C4809F099FD059B83
:104F1000049AE118914202D9934206D2D41A039816
:104F20002246184429460AF07DF80DF5004D15B0CB
:104F3000BDE8F08F6360009B002BC1D04946184646
:104F40009946524606F0CCFF002309F80A3049463C
:104F500098F80830C8F8001023F07F0343F00503E9
:104F600088F80830B2E76360009B002B3FF42BAF5A
:104F7000494618469946524606F0B2FF002309F802
:104F80000A3049462B7A296023F07F0343F005035A
:104F90002B721CE76360009B002B3FF49BAE4946DD
:104FA00018469946524606F09BFF002309F80A303E
:104FB00049462B7A296023F07F0343F005032B72C7
:104FC0008CE66360009B002B3FF403AE4946184615
:104FD0009946524606F084FF002309F80A304946F4
:104FE0002B7A296023F07F0343F005032B72F4E54D
:104FF000BC6F0100D86F0100E86F0100F86F01007D
:105000006360009B002B3FF46BAD49461846994600
:10501000524606F065FF002309F80A3049462B7A0C
:10502000296023F07F0343F005032B725CE5636086
:10503000009B002B3FF4DAAC49461846994652468D
:1050400006F04EFF002309F80A3049462B7A296002
:1050500023F07F0343F005032B72CBE46360009BD6
:10506000002B3FF439AC494618469946524606F0A3
:1050700037FF002309F80A3049462B7A296023F0CC
:105080007F0343F005032B722AE46268A3681032A1
:105090009342454680F07D82012323740020D0E6B0
:1050A0006268A3681032934280F02B81012323743D
:1050B000002049E46268A3681032934280F0B18016
:1050C000012323740020FFF7C5BB6268A368103278
:1050D000934280F0BD8001232374002031E6626892
:1050E000A3681032934280F0F580012323740020DE
:1050F000B4E46268A3681032934280F0D580012343
:10510000237400209CE56268A3681032934280F00B
:10511000B58001232374002019E56268A36810326A
:10512000934280F0F581012323740020FFF733BB05
:105130006268A3681032934280F0D2810123237405
:105140000020FFF7EBBA6268A3681032934280F048
:10515000AF81012323740020FFF795BA6268A3682A
:105160001032934280F08C81012323740020FFF7DA
:105170004DBA6268A3681032934280F069810123BE
:1051800023740020FFF705BA6268A36810329342C7
:1051900080F04681012323740020FFF7BDB96268C7
:1051A000A3681032934280F02381012323740020EE
:1051B000FFF775B96268A3681032934280F0D0801F
:1051C000012323740020FFF72DB96268A368103211
:1051D000934280F0AD80012323740020FFF7D3B801
:1051E0006268A3681032934280F0D2800123237456
:1051F0000020FFF78CB86268A3681032934280F0F9
:105200009E81012323740020FFF745B86268A368DC
:105210001032934280F0D480012323740020FEF7E3
:10522000FEBFA3F11000A06000283FF44BAFA269BD
:10523000002A00F0C281811A09115181A061002267
:1052400043F8046C23F8062C03F8082CFFF702BB84
:10525000A3F11000A06000283FF43FAFA269002A2C
:1052600000F0BD81811A09115181A061002243F82B
:10527000046C23F8062C03F8082C62E5A3F1100057
:10528000A06000283FF447AFA269002A00F0A48183
:10529000811A09115181A061002243F8046C23F89E
:1052A000062C03F8082C52E4A3F11000A06000289B
:1052B0003FF427AFA269002A00F08B81811A0911FF
:1052C0005181A061002243F8046C23F8062C03F8F6
:1052D000082CB5E4A3F11000A06000283FF407AF4C
:1052E000A269002A00F07281811A09115181A0611E
:1052F000002243F8046C23F8062C03F8082CFFF76F
:10530000ADBBA3F11000A06000283FF4D1AEA269AC
:10531000002A00F05881811A09115181A0610022F0
:1053200043F8046C23F8062C03F8082CFFF70CBB99
:10533000A3F11000A06000283FF44FAFA269002A3B
:1053400000F05381811A09115181A0610022B449F2
:1053500023F8062C03F8082C43F8041CFFF713B8B5
:10536000A3F11000A06000283FF42CAFA269002A2E
:1053700000F04181811A09115181A0610022A849E0
:1053800023F8062C03F8082C43F8041CFFF74AB84E
:10539000A3F11000A06000283FF42AAFA269002A00
:1053A00000F02681811A09115181A06100229C49D7
:1053B00023F8062C03F8082C43F8041CFEF7A7BFBB
:1053C000A3F11000A06000283FF428AFA269002AD2
:1053D00000F02B81811A09115181A06100229049AE
:1053E00023F8062C03F8082C43F8041CFEF717BF1B
:1053F000A3F11000A06000283FF4D9AEA269002AF2
:1054000000F01081811A09115181A06100228449A4
:1054100023F8062C03F8082C43F8041CFFF73FB8C8
:10542000A3F11000A06000283FF4B6AEA269002AE4
:1054300000F0F380811A09115181A061002278499E
:1054400023F8062C03F8082C43F8041CFFF764B873
:10545000A3F11000A06000283FF493AEA269002AD7
:1054600000F0D880811A09115181A06100226C4995
:1054700023F8062C03F8082C43F8041CFFF789B81E
:10548000A3F11000A06000283FF470AEA269002ACA
:1054900000F0BD80811A09115181A061002260498C
:1054A00023F8062C03F8082C43F8041CFFF7AEB8C9
:1054B000A3F11000A06000283FF44DAEA269002ABD
:1054C00000F0A280811A09115181A0610022544983
:1054D00023F8062C03F8082C43F8041CFFF7D3B874
:1054E000A3F11000A06000283FF42AAEA269002AB0
:1054F00000F08780811A09115181A061002248497A
:1055000023F8062C03F8082C43F8041CFFF706B90F
:10551000A3F11000A06000283FF407AEA269002AA2
:105520006CD0811A09115181A06100223C4923F8F5
:10553000062C03F8082C43F8041CFFF72CB9A3F140
:105540001000A06000283FF45EAEA269002A49D096
:10555000811A09115181A0610022314923F8062CDA
:1055600003F8082C43F8041CFEF795BE8C4692E421
:105570008C4612E48C46FFF797BB8C46FFF713BBB3
:105580008C46FFF797BA8C46FFF71ABA8C46FFF79E
:105590008DB9A3F11000A06000283FF47FADA2698F
:1055A00072B1811A09115181A061002243F8046C83
:1055B00023F8062C03F8082C43E46061A0613EE662
:1055C0006061A061F1E76061A061A8E66061A0612F
:1055D0008EE66061A06175E66061A0615CE6606175
:1055E000A06143E66061A061B6E76061A061ADE6DD
:1055F0006061A061DAE66061A061BFE66061A06100
:1056000093E76061A06179E76061A0615EE7606136
:10561000A06143E76061A06128E76061A0610DE7D8
:10562000806F01006061A061F0E66061A061D5E675
:1056300010B590B004460AF081F820B9104809F07E
:10564000FFF910B010BD0F480AF060FB40B90AF036
:1056500049FA4FF6FF7102460A480AF073FB20B17F
:105660002046FEF76BFD10B010BD6846054B064A9C
:1056700040210DF07FF9684609F0E2F9E1E700BF4B
:1056800034700100606F01006C700100062905DCB8
:105690000029D8BF00210161FFF7CABF07210161BE
:1056A000FFF7C6BF2DE9F04F037A03F07F03023BFB
:1056B00089B004460D463E2B00F26682DFE813F007
:1056C0008E008E00B400B4003B0264020601640246
:1056D0003A0164026C0164026402640264026402BE
:1056E000640264026402640264026402640264028A
:1056F0006402640264026402640264029F01640240
:105700006402640264026402640264026402640269
:105710006402640264026402640264026402640259
:105720006402640264026402640264026402640249
:105730006402640264026402640264023F004B6A11
:1057400019445A1C02335B201F2B6A62087107D967
:105750002A44002616712868291D06F083F96E6216
:10576000AB6A24680133AB620CB32C26002705F129
:10577000040814E014EB031419D06B6AE9185A1CDE
:1057800002331F2B6A620E7106D92A4441461771F3
:10579000286806F067F96F62AB6A0133AB6229468D
:1057A0002046FFF77FFFB4F90A30002BE2D16B6A85
:1057B000E9185A1C02335D201F2B6A62087107D951
:1057C0002A44002414712868291D06F04BF96C62E4
:1057D000A86A0130A86209B0BDE8F08F90E85000D7
:1057E000E6B104EB06084FF000090F1D01E0444547
:1057F00014D06B6A14F8010BE9185A1C02331F2BE2
:105800006A620871F3D92A44394682F804902868FC
:1058100006F028F94445C5F82490EAD1A86A304436
:10582000A86209B0BDE8F08F4B6A0668CA18591C17
:10583000023322201F2B6962107108D929440024E9
:105840000C712868291D06F00DF96C622146AB6ABF
:10585000013306F1FF39AB625C274FF0000819F8FD
:10586000016F1EB3222E00F0DD81C24B03E0DA7817
:10587000B24200F0D8811C790233002CF7D16A18AB
:105880004B1C02311F296B62167107D92B44291D4D
:105890001C71286806F0E6F86C622346AA6A013299
:1058A000AA6219F8016F1946002EDBD16A184B1C49
:1058B000023122201F296B62107189D92B44291DC6
:1058C0001E71286806F0CEF86E6281E70368AA4868
:1058D0000DF11E06B046A0FB0312D20802EB8201B6
:1058E000A3EB4103303308F8013D1346002AF2D1FF
:1058F000B6EB080718D0144605F1040901E0B045DD
:1059000012D06B6A18F8010BE9185A1C02331F2BCE
:105910006A620871F3D92A4449461471286806F06E
:10592000A1F8B0456C62ECD1A86A3844A86209B00D
:10593000BDE8F08F0468002CA8BF2346C0F29C830A
:105940000DF11E068C48B046A0FB0312D20802EBF4
:105950008201A3EB4103303308F8013D1346002ACE
:10596000F2D1B6EB0807DFD0144605F1040901E0D7
:10597000B045D9D06B6A18F8010BE9185A1C0233EC
:105980001F2B6A620871F3D92A44494614712868AA
:1059900006F068F86C62EBE70668314630460CF0BA
:1059A00079F9002840F0768326F0004420467349B8
:1059B0000CF070F9002840F0858120466F490CF00A
:1059C0004BF9002840F07E816D4C0646271D05F1FD
:1059D000040802E0BC4200F0F4806B6A14F8010B8A
:1059E000E9185A1C02331F2B6A620871F2D92A4443
:1059F00041461671286806F035F86E62EAE7496A92
:105A000068188A1C4B1C7B261F2A6B62067100F2E9
:105A10006A82A86AD4F8008001300331A862B8F124
:105A2000000F00F03E814FF022090026EA18591CB1
:105A300002331F2BD8F80C40696282F8049007D912
:105A40006B18291D1E71286806F00CF86E62002183
:105A5000AB6A013304F1FF3BAB625C271BF801AF7B
:105A6000BAF1000F26D0BAF1220F00F0B080414BFE
:105A700003E0DA78524500F0AB801C790233002C49
:105A8000F7D16A184B1C02311F296B6282F804A0FF
:105A900007D92B44291D1C71286805F0E3FF6C62AF
:105AA0002346AA6A0132AA621BF801AF1946BAF16D
:105AB000000FD8D16B18881C4A1C1F286A6283F813
:105AC000049000F2CE80AB6A68622A44033101334D
:105AD0003A241F29AB62147109D92B18291D83F8A8
