:1000000000800020BD010000F5C30000ADC300006A
:10001000ADC30000ADC30000ADC30000ADC3000020
:10002000ADC30000ADC30000ADC30000F5C30000C8
:10003000F5C30000ADC30000FDDA000001DB0000E5
:10004000F5C30000F5C30000F5C30000F5C30000D0
:10005000F5C30000F5C30000F5C30000F5C30000C0
:10006000F5C30000F5C30000F5C30000F5C30000B0
:10007000F5C30000F5C30000F5C30000F5C30000A0
:10008000F5C30000F5C30000F5C30000F5C3000090
:10009000F5C30000F5C30000F5C30000F5C3000080
:1000A0002D01010039010100F5C30000F5C3000076
:1000B000F5C30000F5C30000F5C30000F5C3000060
:1000C000F5C30000F5C30000F5C30000F5C3000050
:1000D000F5C30000F5C30000F5C30000F5C3000040
:1000E000F5C30000F5C30000F5C30000F5C3000030
:1000F000F5C30000F5C30000F5C30000F5C3000020
:10010000F5C30000F5C30000F5C30000F5C300000F
:10011000F5C30000F5C30000F5C30000F5C30000FF
:10012000F5C30000F5C30000F5C30000F5C30000EF
:10013000F5C30000F5C30000F5C30000F5C30000DF
:10014000F5C30000F5C30000F5C30000F5C30000CF
:10015000F5C30000F5C30000F5C30000F5C30000BF
:10016000F5C3000085CC0000F5C30000F5C3000016
:10017000F5C30000F5C30000F5C30000F5C300009F
:10018000F5C30000F5C30000F5C30000F5C300008F
:10019000F5C30000F5C30000F5C30000F5C300007F
:1001A000F5C30000F5C30000F5C30000F5C300006F
:1001B000F5C30000F5C300000DB80000564B4CF22B
:1001C000205210B51A804DF628121A8000BF00BFC9
:1001D0000CF014F9514B4FF010621A60504A9A60BB
:1001E000504ADA60504A136813F4807304D14F49BF
:1001F0000B604FF4A85313604D4B1A78110703D5C9
:100200001A7842F008021A704A4B4B492A221A7097
:100210004A4A4B4B8B4204D252F8040F43F8040B6A
:10022000F8E7484B484900228B4202D243F8042B9E
:10023000FAE74649464A002352F8230041F82300D2
:1002400001336F2BF8D1434B434A802103F8011B44
:100250009342FBD1414B3D4A1A60414B8A221A70AE
:10026000A3F5805324225A70A0221A709A7992071B
:10027000FCD59A79D406FCD43A4A937903F00C035E
:10028000082B384BF9D105221A7143225A719A79F9
:100290009006FCD5334A9179324B4906FBD5324A58
:1002A0004FF0817111600521516020221A709A79F6
:1002B00002F00C020C2AFAD12C4B2D4A1A602D4B5D
:1002C0002D4A1A6000225A60072243F8042C2B4A58
:1002D000C3F80C2D62B60CF0ABFB144B1B68DA07AD
:1002E00005D527480CF004FA264B274A1A60274BFD
:1002F0001B785B0609D5234C234B22689A4204D114
:100300001F480CF0F5F9002323600CF07DF811F084
:1003100039FF0BF06FFFFEE70E20054030800440F0
:10032000823F04000100002B10D0034014D0034092
:1003300002D0074000E0074060A8FF1F04810100D1
:10034000209BFF1F60A8FF1F88BBFF1F0096FF1F99
:100350000000000000E400E05FE400E008ED00E0E1
:1003600000500640004006404480044004800440A1
:10037000C010050014E000E03F190100000020203B
:100380006187DD611CE00340A5C3945A00F007407B
:10039000FFFFFFFFFFFFFFFFFFFFFFFFFFFFFFFF6D
:1003A000FFFFFFFFFFFFFFFFFFFFFFFFFFFFFFFF5D
:1003B000FFFFFFFFFFFFFFFFFFFFFFFFFFFFFFFF4D
:1003C000FFFFFFFFFFFFFFFFFFFFFFFFFFFFFFFF3D
:1003D000FFFFFFFFFFFFFFFFFFFFFFFFFFFFFFFF2D
:1003E000FFFFFFFFFFFFFFFFFFFFFFFFFFFFFFFF1D
:1003F000FFFFFFFFFFFFFFFFFFFFFFFFFFFFFFFF0D
:10040000FFFFFFFFFFFFFFFFFFFFFFFFDEF9FFFF23
:1004100010B5054C237833B9044B13B10448AFF33E
:1004200000800123237010BD60A8FF1F00000000A2
:1004300000810100084B10B51BB108490848AFF313
:1004400000800848036803B910BD074B002BFBD0A0
:10045000BDE81040184700BF0000000064A8FF1F5F
:100460000081010060A8FF1F0000000010B50446D5
:1004700024300BF055FB04F114000BF051FB201D50
:100480000BF04EFB204610BD10B5064B0360044632
:1004900000F5DE700BF044FB04F5D6700BF040FB6A
:1004A000204610BDF875010070B500F65C360546B3
:1004B0004EB100F6EC44A64205D0103C20460BF0AD
:1004C0002FFBA642F9D105F6C41605F65434A64210
:1004D00005D0103C20460BF023FBA642F9D105F6CF
:1004E0002C0605F6BC14A64205D0103C20460BF0A5
:1004F00017FBA642F9D105F2946605F62404A6423C
:1005000005D0103C20460BF00BFBA642F9D105F2BA
:10051000FC4605F28C64A64205D0103C20460BF048
:10052000FFFAA642F9D105F5597605F2F444A64240
:1005300005D0103C20460BF0F3FAA642F9D105F5A0
:10054000E67605F55774A64205D0103C20460BF020
:10055000E7FAA642F9D1281D0BF0E2FA284670BD51
:10056000022101480AF038BED8ABFF1F01480AF04B
:100570007FBF00BF30A9FF1F70B5254C254D264E0B
:10058000204609F0BDFE014628460AF051FF2046EC
:1005900009F0B8FE014628460AF04EFF204609F051
:1005A000B3FE014628460AF04BFF204609F0AEFE96
:1005B000014628460AF048FF204609F0A9FE0146F8
:1005C00028460AF045FF204609F0A4FE01462846C9
:1005D0000AF042FF204609F09FFE014628460AF035
:1005E0003FFF204609F0ACFE014628460AF03CFFDA
:1005F000204609F091FE0146304607F0BDFF204637
:1006000009F09EFE01463046BDE8704007F0B8BFD5
:100610007CA8FF1F30A9FF1FE0A9FF1F01B1704791
:100620004FF07E5201487D2107F0EEBCE0A9FF1F8C
:1006300008B50421044807F0B1FF05210348BDE8CF
:1006400008400AF0C9BD00BFE0A9FF1FD8ABFF1FDB
:1006500008B50321044807F0A1FF04210348BDE8C1
:1006600008400AF0B9BD00BFE0A9FF1FD8ABFF1FCB
:1006700008B50521044807F091FF06210348BDE8AD
:1006800008400AF0A9BD00BFE0A9FF1FD8ABFF1FBB
:1006900008B50D4807F088FF88B901210A4807F01E
:1006A0007DFF094807F070FF18B10121074809F0E4
:1006B00067FE03210648BDE808400AF08DBD02210F
:1006C000014807F06BFFECE7E0A9FF1F7CA8FF1FC4
:1006D000D8ABFF1F08B50C4807F066FF012803D010
:1006E0000521094807F05AFF062108480AF074FD61
:1006F000054807F049FF00B908BD00210448BDE8DE
:10070000084009F03DBE00BFE0A9FF1FD8ABFF1FA6
:100710007CA8FF1F00B585B0314968460BF040FA50
:100720006946304807F07AFF68460BF0F9F92E4920
:100730002E4807F0B7FB2E480AF070FE2A4806F054
:10074000F5FF2949274807F049FF274929480AF0BA
:100750007FFA294809F0E4FC00222849264809F0DC
:10076000FDFD0022214922480AF0E2FE0022244930
:100770001F480AF083FE002222491D480AF090FE1D
:10078000002221491A480AF09DFE00221F491848FC
:100790000AF0E0FE00221E4915480AF0A5FE0022DC
:1007A0001C4913480AF0B2FE00221B4911480AF006
:1007B00001FD114809F0D0FD21280CDDFF200322A6
:1007C00016490BF0D5FE164A0848642107F01CFCB8
:1007D00005B05DF804FB084809F0BEFDC0B2EEE7C5
:1007E0001C6E0100F8A8FF1FB0ACFF1FE0A9FF1F9F
:1007F00030A9FF1FD8ABFF1F7CA8FF1F79050000A1
:10080000610500009106000031060000510600005D
:10081000D5060000710600001D0600006D050000F1
:10082000CDCCCC3D08B500210F4800F053FB002192
:100830000E4800F04FFB00210D4800F04BFB00215B
:100840000C4800F047FB0C4809F030FC0A4808F05F
:100850001DF900B908BD094804F08AFB00210648CB
:10086000BDE8084008F014B97CA8FF1F30A9FF1F9D
:10087000E0A9FF1FD8ABFF1FF8A8FF1FB0ACFF1FF8
:100880002DE9F8430021994C99489A4E9A4F0BF064
:1008900087F99A4A9A4996480DF00CFA2C220021C1
:1008A000204612F017F8974B32682360FF2100238F
:1008B000012061726175A1752072276384F8393057
:1008C000236484F83830E36311460AB9CFE119464E
:1008D0004B69002BFBD18C4B4B61134600228B489C
:1008E00067654FF480416264A286E28684F83A200C
:1008F00084F85D20626684F85C20226620632165AE
:1009000000E02B465D69002DFBD1DFF81C92DFF87B
:100910001C82C3F814904846A566A4F85850A4F861
:100920005A5084F85E50E56625676567A4F87850EC
:10093000C4F8548007F012FA3268C4F8887084F85A
:100940009150C4F8985084F89050C4F89450694974
:100950000AB990E11A465369002BFBD16C4B5361E5
:1009600000256B48C4F88880C4F89C50A4F88C50CB
:10097000A4F88E5084F89250C4F8A050C4F8A45043
:10098000C4F8A850A4F8AC5007F0E8F9326884F82D
:10099000C550C4F8CC5084F8C450C4F8C850C4F84A
:1009A000BC70544B0AB96AE11A465369002BFBD15B
:1009B000584B536100255748C4F8BC80C4F8D05048
:1009C000A4F8C050A4F8C25084F8C650C4F8D4505B
:1009D000C4F8D850C4F8DC50A4F8E05007F0BEF9D1
:1009E000326884F8F950C4F8005184F8F850C4F81B
:1009F000FC50C4F8F0703F4B0AB943E11A46536902
:100A0000002BFBD1444B536100254348C4F8F080D0
:100A1000C4F80451A4F8F450A4F8F65084F8FA503D
:100A2000C4F80851C4F80C51C4F81051A4F814517A
:100A300007F094F93948C4F834014FF0040E024627
:100A400084F82C512B46C4F83051C4F8247129463F
:100A5000A0F5A67084F82DE101E0D0F8342142F829
:100A6000231094F82D2101339A42F6DC3268214B91
:100A70000AB90AE11A465369002BFBD1284B53618E
:100A80002848DFF8ACE0C4F85C7100214FF48035F1
:100A900001270246C4F86C010B46A0F5BA70C4F8F1
:100AA0003811A4F82811A4F82A1184F82E1184F81A
:100AB0006411C4F86811C4F824E1C4F83C51C4F8C6
:100AC0004051C4F84451C4F8485184F8657101E0BC
:100AD000D0F86C2142F8231094F8652101339A4232
:100AE000F6DC3268034B32BBD2E000BFE0A9FF1F47
:100AF000A4B9FF1FD0B9FF1F186E0100FC9BFF1F98
:100B000021BB0000F875010010AAFF1F60730100EF
:100B100068AAFF1F9CAAFF1FD0AAFF1F2CABFF1FB4
:100B200004ABFF1F54ABFF1F34AAFF1F5473010017
:100B30003C7301001A465369002BFBD1564B53619D
:100B40000025564BC4F85C31C4F87051A4F86051CC
:100B5000A4F8625184F866514F48514FDFF8848100
:100B600006F0E6FF2946C4F89051C4F89451C4F841
:100B70009851A4F89C514B48C4F87851C4F87C5162
:100B8000C4F88051C4F88451C4F88851C4F88C5119
:100B90000BF006F8294644480BF002F84FF0010923
:100BA0000023424A42494348C4F8CC31C4F8D0310A
:100BB000C4F8D431C4F8D831C4F8DC31C4F8E03119
:100BC000C4F8E431C4F8E831C4F8EC31C4F8F031C9
:100BD00084F8F4910DF06EF8294638462C2211F075
:100BE00079FE3846FF26344B344C40F8383B2946D2
:100BF0006B2287F808907E727E75BE7509F0C8FB7F
:100C0000294640462C2287F85C5011F063FE2946A5
:100C10002B4B88F80890204688F8096088F8156002
:100C200088F816602C22C8F8003011F053FE082313
:100C3000244A84F8089066726675A6752248C4F83E
:100C40008830C4F88C302260C4F8D45007F0AEFC71
:100C5000164A1E491C480DF02DF81D4800F002FBF5
:100C6000124A1C491A48BDE8F8430DF023B804F1B4
:100C70003003336032E609F134030B6070E6164A44
:100C80001A6097E6154A1A60BEE6154A1A60F7E63A
:100C9000014A1A6054E700BF3CABFF1F48730100D4
:100CA0007CA8FF1F8CABFF1F9CABFF1FFC9BFF1F93
:100CB00089040000E0A9FF1F187A0100D8ABFF1FCC
:100CC000447B01002C7B0100F8A8FF1F6D0400008D
:100CD000B0ACFF1FA90400009CAAFF1FD0AAFF1FF1
:100CE00004ABFF1F30A9FF1F90F91500704700BF2C
:100CF000002330B44A1E1D4600E0013312F8014FB4
:100D0000002CFAD101358542F7D1581C084430BC7B
:100D1000704700BF10B5037A016123F0010304326C
:100D200004460277037201460022054800F044FAA7
:100D3000FF230022227563756372204610BD00BF39
:100D4000B4B9FF1F2DE9F04F85B09A46BAF1FF3FC5
:100D50000F9B0E9F03930C461546DDF84080DDF88F
:100D6000449028D0012F18DD039BB3B105EB450556
:100D7000002604EB85043546204600950136002305
:100D80004A46414600F006FAB74204F10C04F3D19A
:100D900005B0BDE8F08F4FF0000A554405EB450063
:100DA000002304EB80004A4641460E9305B0BDE89F
:100DB000F04F00F0EFB9002FEDDD02EB420300260B
:100DC00001EB830BB246584600F0F2F9002808BF49
:100DD000B2460136B7420BF10C0BF4D1C2E700BFAB
:100DE0002DE9F04F85B09A46BAF1FF3F0F9B0E9F59
:100DF00003930C461546DDF84080DDF8449028D07A
:100E0000012F18DD039BB3B105EB4505002604EB6C
:100E10008504354620460095013600234A46414662
:100E200000F0AAF9B74204F10C04F3D105B0BDE813
:100E3000F08F4FF0000A554405EB4500002304EB0A
:100E400080004A4641460E9305B0BDE8F04F00F0E1
:100E500093B9002FEDDD02EB4203002601EB830B7B
:100E6000B246584600F0A4F9002808BFB246013641
:100E7000B7420BF10C0BF4D1C2E700BF2DE9F041F2
:100E800012F08004069FDDF81C8017D022F0800449
:100E90009C4211DA04EB44051E4601EBC5052846C9
:100EA000013400234246394600F048F9A64205F1D4
:100EB0000C05F4D1BDE8F081BDE8F0811A4402EBE5
:100EC000420001EB8000234642463946BDE8F0412E
:100ED00000F034B92DE9F04F7C4E8BB033680693A7
:100EE000DDF8188004460F46237A9D074FD1A26A89
:100EF00094F9141043F00203013201312372A2620B
:100F000050D194F91510227F2069012311FB02337F
:100F1000034493F900104B1C04D023682046DB687F
:100F20009847227F032A40F3B9804FF0030E75469D
:100F30000AE094F9093099451DD0227F01356DB240
:100F40009542AE4680F2AA80216994F9153002FBE1
:100F50000313AEF1030913F905A0BAF1FF3F4946A7
:100F6000204602F1FF33E9D0734504D023689B6823
:100F700098470028DDD0237A84F814A0033DFF228F
:100F8000A57503F0FE03627223F002032372336837
:100F90000993099BC8EB0303BB42A5D320460BB0C2
:100FA000BDE8F08F23686FF00201DB6820469847A8
:100FB000256A002D3ED094F91530D4F82490581CA1
:100FC0007ED0207FD4F818A00344981E411C79D00D
:100FD00000286ED05146FFF78BFE834694F914101B
:100FE0004A1C6BD0207F0144881E431C66D0002819
:100FF00058D05146FFF77CFE034694F91600411C79
:1010000055D00130421C52D0002849D0514605939A
:10101000FFF76EFE059B326807926168079A0190A0
:10102000511AA26A0392009302915B4652464846C7
:101030002146A84794F91530002B09DB257F21694B
:101040002268022013FB0503D268C9562046904748
:10105000326894F914000892237F089D2268656025
:1010600010FB03F321696075FF252575C956D36808
:101070002046984794F91530227F2069012113FBFF
:1010800002114318415CFE29217A0CBF41F0010195
:1010900021F0010121720021A1623AE7237A73E76E
:1010A0005046B8E794F91600411C5346A9D10848A8
:1010B000B1E794F914104A1CD34693D1044B9CE732
:1010C000D4F818A0DFF808B088E700BF0CBAFF1FFB
:1010D000246E010070B504460E46082501E05A1C36
:1010E00027D1237A23F00103237200212046FFF742
:1010F000F1FE94F91520237F216912FB03630B4451
:10110000013D93F90330EAD1002B10DB237A66729C
:1011100023F00103237200212046FFF7DBFE237A30
:1011200023F00103237200212046FFF7D3FE20465F
:1011300070BD94F909200132D3D1E5E710B50478E8
:1011400004F00704012C0CD0032C08D1436833B100
:101150001A688168526818469047012010BD012026
:1011600010BD3BB943681BB180689847204610BD4D
:10117000204610BD002010BD10B49DF90440416010
:10118000640144F0010444EAC3038260037010BCAC
:10119000704700BF10B49DF904404160640144F001
:1011A000030444EAC3038260037010BC704700BFAD
:1011B000007800F0070070470B7A5B0700D532B16A
:1011C0000368CB6001600B7A43F004030B72704735
:1011D000002843D0F0B5037A13F07F042BD123F01D
:1011E0007F0343F04003037204604460013137D051
:1011F00000274FF0010E04E082F810E000230139CF
:1012000017D05368946810339C42A4F11003F3D3B1
:101210009360002BF3D045685E1B3611DDB16E8103
:101220004360013924F8067C04F8087C44F8047C07
:10123000E7D11846F0BD5B0612D50368002BD5D068
:101240000029F6D0B3F90A400139002CCED013EBB7
:101250000413F5D1CAE703604360E2E7002070475A
:101260000020F0BD10B50021044604300AF098FCBF
:1012700004F5E67006F08AFA04F5597006F086FA6D
:1012800004F2FC4006F082FA04F2946006F07EFA62
:1012900004F62C0006F07AFA04F6C41006F076FA8A
:1012A00004F65C3006F072FA204610BD70B50546B3
:1012B0000126002488B0C0F85C63C0F8C8413349F7
:1012C00000F5E6700AF00CFDC5F8F464304905F548
:1012D00059700AF005FDC5F88C6605F2FC402D49F1
:1012E0000AF0FEFC0A23C5F8243805F2946601349E
:1012F000294904A80AF054FC0A22214668460AF04B
:1013000081FC694604A80AF05DFD24490AF062FDEB
:10131000014630460AF0D4FC68460AF001FC04A8F5
:101320000AF0FEFBD5F82438A34206F11006DEDCF5
:101330000A23C5F8BC3905F62C06002401341849E7
:1013400004A80AF02DFC0A22214668460AF05AFC3D
:10135000694604A80AF036FD10490AF03BFD014633
:1013600030460AF0ADFC68460AF0DAFB04A80AF041
:10137000D7FBD5F8BC39A34206F11006DEDC00230A
:10138000C5F8543BC5F8EC3C08B070BDF46F0100E3
:101390000470010014700100207001000C70010045
:1013A000287001002DE9F8430446BE4904300AF0D4
:1013B00097FC2368012B00F0BB80BB4E96E80F0022
:1013C00000274FF0FF0806F1100504F1280EC4F8BD
:1013D0001880E761276267628EE80F0095E80F00CA
:1013E00004F1380E06F120058EE80F0095E80F0095
:1013F000A6F1A00E04F15805A764C4F84C80276537
:10140000676585E80F009EE80F0006F1300504F1DE
:10141000680C8CE80F0095E80F0004F1880CA6F129
:10142000B005C4F88080A767E767C4F884708CE8CB
:101430000F0095E80F0004F1A80CC4F89870C4F8E8
:101440009C70C4F8A070C4F8A4708CE80F0004F17C
:10145000B80C8CE80F0004F1C80C8CE80F0004F104
:10146000D80C8CE80F009EE80F0004F1E80E8EE81F
:101470000F0095E80F0004F1F80E8EE80F0004F558
:10148000847E8EE80F0006F1400504F58C7E8EE820
:101490000F0095E80F0004F59C7E06F15005C4F896
:1014A0002871C4F82C71C4F83071C4F834718EE816
:1014B0000F0095E80F0004F5A47E06F160058EE8A4
:1014C0000F0095E80F0004F5AC7E06F170058EE87C
:1014D0000F0095E80F0004F5B47E06F180058EE854
:1014E0000F0095E80F0004F5BC7EA6F130058EE8EC
:1014F0000F0095E80F0004F5C47E06F190058EE814
:101500000F0095E80F00A03604F5CC7585E80F00B4
:1015100096E80F0004F5D47585E80F00C4F8B8719B
:10152000C4F8BC71C4F8C071C4F8C471BDE8F883D4
:101530005E4F97E80F0000264FF0FF0907F11005F6
:1015400004F1280EC4F81890E661266266628EE8FF
:101550000F0095E80F0004F1380E07F120058EE822
:101560000F0095E80F0007F1300E04F1580CA66447
:10157000C4F84C90266566658CE80F009EE80F0065
:1015800007F1400C04F1680888E80F009CE80F00A0
:1015900004F1880CC4F88090A667E667C4F88460FC
:1015A0008CE80F0095E80F0004F1A80CC4F89860CF
:1015B000C4F89C60C4F8A060C4F8A4608CE80F0074
:1015C00004F1B80C8CE80F0004F1C80C8CE80F0093
:1015D00004F1D80C8CE80F009EE80F0004F1E80E2F
:1015E0008EE80F0095E80F0004F1F80E8EE80F006A
:1015F00004F5847E8EE80F0007F1500504F58C7E1B
:101600008EE80F0095E80F0004F59C7E07F1600559
:10161000C4F82861C4F82C61C4F83061C4F834619E
:101620008EE80F0095E80F0004F5A47E07F1700521
:101630008EE80F0095E80F0004F5AC7E07F18005F9
:101640008EE80F0095E80F0004F5B47E07F19005D1
:101650008EE80F0095E80F0004F5BC7E07F1A005A9
:101660008EE80F0095E80F0004F5C47E07F1B00581
:101670008EE80F0095E80F00C03704F5CC7585E8BB
:101680000F0097E80F0004F5D47585E80F00C4F843
:10169000B861C4F8BC61C4F8C061C4F8C461BDE8F5
:1016A000F88300BF30700100446F0100746E0100C8
:1016B00010B5052304464361FFF774FE2046BDE8DC
:1016C0001040FFF7F3BD00BF10B501F5E671044609
:1016D00006F080F8204610BD10B584B00446684678
:1016E0000AF072FA694604F5E67006F0AFF868464B
:1016F0000AF016FA04B010BD10B501F5E671044603
:1017000006F056F8204610BD10B501F55971044693
:1017100006F060F8204610BD10B584B00446684657
:101720000AF052FA694604F5597006F08FF86846D7
:101730000AF0F6F904B010BD10B501F55971044670
:1017400006F036F8204610BD10B501F2FC41044603
:1017500006F040F8204610BD10B584B00446684637
:101760000AF032FA694604F2FC4006F06FF8684667
:101770000AF0D6F904B010BD10B501F2FC410446E0
:1017800006F016F8204610BD10B501F62C010446EF
:1017900006F020F8204610BD10B584B00446684617
:1017A0000AF012FA694604F62C0006F04FF8684673
:1017B0000AF0B6F904B010BD10B501F62C010446CC
:1017C00005F0F6FF204610BD10B501F6C411044621
:1017D00006F000F8204610BD10B584B004466846F7
:1017E0000AF0F2F9694604F6C41006F02FF86846CC
:1017F0000AF096F904B010BD10B501F65C3104464C
:1018000005F0E8FF204610BD10B584B004466846D8
:101810000AF0DAF9694604F65C3006F017F8684613
:101820000AF07EF904B010BD10B501F6C4110446EB
:1018300005F0BEFF204610BD10B5D1F8583B01EBB6
:101840000311044601F65C310AF0BEF9204610BDD2
:10185000D0F8542BD0F8EC0C9042A8BF104670473B
:1018600010B501F29461044605F0B4FF204610BDA6
:1018700010B584B0044668460AF0A6F9694604F239
:10188000946005F0E3FF68460AF04AF904B010BD21
:1018900010B501F29461044605F08AFF204610BDA0
:1018A000F0B593B00C4617460DF0DCFB20B91C4890
:1018B0000CF02AFA13B0F0BD20460DF0BBFE20B3A9
:1018C000214602A80DF00EFE039E049CA64216D8E7
:1018D000F0E7A64207D9321B3546029801A92044F9
:1018E0000CF002FE2C469DF8040027B1A0F109037C
:1018F000DBB2F52BDED80BF09DFFA642DAD9631CD4
:101900009E42E6D31D460122E7E72346054A4021D1
:1019100002A811F03BFA02A80CF0F6F913B0F0BDE2
:1019200038700100707001004069704701EB0212CD
:10193000183210B404460FCA84E80F00204610BCC9
:10194000704700BF01EB0212A83210B404460FCA60
:1019500084E80F00204610BC704700BF01EB021264
:1019600002F59C7210B404460FCA84E80F002046AA
:1019700010BC704782B010B401AC84E80C0001AB1D
:1019800000EB01140FCB183484E80F0010BC02B038
:10199000704700BF82B010B401AC84E80C0001AB0A
:1019A00000EB01140FCBA83484E80F0010BC02B088
:1019B000704700BF82B010B401AC84E80C0001ABEA
:1019C00000EB01140FCB04F59C7484E80F0010BCED
:1019D00002B070472DE9F04F427C83B0012500240E
:1019E000B2B1027C202A27D8DFE802F01B26262687
:1019F00026262626261111262611262626262626C6
:101A00002626262626262626262626261100447445
:101A1000C268561CC6601278457422EAE2720274EB
:101A2000E0E7037A002B0CBF0123022380F8583033
:101A3000002003B0BDE8F08F457C01240472EDB1B5
:101A4000272A26D00D46044621D95B2A00F0D180F2
:101A50007B2A46D12A7A22F07F02DEB242F02003AE
:101A600000222B722A606A60002E40F05481052308
:101A7000002084F8583003B0BDE8F08FC268151913
:101A8000C5601278447422EAE2720274D8E7222A0E
:101A900027D1437C04684460002B00F0FA830024C3
:101AA00023464474A6462646012793B1037C467418
:101AB0009A424FF0000400F0E580002B00F0F08027
:101AC0005C2B71D00468651C05602370437C002B7F
:101AD000ECD1C3685C1CC4601B7823EAE373037415
:101AE000E5E70020864604F1170647F6ED7C01275E
:101AF000A2F15F03DBB2A2F141011B2BC9B25FFA75
:101B000080F845D80130402835D104EB0803002681
:101B10001E76237E742B1BD0662B00F027846E2B41
:101B20001ED02B2B00F02A852D2B00F021851A4684
:101B300004F11801A2F13003DBB2092B40F2488412
:101B40002E2A00F07585032384F85830002070E7B2
:101B50002B7A23F07F0343F0060301222B722A70B5
:101B6000B8F1040F00F092830223002084F858306B
:101B700003B0BDE8F08F84F811E006F8012FE368A8
:101B80005A1CE2601A78677422EAE2722274AFE7A4
:101B9000A2F12B031929DBB2B4D90E2B2CFA03F1D5
:101BA000B3D8CB07B1D5ADE7C3681D460133C360D9
:101BB00095F800C047742CEAEC7C5FFA8CF505744C
:101BC000BCF1000F6CD0BCF1750F70D02F2DC54C3F
:101BD00002D109E0AB4207D014F8023F002BF9D143
:101BE000032380F858305EE06378002BF8D0467409
:101BF00068E72A7A22F07F02DEB242F04003002238
:101C00002B722A606A60002E3FF431AFE368627481
:101C1000012019460133E3600978607421EAE1711B
:101C20002174202900F25482DFE811F021005202D1
:101C30005202520252025202520252025202C80090
:101C4000C80052025202C80052025202520252020C
:101C500052025202520252025202520252025202E4
:101C6000520252025202520252025202C800237A17
:101C7000002B0CBF01230223002084F8583003B04E
:101C8000BDE8F08F03685A1C02601C700B7A426832
:101C90000A6023F07F0343F004030B720120C8E6BF
:101CA000022380F85830002003B0BDE8F08F46745E
:101CB0004FF0040C1D460133C36095F80080477453
:101CC00028EAE8785FFA88F5A5F130090574B8F1DB
:101CD000000FE5D0402D85BF25F02005373D5FFA88
:101CE00089F5EDB245EA04140FFA84F80F2D0CF1D2
:101CF000FF3C1FFA88F43FF673AF1CF0FF0C4674EC
:101D0000D8D104F520539BB2B3F5806F80F07A826E
:101D1000C4F3090EDDE6E36862740120194601335D
:101D2000E3600978607421EAE1712174202949D8BF
:101D300001A757F821F000BF6F1C0000C51D00006F
:101D4000C51D0000C51D0000C51D0000C51D00000B
:101D5000C51D0000C51D0000C51D0000C11D0000FF
:101D6000C11D0000C51D0000C51D0000C11D0000F3
:101D7000C51D0000C51D0000C51D0000C51D0000DB
:101D8000C51D0000C51D0000C51D0000C51D0000CB
:101D9000C51D0000C51D0000C51D0000C51D0000BB
:101DA000C51D0000C51D0000C51D0000C51D0000AB
:101DB000C51D0000C51D0000C11D0000627428E79C
:101DC0006274ABE701227D29227200F0488200276D
:101DD000B846627C21686160002A00F0DC82227CC7
:101DE000272A00F07D82222A00F07282607C00287F
:101DF00000F06A831346A3F13002D2B2092A00F23E
:101E00005182012047F6ED7E4A1C677422600B70F8
:101E1000637C002B00F01A82237CA3F15F02D2B214
:101E20001B2A40F21182A3F14101C9B2A3F12B0296
:101E30001929D2B240F208820E2A2EFA02F140F29B
:101E4000008223685A1C22601F70637C0122002BD1
:101E50004BD0237C202B51D801A151F823F000BF97
:101E60006F1C0000FD1E0000FD1E0000FD1E000096
:101E7000FD1E0000FD1E0000FD1E0000FD1E0000F6
:101E8000FD1E0000E91E0000E91E0000FD1E00000E
:101E9000FD1E0000E91E0000FD1E0000FD1E0000EA
:101EA000FD1E0000FD1E0000FD1E0000FD1E0000C6
:101EB000FD1E0000FD1E0000FD1E0000FD1E0000B6
:101EC000FD1E0000FD1E0000FD1E0000FD1E0000A6
:101ED000FD1E0000FD1E0000FD1E0000FD1E000096
:101EE000E91E0000FC7001006774E368591CE160A2
:101EF0001B78627423EAE3732374ABE7617C0122ED
:101F00002272002900F05B823A2B7FF41CAED5F8D8
:101F10000090D4F804A067740DE0BAF1000F03D06C
:101F200013B110F0F1FF80B1B9F90A30002B00F0C5
:101F30003C8209EB03195046B9F1000F00F03582DD
:101F4000D9F80C309A451946E7D14946731E4FF02F
:101F500000022046FFF73EFD00283FF4A4AE637C5C
:101F60000122002B49D0237C202B4FD801A151F80E
:101F700023F000BF6F1C00000D2000000D200000AA
:101F80000D2000000D2000000D2000000D2000009D
:101F90000D2000000D200000F91F0000F91F0000B7
:101FA0000D2000000D200000F91F00000D20000092
:101FB0000D2000000D2000000D2000000D2000006D
:101FC0000D2000000D2000000D2000000D2000005D
:101FD0000D2000000D2000000D2000000D2000004D
:101FE0000D2000000D2000000D2000000D2000003D
:101FF0000D200000F91F00006774E368591CE160C0
:102000001B78627423EAE3732374ADE7617C0122D9
:102010002272002900F041827D2B00F020812C2BC0
:102020007FF491ADE368677401211A460133E360E0
:102030001278617422EAE2722274202A3FF6C9AE55
:1020400001A050F822F000BF691B0000D31D000062
:10205000D31D0000D31D0000D31D0000D31D0000C0
:10206000D31D0000D31D0000D31D0000CD200000B3
:10207000CD200000D31D0000D31D0000CD200000A6
:10208000D31D0000D31D0000D31D0000D31D000090
:10209000D31D0000D31D0000D31D0000D31D000080
:1020A000D31D0000D31D0000D31D0000D31D000070
:1020B000D31D0000D31D0000D31D0000D31D000060
:1020C000D31D0000D31D0000CD2000006774ACE7D5
:1020D00001235D29237200F0C28063695A68996800
:1020E00010329142C0F0C08010399960002900F090
:1020F0008480013EF6B200276B68002B00F0E1817E
:10210000CA1A12115A8169604F810F72CF6033462B
:102110004FF000022046FFF75DFC00283FF4C3ADFE
:10212000637C0122002B48D0237C202B4ED801A1B8
:1021300051F823F06F1C0000CD210000CD210000DC
:10214000CD210000CD210000CD210000CD210000D7
:10215000CD210000CD210000B9210000B9210000EF
:10216000CD210000CD210000B9210000CD210000CB
:10217000CD210000CD210000CD210000CD210000A7
:10218000CD210000CD210000CD210000CD21000097
:10219000CD210000CD210000CD210000CD21000087
:1021A000CD210000CD210000CD210000CD21000077
:1021B000CD210000B92100006774E368591CE1607B
:1021C0001B78627423EAE3732374AEE7617C012217
:1021D0002272002900F0D6805D2B40D02C2B7FF49A
:1021E000B2AC636967745A689968103291423BD304
:1021F0001039996000297FF47FAF042384F85830A8
:10220000002016E404F510539BB2B3F5806FC0F0C4
:10221000C7817F2C8DF800C000F2CA8102AD5FFA41
:1022200088F305F8073D002B3FF450AC046804F137
:10223000010CC0F800C0237015F8013D002BF5D14A
:1022400044E4CA077FF5FDAD2168DDE5E3685A1C6B
:10225000E2601B78607423EAE3732374DDE50023F6
:1022600063740120FFF7E5BB01221A74C5E7B9F1D9
:10227000000F40F03F82002E00F0B282C24A2B7A5B
:102280002A6023F07F0343F00C032B720120FFF739
:10229000D0BBC3685A1CC2601A7822EAE272027488
:1022A000FFF7FDBBA3F15F02D2B21B2A7FF6A9ADF7
:1022B000A3F14102D2B2192A7FF6A3AD2B2B3FF432
:1022C000A0AD2D2B3FF49DAD2E2B7FF43CAC98E5BB
:1022D000617C29B95A1CE2601B7823EAE3722274FC
:1022E000002367749E46012093B1237C6774934258
:1022F00000F0E180002B00F0D9805C2B10D0216829
:1023000001F1010CC4F800C00B70637C002BECD110
:10231000E368591CE1601B7823EAE3732374E5E763
:10232000E36819460133E3600978607421EAE171DA
:102330005FFA81FC84F810C0002900F0B78075298D
:1023400000F0CB80BCF12F0F904902D109E063452A
:1023500007D011F8023F002BF9D1032384F858303D
:10236000A1E44B78002BF8D06774C8E72B7A2E7065
:1023700023F07F0343F00603B8F1050F2B727FF4BF
:10238000F3AB83E7E3689918E1601B78627423EA92
:10239000E373237420E71A460133E36012780120C7
:1023A00022EAE272227460741AE5626951689368E5
:1023B00010318B4280F0C780012313741DE7E3685E
:1023C0009918E1601B78627423EAE37323749BE538
:1023D0000020DFF8BC8105E040451AD84FEA4C00E8
:1023E000704516D811F8017FA7F13002D2B2184417
:1023F000092A00EB800C13466FEA020EECD9002F7D
:1024000040F01781002E00F01F81B0F1004F40F224
:102410007581DFF880C1DFF880E10023ACFB00802C
:10242000C008013370455BB2F8D8092A88BF3A4624
:1024300007D811F8012FA2F130070133092F5BB241
:10244000F7D92E2A00F008810F7807F0DF02452A1D
:1024500000F0C1800022002F7FF475AB9C180FF0B4
:102460007BFA002C40F39481DFF8308114F0010FE7
:10247000FBB207F1010703D058F823100FF0C4FA9C
:102480006410F3D10EB100F100402B7A286023F0E4
:102490007F0343F00C032B72F8E6E3689918E160C0
:1024A0001B78627423EAE3732374B5E5022384F88E
:1024B0005830FFF7F8BB23685A1C226083F800806D
:1024C000C3E4296069601FE65A1CE2601B780122A0
:1024D00023EAE373237462748DE467744FF0040C91
:1024E0004FF0000919460133E36091F800A06074D1
:1024F0002AEAEA7A5FFA8AF1A1F1300B2174BAF183
:10250000000FD3D0402985BF21F0200137395FFA71
:102510008BF1C9B241EA09190FFA89FA0F290CF1B6
:10252000FF3C1FFA8AF93FF618AF1CF0FF0C6774E6
:10253000D8D109F520539BB2B3F5806F80F0B880F5
:10254000C9F3090EE4E6A3F11001916000293FF4FC
:1025500054AE6A68002A00F0CA80881A00115081BF
:10256000696023F8067C03F8087C43F804ACEDE4CA
:1025700004F11901627E0126FFF7DCBA627E04F1E4
:102580001901FFF7D7BA00BF000080FFFC700100FF
:1025900099999919CDCCCCCCFFFF7F005C6E0100DE
:1025A000C4F3090444EA8E2404F580348DF800C095
:1025B00004F03F03A409A5B263F07F031F2D8DF83B
:1025C000013064D864F03F04E3B28DF802300DF1BD
:1025D0000305013D2AE64F782D2F00F0C5802B2FF3
:1025E00000F0D28001F1010EA7F13002D1B2092929
:1025F0003FF630AF991826293FF73DAE4FF000095E
:1026000005E001EB4802D11826293FF730AE1EF84D
:10261000017FA7F130015FFA81FCBCF1090F02EBE9
:102620008208EED9B9F1000F3FF415AF524212E71C
:1026300000200F78B0F5000FA7F13002D2B238BFFA
:102640000023FFF4F2AEE4E62B7A286023F07F0348
:1026500043F008032B7219E64F78A7F13002D2B28B
:10266000092A01F101013FF6F0AEDFF89CE1704567
:1026700005D800EB8000013B02EB40005BB211F893
:10268000017FA7F13002D2B2092AF0D9DDE604F0C9
:102690003F05C4F3891365F07F050F2B8DF80250B9
:1026A00053DC63F01F03DBB28DF8033001AD90E71C
:1026B00009F510539BB2B3F5806F28D34B467F2B9F
:1026C0008DF800C02BD80DF1080C5FFA8AF30CF8D6
:1026D000073D002B3FF419AE216801F10109C4F850
:1026E00000900B701CF8013D002BF5D10DE6296020
:1026F000696036E7002E5ED10022C0E52B7A23F018
:102700007F03404243F00A0328602B72BEE5C9F301
:10271000090343EA8E2303F580338DF800C003F0EC
:102720003F019B091FFA83FC61F07F01BCF11F0F81
:102730008DF8011042D863F03F03DBB28DF8023010
:102740000DF1030C0CF1FF3CC6E703F03F03C4F3AB
:10275000033463F07F0544F0F0038DF803508DF8E7
:1027600004300DF1050534E78F78A7F130025FFAE8
:1027700082FCBCF1090F01F1020E43D899182629F9
:10278000B8DC4FF0010942E701F1020E8F782BE728
:102790006442002C3FF476AEDFF8708014F0010F35
:1027A000FBB207F1010703D058F823100FF02CF902
:1027B0006410F3D166E64FF0004260E503F03F0C91
:1027C000C3F389116CF07F0C0F298DF802C00ADC6D
:1027D00061F01F03DBB28DF803300DF1040CB1E79B
:1027E0004FF0FF424BE501F03F01C3F3033361F0CB
:1027F0007F0143F0F0038DF803108DF804300DF1E4
:10280000050C9FE7002211E7CBCC0C00446E0100C1
:10281000F8B5037A13F07F0407D123F07F0343F068
:102820002003DBB20372046044609B061DD5E1B156
:1028300017460D460646046808E013B110F064FB25
:1028400050B1B4F90A304BB104EB031428462CB153
:10285000E368AB421946F0D12046F8BD7A68BB6800
:102860001032934203D201233B740020F8BDA3F140
:102870001004BC60002CF8D0726862B1A11A091172
:1028800051817460002203F8082C43F8045C204650
:1028900023F8062CF8BD34607460F3E738B5037A8A
:1028A00003F02003ABB10D46046809E01DB113B17C
:1028B00010F02AFB50B1B4F90A0048B104EB00143F
:1028C00028461CB1E368AB421946EFD1204638BD1B
:1028D00038BD03F0FF04204638BD00BF2DE9F84F96
:1028E000C3681A7F9206884640F1E5805E690569F3
:1028F000074634460BE01DB113B110F005FB70B173
:10290000B4F90A30002B00F0D68004EB03142846FB
:10291000002C00F0D080E3689D421946EBD1237A69
:102920005B0640F1C8802368002B00F0C480D7F814
:1029300014B00BF1FF3ABBF1000F13D0B3F90A202A
:10294000002A00F0B880002105E0B3F90A20013127
:10295000002A00F0B080514503EB0213F5D1002BA3
:1029600000F0A9801A7A940640F1A5801C68D7F877
:1029700018900DE0B9F1000F03D013B110F0C4FAB4
:1029800070B1B4F90A30002B00F0958004EB031409
:102990004846002C00F08F80E36899451946E9D13C
:1029A000237A980640F18780FF6924680AE01FB106
:1029B00013B110F0A9FA60B1B4F90A30002B7AD043
:1029C00004EB03143846002C75D0E3689F42194687
:1029D000EDD1237A03F07F03082B68D00A2B0BD0AC
:1029E00069E01DB113B110F08FFA60B1B6F90A3089
:1029F000002B68D006EB03162846002E63D0F36840
:102A0000AB421946EDD1337A59065CD53368002BB9
:102A100059D0BBF1000F10D0B3F90A20002A52D0D0
:102A2000002104E0B3F90A200131002A4BD05145BE
:102A300003EB0213F6D1002B45D01A7A920642D549
:102A40001C680CE0B9F1000F03D013B110F05CFA70
:102A500058B1B4F90A30002B35D004EB03144846C2
:102A60008CB3E36899451946ECD1237A9B062AD5A5
:102A7000246809E01FB113B110F046FA50B1B4F95F
:102A80000A3003B304EB03143846E4B1E3689F4211
:102A90001946EFD1237A03F07F03043B082B12D8A9
:102AA000DFE803F032322F112811251114002368BA
:102AB000B3F1004FA0D3D8F80000BDE8F88FBCF107
:102AC000000F40F0F3800020BDE8F88F24684FF03D
:102AD0004F4120460FF04AF958B34FF09E4120462F
:102AE0000FF03AF9002840F08A80BDE8F88F20689E
:102AF000BDE8F88F2068B0F1004F28BF0020BDE886
:102B0000F88F2078BDE8F88F226813782B2B7ED0C1
:102B10002D2B79D1012451782244A1F13003DBB26D
:102B2000092B4FF0000006D92E2900F0E980BDE8FE
:102B3000F88FBDE8F88FDFF8F4E104E0704518D8AD
:102B40007800B04215D812F8015FA5F13001C9B282
:102B50001844092900EB80070B466FEA0106EDD9FE
:102B6000002D40F0CD80002C00F08180B0F1004FAE
:102B70007AD9694F694E0023A7FB00E0C0080133F2
:102B8000B0425BB2F8D8092988BF294607D812F8A5
:102B9000011FA1F130050133092D5BB2F7D92E29B0
:102BA0006BD0167806F0DF01452934D00021002EC5
:102BB00089D15D180EF0D0FE002D40F38C80584F67
:102BC00015F0010FF3B206F1010603D057F82310F8
:102BD0000EF01AFF6D10F3D1002C6AD000F1004402
:102BE0004FF04F4120460FF0C1F80028A1D04FF020
:102BF0009E4120460FF0B0F808B9BDE8F88F204696
:102C00000FF0DEF8BDE8F88F1946002485E751780B
:102C10000024013281E756782D2E4CD02B2E08BF90
:102C20009678A6F13001CDB214BF01320232092DDF
:102C3000BCD85D18262D3FF746AF4FF0000C05E0DD
:102C400005EB4E01CD18262D3FF739AF12F8016F75
:102C5000A6F13005EFB2092F01EB810EF0D9BCF1DE
:102C6000000FA4D04942A2E74042BDE8F88FB0F17E
:102C7000004F28BF0020BDE8F88F5678A6F130013C
:102C8000C9B2092902F101028CD8264DA84205D803
:102C900000EB8000013B01EB40005BB212F8016FDA
:102CA000A6F13001C9B20929F0D97BE72CBB00207D
:102CB000A6E7044694E79678A6F13001CDB2092D37
:102CC00002F1020288BF0021CCD8CD18262DEDDC00
:102CD0004FF0010CBAE76D42002D3FF47DAF124F6B
:102CE00015F0010FF3B206F1010603D057F82310D7
:102CF0000EF08AFE6D10F3D16EE74FF000407FE7D3
:102D00001578B0F5000FA5F13001C9B238BF002326
:102D1000FFF439AF2DE700BFCDCCCCCCFFFF7F0057
:102D20005C6E0100CBCC0C00446E0100999999199E
:102D3000002845D0F8B5037A13F07F0418D09B061D
:102D400020D5F9B1064617460D46046808E013B1D0
:102D500010F0DAF850B1B4F90A30ABB104EB031457
:102D600028468CB1E3689D421946F0D12046F8BD53
:102D700023F07F0343F02003DBB203729B06046061
:102D80004460DED40020F8BD7A68BB6810329342FC
:102D900013D3A3F11004BC60002CF3D072688AB185
:102DA000A11A091151817460002203F8082C43F81C
:102DB000045C204623F8062CF8BD01233B74E1E7B0
:102DC0000020704734607460EEE700BF2DE9F04FDB
:102DD000037A03F07F03023B8BB00C463E2B00F2DC
:102DE0009182DFE813F0B400B400FD00FD0044025E
:102DF0008F02CE008F025E028F0238018F028F0297
:102E00008F028F028F028F028F028F028F028F023A
:102E10008F028F028F028F028F028F028F028F022A
:102E20008F026D018F028F028F028F028F028F023D
:102E30008F028F028F028F028F028F028F028F020A
:102E40008F028F028F028F028F028F028F028F02FA
:102E50008F028F028F028F028F028F028F028F02EA
:102E60008F023F00D0F80080B8F1000F00F03685E7
:102E700091E8C000B7423D4680F08285984A3B46C3
:102E800002F1030E02E0724500F06384581C12F850
:102E9000011B6060197063682668B3421D46F2D357
:102EA000DF1B227CA36801323B44D2B22274A360B0
:102EB0002027DAB10022B54205F10100294680F051
:102EC000758260602F7065682668B54205F1010360
:102ED00003D263602F7065682668A368691A01329F
:102EE000207CD2B20B449042A360E4D821464046F5
:102EF000FFF76CFFB8F90A30002B00F0438218EBA3
:102F0000031800F03F8265682668AE42AE4640F284
:102F1000E284744903222B4602E0002A00F04D822D
:102F20005D1C11F8010B6560187063682668B34278
:102F300002F1FF321D46F0D3CEEB030EA3687344BB
:102F4000A360B8F1000F00F09682227CB1E791E80F
:102F50004800B34290E8060040F20885002A00F0DD
:102F60000385334600E052B1581C606011F8010B34
:102F7000187094E80900834202F1FF32F3D3981BE2
:102F8000D5E10DF1260E584E03687046A6FB0312DC
:102F9000D20802EB8201A3EB41033033DDB200F82B
:102FA000015D1346002AF1D194E842008E42C0EB45
:102FB0000E020FD272B1421C334603E0964508D090
:102FC00012F8015B591C61601D7094E80A008B4285
:102FD000F4D39B1BA0681844A0600BB0BDE8F08F31
:102FE0004D680F680668BD4280F09C836A1C2223EE
:102FF0004A602B704D680F680123A268013E13449C
:10300000A36016F8010F4FF05C0ED8B1222800F033
:10301000B181364B03E0D978814200F0AC811A7956
:103020000233002AF7D1BD4205D26B1C63602870C1
:10303000656827680122A3681344A36016F8010F8E
:103040000028E3D1BD4280F072816A1C22236260B5
:1030500001202B706BE1D0F800A0514650460EF0D5
:1030600099FE002840F06A842AF00045284620494D
:103070000EF090FE002840F0318228461C490EF0E8
:103080006BFE002840F02A82626823689A4280F032
:103090005284184913460E1D01E0B14208D05D1C50
:1030A00011F8010B6560187094E809008342F4D3AD
:1030B0009A1AA3681344A36018460BB0BDE8F08FBA
:1030C000D0F80090B9F1000F00F0EA8348680E686C
:1030D000B04280F05B84084B0546DF1C10E000BF67
:1030E0001871010020710100CDCCCCCCFC70010026
:1030F000FFFF7F7F1071010024710100BB4208D0E7
:10310000691C13F8012B61602A7065682668B54256
:10311000F4D3281A227CA36801323146D2B2034488
:103120002E462274A3604FF020082227CA460D467F
:10313000EAB10021AE4206F1010280F039816260FD
:1031400086F8008062682568AA4202F1010304D271
:10315000636082F8008062682568A368901B164649
:103160000131227CC9B203448A42A360E2D8AE4254
:10317000DAF80C1080F00481731C6360377094E8F7
:103180006000A36801221344A36001F1FF3C4FF0EB
:103190005C091CF8010FD8B1222800F0CE80AF4B9B
:1031A00003E0D978814200F0C9801A790233002AFD
:1031B000F7D1AE4205D2731C6360307094E86000B2
:1031C0000122A3681A44A2601CF8010F0028E3D171
:1031D000AE4217D2731C63603770A26861682368BF
:1031E00001329942A2600ED24A1C3A2362600B70EF
:1031F00094E80C00934204D25A1C626083F8008069
:103200006368581AA2681044A06021465046FFF730
:10321000DDFDBAF90A30002B00F0BE801AEB031A6C
:1032200000F0BA8094E84200B142B64640F25183C1
:103230008B480322334602E0002A00F0BB805E1C6C
:1032400010F8011B6660197094E80A008B4202F1C5
:10325000FF321E46F0D3CEEB030EA3687344A36087
:10326000BAF1000F00F099830D46227C60E70178E7
:1032700062682368002940F07382934240F27883A9
:10328000784913464E1D02E0B1423FF411AF5D1C78
:1032900011F8010B6560187094E809008342F3D3BC
:1032A00006E70268002AC0F2CC820F684D68134618
:1032B0000DF1260E6C4E7046A6FB0321C90801EBEA
:1032C0008102A3EB42033033DAB200F8012D0B4642
:1032D0000029F1D1AF42C0EB0E017FF67BAE002991
:1032E0003FF478AE411C2B4603E08E4508D011F820
:1032F000012B581C60601A7094E80C009342F4D3C0
:103300005B1B67E648680B68984280F02F83574A3A
:103310000346161D01E0B24208D05D1C12F8011BE5
:103320006560197094E80A008B42F4D3181AA368F8
:103330001844A0600BB0BDE8F08F0246AE4204D343
:10334000A36800221344A36023E7731C636086F81C
:10335000009094E86000A368AE4203F10103A3600B
:1033600080F00C83731C636032706668A368256804
:103370000122E7E70246BD4222D3A36800225BE6B2
:10338000002200E765682668AE42AE4672D9022286
:103390004FF000083649BEE594E84200B142B64617
:1033A00021D902224FF0000A314843E7002196E577
:1033B0000020D5E6CEEB060E4FE7CEEB050EBDE5C1
:1033C0006B1C636085F800E0A368656827680133BB
:1033D000BD42A360D2D26B1C63602A706568A3688B
:1033E0002768012228E6A36835460E46227C013A6A
:1033F000D2B222742F4602B300202022AE4205F141
:10340000010140F2A28161602A7063682668B342BC
:1034100003F101011CD261601A7063682668B3422F
:103420001F4615D2A368C5EB070E3D460130217C2F
:10343000C0B273448142A360E0D8B54280F0AA8252
:103440006A1C7D2362602B706268A368D21B31E620
:103450001F46C5EB070EA3683D46E7E7FC70010079
:103460002071010030710100CDCCCCCC1071010075
:103470001C710100A368227C013AD2B222742F464B
:1034800002B300202022B54205F1010180F06481E1
:1034900061602A70636826689E4203F1010117D9B2
:1034A00061601A7063682668B3421F4610D2A36831
:1034B000C5EB070E3D460130217CC0B2734481420A
:1034C000A360E0D8AE4240F265826A1C5D23B9E792
:1034D0001F46C5EB070EA3683D46ECE700215046AA
:1034E0000EF030FC656826680195002840F0C88120
:1034F000BC4950460EF03AFC002800F02081DFF86D
:1035000000B3DFF8009300274FF0200851465BF826
:10351000040D0EF021FC38B15046D9F800100EF021
:1035200073FA474482463FB2AF4B9B454FEA680867
:10353000A9F10409EAD14FF0FF3B002150460EF0FB
:103540001FFC08B3A94950460EF006FCC8B91BE0A1
:103550000FFA8BF9A64B514653F829000EF010FCD8
:1035600048B1A14B504653F829100EF04DFAC8EB64
:10357000070782463FB20BF1FF3B4FFA8BFB4FEA46
:103580006808BBF1FF3FE3D150460EF03FFC09282D
:10359000834640F2C081974B97485A460521A0FBCD
:1035A00002E2D208A0FB03E3092A01F1FF3E4FFA31
:1035B00081F84FEAD3035FFA8EF1F0D818460293F0
:1035C0000EF0CAF9029B02465846039302920EF08F
:1035D000C3F9014650460EF00DF9029A11460EF05D
:1035E00013FA02900EF012FC82460EF0B5F9029A20
:1035F000014610460EF0FEF801460EF0FDF80EF002
:1036000005FC039B50449842C0F08E800BF1010BE7
:10361000002F40F00A810020B8F1000F11DD764A3A
:10362000414600E061B1A2FB0030C008A2FB00E30C
:10363000DB0803EB83030139B0EB430F49B2F1D050
:1036400088460DF1260EDFF8B0C17146ACFB0B3297
:10365000D20802EB8203ABEB43033033DBB201F859
:10366000013D9346002AF1D1AE42C1EB0E0240F279
:103670008281002A00F07F8101312A4604E07145F1
:1036800000F0EF8011F8013B551C65601370626813
:103690002668B2421546F2D3019BC3EB0209A1682A
:1036A00009EB0103A360B8F1000F6DD1002F00F00A
:1036B000C580B54280F0DA806A1C652362602B7099
:1036C000A368656826680133002FA360C0F22881D3
:1036D000BFB2494B7146A3FB0720C00800EB800234
:1036E000A7EB42023032D2B287B201F8012D002F8F
:1036F000F1D1B542C1EB0E030FD273B101312B46AC
:1037000003E08E4508D011F8012B581C60601A7038
:1037100094E80C009342F4D35F1BA3683B44A3607E
:103720001846CAE4002368E4334BA3FB0023DB08FC
:1037300003EB8303B0EB430F3FF46EAF81E7074623
:103740004FF020084FF0050BF7E62F464FF0000E24
:103750006CE6EF1BFFF7A5BB2F464FF0000EAAE665
:103760009A4280F01081254913460E1D02E0B142B5
:103770003FF49EAC5D1C11F8010B6560187094E875
:1037800009008342F3D393E408F1FF380AA95FFAF2
:1037900088FBCBEB010A08A9AAF1090A8946019323
:1037A000154BA3FB003C4FEADC0C0CEB8C08A0EBA8
:1037B0004800303009F8010DD1456046F0D16FEA7C
:1037C0000B00084400F1FF384FF02E0CB542019B6E
:1037D00000F801CCC8EB010123D211B30239431820
:1037E000414615E08096184B5C6E0100ACC527374A
:1037F0002C6E010040420F00CDCCCCCC28710100D2
:10380000746E0100586E01008B4209D011F801CF8F
:10381000681C606085F800C065682668B542F3D30F
:10382000A368AA1A1A44A26040E7BBF1090F7FF609
:10383000F2AE01373FB24FF0010BECE6A368184639
:103840003BE44D680F68BD4261D2691C2D23616065
:103850002B70656827680123A1681944A160534251
:1038600026E5019B2A46C3EB050918E7002FA3684C
:10387000BFF62EAF002213447A42A36097B228E726
:10388000B54246D26A1C2D2362602B70656826689B
:1038900001950123A26813440AF1004AA36027E6B8
:1038A0004A680B689A420ED2511C7B2361601370E8
:1038B00094E80A008B4204D2581C7D216060197084
:1038C0006368C2EB0309A3684B44A3601846FFF783
:1038D000F4BBA368C8E4A368FFF737BB4A680B686A
:1038E0009A420ED2511C5B236160137094E80A0067
:1038F000994204D9581C5D21606019706368C2EB5D
:103900000308A3684344A3601846FFF7D6BB00230F
:10391000A2E70023BEE7224A224B4FF0060853E6F7
:10392000B542A7D26A1C2D2362602B706568A3681C
:10393000266801229FE70246FFF7BBBB6268236847
:103940009A4220D218491346081D02E081423FF4F2
:10395000AFAB5E1C11F8015B66601D706368256883
:10396000AB42F3D3FFF7A4BB1046E0E40020DEE453
:103970000A46FFF79EBBD9462A4690E60022E1E4BC
:103980000027FFF78EBA0022FFF793BB0546002001
:10399000FFF7C0BB0022FFF78DBB35460E4625E57D
:1039A0000024744940420F00107101002DE9F04FCE
:1039B000ADF5004D97B00DF580435833A3F12004C9
:1039C000A049824605A80BF08DFD0DF5004505A820
:1039D0000BF0B4FF5835237FA5600DF580460DF53B
:1039E0008042E56038360DF5804558320020583564
:1039F00023F07F0362602074934935602246A5F16D
:103A00000C002377FEF704FF00283DD00DF580421F
:103A10003832DAF804C08D4B11686668BCF1000FCB
:103A200014BFE6469E46B14205461FD29EF800806E
:103A30000878404541F094824B1CB8F1000F01F02A
:103A40009580774602E0002A01F09080994617F8A9
:103A5000012F13F8010B8242F5D018B119F8013F7C
:103A6000002BFBD109F101018E42E1D8DAF80C708C
:103A7000A2687B1C33449A4281F06880012323743E
:103A80002B7A23F07F032B720DF5804358332246A7
:103A90006F49A3F10C00FEF7BBFEDAF8142030B139
:103AA000037A026023F07F0343F00A030372CDF828
:103AB0000CA057460026237F13F07F0207D123F086
:103AC0007F0343F02003DBB223776261A2619A0691
:103AD00041F11E806569DFF87C810AE013B10FF0C7
:103AE00013FA70B1B5F90A30002B01F0098005EB2B
:103AF00003155848002D01F00380EB684345194633
:103B0000ECD1284622463146FDF762FB2246524957
:103B1000FFF70EF922465149FFF70AF9BA6930B1A9
:103B2000037A026023F07F0343F00A030372237FCA
:103B300013F07F0207D123F07F0343F02003DBB2B1
:103B400023776261A2619B0640F1D7876569DFF840
:103B500004810AE013B10FF0D7F970B1B5F90A305A
:103B6000002B00F0C28705EB03153A48002D00F04A
:103B7000BC87EB6843451946ECD1284622463146BE
:103B8000FDF726FB22463449FFF7D2F82246344996
:103B9000FFF7CEF8FA6930B1037A026023F07F03B1
:103BA00043F00A030372237F13F07F0207D123F04F
:103BB0007F0343F02003DBB223776261A2619D069D
:103BC00040F190876569DFF88C800AE013B10FF04F
:103BD0009BF970B1B5F90A30002B00F07B8705EB3B
:103BE00003151C48002D00F07587EB684345194606
:103BF000ECD1284622463146FDF7EAFA224616491C
:103C0000FFF796F822461749FFF792F83A6A30B163
:103C1000037A026023F07F0343F00A030372237FD9
:103C200013F07F0207D123F07F0343F02003DBB2C0
:103C300023776261A261980640F149876569DFF8E0
:103C400014801CE038710100447101009E7B01006A
:103C50004C71010058710100607101006871010030
:103C60006C7101007471010013B10FF04DF970B166
:103C7000B5F90A30002B00F0228705EB0315A248A6
:103C8000002D00F01C87EB6843451946ECD128460F
:103C900022463146FDF79CFA22469C49FFF748F838
:103CA00022469B49FFF744F87A6A30B1037A0260F2
:103CB00023F07F0343F00A030372237F13F07F0294
:103CC00007D123F07F0343F02003DBB22377626147
:103CD000A261990640F1F0866569DFF82C820AE05E
:103CE00013B10FF011F970B1B5F90A30002B00F0E3
:103CF000DB8605EB03158448002D00F0D586EB68C4
:103D000043451946ECD1284622463146FDF760FA74
:103D100022468049FFF70CF822467F49FFF708F852
:103D2000D7F8A82030B1037A026023F07F0343F074
:103D30000A030372237F13F07F0207D123F07F036E
:103D400043F02003DBB223776261A2619A0640F15F
:103D5000A8866569DFF8B0810AE013B10FF0D4F8E6
:103D600070B1B5F90A30002B00F0938605EB03150E
:103D70006548002D00F08D86EB6843451946ECD16F
:103D8000284622463146FDF723FA22466149FEF7CE
:103D9000CFFF22466149FEF7CBFFD7F8AC2030B108
:103DA000037A026023F07F0343F00A0303720DF5E8
:103DB00080435833A3F10C0022465349FEF728FDF7
:103DC00022463146FDF704FA22465249FEF7B0FF7B
:103DD00022465349FEF7ACFFD7F8B02030B1037A42
:103DE000026023F07F0343F00A030372237F13F082
:103DF0007F0207D123F07F0343F02003DBB2237758
:103E00006261A2619B0640F141866569DFF8F88036
:103E10000AE013B10FF078F870B1B5F90A30002B51
:103E200000F02C8605EB03153748002D00F02686A0
:103E3000EB6843451946ECD1284622463146FDF74A
:103E4000C7F922463349FEF773FF22463049FEF791
:103E50006FFFD7F8B42030B1037A026023F07F03FC
:103E600043F00A030372237F13F07F0207D123F08C
:103E70007F0343F02003DBB223776261A2619D06DA
:103E800040F1F9856569DFF880800AE013B10FF031
:103E90003BF870B1B5F90A30002B00F0E48505EB72
:103EA00003151948002D00F0DE85EB6843451946DF
:103EB000ECD1284622463146FDF78AF922461949B7
:103EC000FEF736FF22461449FEF732FFD7F83821B5
:103ED00030B1037A026023F07F0343F00A030372D8
:103EE000237F13F07F0207D123F07F0343F02003E9
:103EF000DBB223776261A261980640F11F86656993
:103F0000DFF804801BE000BF587101006071010000
:103F10007C71010084710100687101006C71010005
:103F2000747101008C71010013B10EF0EDFF70B1DE
:103F3000B5F90A30002B00F0F98505EB0315A94807
:103F4000002D00F0F385EB6843451946ECD1284677
:103F500022463146FDF73CF92246A349FEF7E8FE2A
:103F60002246A249FEF7E4FED7F83C2130B1037A9D
:103F7000026023F07F0343F00A030372237F13F0F0
:103F80007F0207D123F07F0343F02003DBB22377C6
:103F90006261A261990640F1C6856569DFF84482D5
:103FA0000AE013B10EF0B0FF70B1B5F90A30002B82
:103FB00000F0B18505EB03158A48002D00F0AB85B4
:103FC000EB6843451946ECD1284622463146FDF7B9
:103FD000FFF822468449FEF7ABFE22468449FEF7ED
:103FE000A7FED7F8402130B1037A026023F07F03A7
:103FF00043F00A030372237F13F07F0207D123F0FB
:104000007F0343F02003DBB223776261A2619A064B
:1040100040F126856569DFF8CC810AE013B10EF026
:1040200073FF70B1B5F90A30002B00F0118505EB74
:1040300003156C48002D00F00B85EB6843451946CD
:10404000ECD1284622463146FDF7C2F822466649A1
:10405000FEF76EFE22466749FEF76AFED7F8442156
:1040600030B1037A026023F07F0343F00A03037246
:104070000136082E07F110077FF41DAD0DF58043C2
:10408000583322465C49A3F10C00FEF7C1FB2246DF
:104090005A49FEF74DFEDAF8C82130B1037A0260C2
:1040A00023F07F0343F00A030372DAF85C33002B3A
:1040B0007CDD514FCDF808A0D3464FF00008237F98
:1040C00013F07F0207D123F07F0343F02003DBB21C
:1040D00023776261A2619B0640F17A8465690AE0F8
:1040E00013B10EF011FF70B1B5F90A30002B00F0DA
:1040F000678405EB03154048002D00F06184EB68F0
:10410000BB421946ECD1284622463D49FEF710FE37
:1041100022464146FDF75CF8054600283BD094E86E
:104120004200DBF8CC91374BB9F1000F18BF4B467A
:10413000B142019320D293F800A00878824540F064
:10414000CA864B1CBAF1000F00F03184DDF804E0A0
:1041500002E0002A00F02B849C461EF8012F13F881
:10416000010B8242F5D018B11CF8013F002BFBD1A6
:104170000CF101018E42E0D8DBF8D4A1A2680AF16B
:10418000010333449A4280F00184012323742B7A83
:1041900023F07F032B72029BD3F85C3308F10108F4
:1041A00043450BF1100B8ADCDDF808A0DAF8F43493
:1041B000002B40F39080104FCDF808A0D3464FF06D
:1041C0000008237F13F07F0207D123F07F0343F021
:1041D0002003DBB223776261A2619E0640F1358441
:1041E00065691CE0587101008C7101006C7101005F
:1041F000747101007C710100947101009C710100D7
:10420000287301009E7B010013B10EF07DFE70B19A
:10421000B5F90A30002B00F0108405EB0315BD48FA
:10422000002D00F00A84EB68BB421946ECD1284609
:104230002246B949FEF77CFD22464146FCF7C8FFFD
:10424000054600283BD094E84200DBF86493B34B6A
:10425000B9F1000F18BF4B46B142019320D293F839
:1042600000A00878824540F033864B1CBAF1000F5D
:1042700000F08483DDF804E002E0002A00F07E8391
:104280009C461EF8012F13F8010B8242F5D018B19D
:104290001CF8013F002BFBD10CF101018E42E0D84C
:1042A000DBF86CA3A2680AF1010333449A4280F060
:1042B0005483012323742B7A23F07F032B72029BF8
:1042C000D3F8F43408F1010843450BF1100B3FF724
:1042D00078AFDDF808A0DAF88C36002B7CDD8D4F46
:1042E000CDF808A0D3464FF00008237F13F07F02DB
:1042F00007D123F07F0343F02003DBB22377626111
:10430000A2619D0640F1978365690AE013B10EF042
:10431000FBFD70B1B5F90A30002B00F0848305EB8A
:1043200003157C48002D00F07E83EB68BB421946E4
:10433000ECD1284622467A49FEF7FAFC224641464D
:10434000FCF746FF054600283BD094E84200DBF826
:10435000FC94724BB9F1000F18BF4B46B142019368
:1043600020D293F800A00878824540F0C0854B1C0D
:10437000BAF1000F00F0E982DDF804E002E0002A63
:1043800000F0E3829C461EF8012F13F8010B8242D5
:10439000F5D018B11CF8013F002BFBD10CF1010145
:1043A0008E42E0D8DBF804A5A2680AF10103334489
:1043B0009A4280F0B982012323742B7A23F07F0381
:1043C0002B72029BD3F88C3608F1010843450BF1A0
:1043D000100B8ADCDDF808A0DAF82438002B7CDD2D
:1043E0004C4FCDF808A0D3464FF00008237F13F0C0
:1043F0007F0207D123F07F0343F02003DBB2237752
:104400006261A261980640F10C8365690AE013B10C
:104410000EF07AFD70B1B5F90A30002B00F0F98288
:1044200005EB03153B48002D00F0F382EB68BB421F
:104430001946ECD1284622463A49FEF779FC224635
:104440004146FCF7C5FE054600283BD094E84200F3
:10445000DBF89496314BB9F1000F18BF4B46B142CF
:10446000019320D293F800A00878504540F03C8595
:104470004B1CBAF1000F00F04F82DDF804E002E0BF
:10448000002A00F049829C461EF8012F13F8010B08
:104490008242F5D018B11CF8013F002BFBD10CF182
:1044A00001018E42E0D8DBF89CA6A2680AF1010364
:1044B00033449A4280F01F82012323742B7A23F025
:1044C0007F032B72029BD3F8243808F1010843457F
:1044D0000BF1100B8ADCDDF808A0DAF8BC39002BF0
:1044E00040F389800B4FCDF808A0D3464FF0000869
:1044F000237F13F07F0207D123F07F0343F02003D3
:10450000DBB223776261A261990640F1808265691E
:1045100015E000BF94710100A87101009E7B0100AD
:10452000AC7101008471010013B10EF0EDFC70B1AB
:10453000B5F90A30002B00F0628205EB03159848AC
:10454000002D00F05C82EB68BB421946ECD1284696
:1045500022469449FEF7ECFB22464146FCF738FE22
:10456000054600283BD094E84200DBF82C988E4B9F
:10457000B9F1000F18BF4B46B142019320D293F816
:1045800000A00878504540F0AC844B1CBAF1000FF5
:1045900000F0A981DDF804E002E0002A00F0A38128
:1045A0009C461EF8012F13F8010B8242F5D018B17A
:1045B0001CF8013F002BFBD10CF101018E42E0D829
:1045C000DBF834A8A2680AF1010333449A4280F070
:1045D0007981012323742B7A23F07F032B72029BB2
:1045E000D3F8BC3908F1010843450BF1100B3FF734
:1045F0007FAFDDF808A0DAF8543B002B7CDD684F74
:10460000CDF808A0D3464FF00008237F13F07F02B7
:1046100007D123F07F0343F02003DBB223776261ED
:10462000A2619A0640F1E98165690AE013B10EF0D2
:104630006BFC70B1B5F90A30002B00F0D68105EBA8
:1046400003155748002D00F0D081EB68BB42194696
:10465000ECD1284622465549FEF76AFB22464146E0
:10466000FCF7B6FD054600283BD094E84200DBF895
:10467000C4994D4BB9F1000F18BF4B46B14201939D
:1046800020D293F800A00878504540F027844B1CB6
:10469000BAF1000F00F00E81DDF804E002E0002A1C
:1046A00000F008819C461EF8012F13F8010B82428E
:1046B000F5D018B11CF8013F002BFBD10CF1010122
:1046C0008E42E0D8DBF8CCA9A2680AF1010333449A
:1046D0009A4280F0DE80012323742B7A23F07F033B
:1046E0002B72029BD3F8543B08F1010843450BF1B0
:1046F000100B8ADCDDF808A0DAF8EC3C002B40F364
:104700008280274F039ECDF808A04FF00008237F3A
:1047100013F07F0207D123F07F0343F02003DBB2C5
:1047200023776261A2619B0640F15D8165690AE0C1
:1047300013B10EF0E9FB70B1B5F90A30002B00F0AF
:104740004A8105EB03151648002D00F04481EB6803
:10475000BB421946ECD1284622461549FEF7E8FA35
:1047600022464146FCF734FD0546002842D094E835
:104770000202D6F8C4A90C4BBAF1000F18BF534679
:104780004945019328D293F800B00878834540F05A
:104790009D834B1CBBF1000F73D0DDF804E00BE0F0
:1047A000947101008C7101009E7B0100B0710100C9
:1047B000C0710100002A64D09C461EF8012F13F836
:1047C000010B8242F6D018B11CF8013F002BFBD13F
:1047D0000CF101018945D8D8D6F8CCB9A2680BF103
:1047E00001034B449A423BD2012323742B7A23F0DA
:1047F0007F032B72029BD3F8EC3C08F10108434580
:1048000006F1100683DC0DF580430EAD5833A3F19D
:104810000C00002605F5804309A909930A950B961B
:104820008DF83460FEF7D2FAB0F5804F044604D21A
:104830002E5410B9C34809F067FA079B069AE1188D
:10484000914202D9934206D2D41A059822461844BE
:1048500029460AF07BF80DF5004D17B0BDE8F08F42
:104860006360B9F1000FC1D0B7495A46BAF1000FE1
:1048700018BF5146484607F0C5FC002309F80B3025
:1048800049462B7A296023F07F0343F005032B72FE
:10489000B0E76360002E3FF420AFAB495246B9F158
:1048A000000F18BF4946304607F0ACFC002306F85D
:1048B0000A3031462B7A296023F07F0343F0050349
:1048C0002B720EE76360002E3FF485AE9E49524680
:1048D000B9F1000F18BF4946304607F093FC00239A
:1048E00006F80A3031462B7A296023F07F0343F023
:1048F00005032B7273E66360002E3FF4DFAD92492F
:104900005246B9F1000F18BF4946304607F07AFC0D
:10491000002306F80A3031462B7A296023F07F0302
:1049200043F005032B72CDE56360002E3FF445ADE7
:1049300085495246B9F1000F18BF4946304607F085
:1049400061FC002306F80A3031462B7A296023F0F7
:104950007F0343F005032B7233E56360002E3FF4C1
:10496000AAAC79495246B9F1000F18BF4946304602
:1049700007F048FC002306F80A3031462B7A2960FC
:1049800023F07F0343F005032B7298E46360002E4D
:104990003FF4FDAB6C495246B9F1000F18BF4946D0
:1049A000304607F02FFC002306F80A3031462B7AF8
:1049B000296023F07F0343F005032B72FFF7EBBB65
:1049C0006268A3681032934280F05F8101232374F0
:1049D0000020FFF799BB6268A3681032934280F011
:1049E0001081012323740020B6E66268A3681032A8
:1049F000934280F0F0800123237400202AE662684D
:104A0000A3681032934280F0D080012323740020E9
:104A10009EE56268A3681032934280F0B080012363
:104A20002374002007E56268A3681032934280F087
:104A300015810123237400207CE46268A36810328E
:104A4000934280F0F480012323740020FFF7F0BB31
:104A50006268A3681032934280F02E810123237490
:104A60000020FFF7EFBA6268A3681032934280F02B
:104A70009B81012323740020FFF71CBA6268A3689E
:104A80001032934280F06081012323740020FFF7ED
:104A9000D4B96268A3681032934280F03D8101234B
:104AA00023740020FFF76DB96268A3681032934247
:104AB00080F01A81012323740020FFF725B9626872
:104AC000A3681032934280F0D38101232374002025
:104AD000FFF7DEB86268A3681032934280F0AC81C1
:104AE000012323740020FFF785B86268A3681032A1
:104AF000934280F08981012323740020FFF73EB8A0
:104B00006268A3681032934280F0668101232374A7
:104B10000020FEF7F7BF6268A3681032934280F06E
:104B20002B81012323740020FFF74FBA6268A3682A
:104B30001032934280F0B381012323740020FFF7E9
:104B400007BA00BFD07101009E7B01006360002E98
:104B50003EF496AFC4493A46BCF1000F18BF614617
:104B6000304607F04FFB0023F35531462B7A29607E
:104B700023F07F0343F005032B72FEF785BFA3F1FB
:104B80001000A06000283FF44CAFA269002A00F09A
:104B9000BA81811A09115181A061002243F8047C75
:104BA00023F8062C03F8082C45E4A3F11000A060BC
:104BB00000283FF42CAFA269002A00F0A181811ADD
:104BC00009115181A061002243F8047C23F8062CCE
:104BD00003F8082CBCE4A3F11000A06000283FF407
:104BE0000CAFA269002A00F08881811A0911518155
:104BF000A061002243F8047C23F8062C03F8082C5B
:104C000028E5A3F11000A06000283FF4ECAEA269F3
:104C1000002A00F07E81811A09115181A0610022D1
:104C200043F8047C23F8062C03F8082C94E5A3F140
:104C30001000A06000283FF408AFA269002A00F02D
:104C40006581811A09115181A061002243F8047C19
:104C500023F8062C03F8082CFFF7EABAA3F110009A
:104C6000A06000283FF4E7AEA269002A00F054815A
:104C7000811A09115181A061002243F8047C23F8B4
:104C8000062C03F8082CFFF755BBA3F11000A06019
:104C900000283FF49DAEA269002A00F02B81811A02
:104CA00009115181A061002243F8047C23F8062CED
:104CB00003F8082CFFF728BAA3F11000A060002821
:104CC0003FF4CEAEA269002A00F04781811A091193
:104CD0005181A0610022654923F8062C03F8082CB5
:104CE00043F8041CFFF7AEB9A3F11000A060002840
:104CF0003FF4E2AEA269002A00F02C81811A09116A
:104D00005181A0610022594923F8062C03F8082C90
:104D100043F8041CFEF7F8BFA3F11000A0600028C0
:104D20003FF4BFAEA269002A00F01181811A091177
:104D30005181A06100224D4923F8062C03F8082C6C
:104D400043F8041CFFF71DB8A3F11000A060002871
:104D50003FF49CAEA269002A00F0F680811A091186
:104D60005181A0610022414923F8062C03F8082C48
:104D700043F8041CFFF761B8A3F11000A0600028FD
:104D80003FF4D1AEA269002A00F0DB80811A09113C
:104D90005181A0610022354923F8062C03F8082C24
:104DA00043F8041CFFF711B9A3F11000A06000281C
:104DB0003FF461AEA269002A00F0C080811A091197
:104DC0005181A0610022294923F8062C03F8082C00
:104DD00043F8041CFFF76EB8A3F11000A060002890
:104DE0003FF496AEA269002A00F0A580811A09114D
:104DF0005181A06100221D4923F8062C03F8082CDC
:104E000043F8041CFEF77EBEA3F11000A06000284A
:104E10003FF473AEA269002A00F08A80811A09115A
:104E20005181A0610022114923F8062C03F8082CB7
:104E300043F8041CFEF7A2BEA3F11000A0600028F6
:104E40003FF450AEA269002A6FD0811A0911518136
:104E5000A0610022054923F8062C03F8082C43F82A
:104E6000041CFEF7C7BE00BF9E7B01005871010005
:104E7000A3F11000A06000283FF429AEA269002A27
:104E800050D0811A09115181A0610022374923F8BD
:104E9000062C03F8082C43F8041CFEF7F9BEA3F116
:104EA0001000A06000283FF449AEA269002A36D065
:104EB000811A09115181A06100222C4923F8062C86
:104EC00003F8082C43F8041CFFF742B88C467AE438
:104ED0008C46FFF7DCB98C46FFF745B98C46FFF7E7
:104EE000E8BB8C46FFF763BB8C46FFF7D3BA8C4612
:104EF000FFF74FBA6061A061D5E66061A06178E616
:104F00006061A0615FE66061A06146E66061A061EA
:104F10009BE66061A06182E66061A061ACE66061D1
:104F2000A061C9E76061A061AFE76061A06190E73F
:104F30006061A06176E76061A0615BE76061A0618C
:104F400040E76061A06125E76061A0610AE76061F8
:104F5000A061EFE66061A061D4E66061A061B9E69E
:104F6000894600287EF47AADFEF77CBD58710100B9
:104F700010B590B004460AF075F820B9104808F052
:104F8000C3FE10B010BD0F480AF054FB40B90AF040
:104F90003DFA4FF6FF7102460A480AF067FB20B15E
:104FA0002046FEF703FD10B010BD6846054B064ACB
:104FB00040210DF0EBFE684608F0A6FEE1E700BFD9
:104FC0000C7201003871010044720100062905DCF1
:104FD0000029D8BF00214161FFF7CABF0721416105
:104FE000FFF7C6BF2DE9F04F037A03F07F03023BC2
:104FF00089B004460D463E2B00F26682DFE813F0CE
:105000008E008E00B400B4003B026402060164020C
:105010003A0164026C016402640264026402640284
:105020006402640264026402640264026402640250
:105030006402640264026402640264029F01640206
:105040006402640264026402640264026402640230
:105050006402640264026402640264026402640220
:105060006402640264026402640264026402640210
:105070006402640264026402640264023F004B6AD8
:1050800019445A1C02335B201F2B6A62087107D92E
:105090002A44002616712868291D06F075FE6E62E6
:1050A000AB6A24680133AB620CB32C26002705F1F0
:1050B000040814E014EB031419D06B6AE9185A1CA5
:1050C00002331F2B6A620E7106D92A4441461771BA
:1050D000286806F059FE6F62AB6A0133AB6229465D
:1050E0002046FFF77FFFB4F90A30002BE2D16B6A4C
:1050F000E9185A1C02335D201F2B6A62087107D918
:105100002A44002414712868291D06F03DFE6C62B3
:10511000A86A0130A86209B0BDE8F08F90E850009D
:10512000E6B104EB06084FF000090F1D01E044450D
:1051300014D06B6A14F8010BE9185A1C02331F2BA8
:105140006A620871F3D92A44394682F804902868C3
:1051500006F01AFE4445C5F82490EAD1A86A304406
:10516000A86209B0BDE8F08F4B6A0668CA18591CDE
:10517000023322201F2B6962107108D929440024B0
:105180000C712868291D06F0FFFD6C622146AB6A90
:10519000013306F1FF39AB625C274FF0000819F8C4
:1051A000016F1EB3222E00F0DD81C24B03E0DA78DE
:1051B000B24200F0D8811C790233002CF7D16A1872
:1051C0004B1C02311F296B62167107D92B44291D14
:1051D0001C71286806F0D8FD6C622346AA6A013269
:1051E000AA6219F8016F1946002EDBD16A184B1C10
:1051F000023122201F296B62107189D92B44291D8D
:105200001E71286806F0C0FD6E6281E70368AA4837
:105210000DF11E06B046A0FB0312D20802EB82017C
:10522000A3EB4103303308F8013D1346002AF2D1C5
:10523000B6EB080718D0144605F1040901E0B045A3
:1052400012D06B6A18F8010BE9185A1C02331F2B95
:105250006A620871F3D92A4449461471286806F035
:1052600093FDB0456C62ECD1A86A3844A86209B0DD
:10527000BDE8F08F0468002CA8BF2346C0F29C83D1
:105280000DF11E068C48B046A0FB0312D20802EBBB
:105290008201A3EB4103303308F8013D1346002A95
:1052A000F2D1B6EB0807DFD0144605F1040901E09E
:1052B000B045D9D06B6A18F8010BE9185A1C0233B3
:1052C0001F2B6A620871F3D92A4449461471286871
:1052D00006F05AFD6C62EBE70668314630460CF08A
:1052E00059FD002840F0768326F00044204673499B
:1052F0000CF050FD002840F0858120466F490CF0ED
:105300002BFD002840F07E816D4C0646271D05F1DF
:10531000040802E0BC4200F0F4806B6A14F8010B50
:10532000E9185A1C02331F2B6A620871F2D92A4409
:1053300041461671286806F027FD6E62EAE7496A61
:1053400068188A1C4B1C7B261F2A6B62067100F2B0
:105350006A82A86AD4F8008001300331A862B8F1EB
:10536000000F00F03E814FF022090026EA18591C78
:1053700002331F2BD8F80C40696282F8049007D9D9
:105380006B18291D1E71286806F0FEFC6E62002154
:10539000AB6A013304F1FF3BAB625C271BF801AF42
:1053A000BAF1000F26D0BAF1220F00F0B080414BC5
:1053B00003E0DA78524500F0AB801C790233002C10
:1053C000F7D16A184B1C02311F296B6282F804A0C6
:1053D00007D92B44291D1C71286806F0D5FC6C6286
:1053E0002346AA6A0132AA621BF801AF1946BAF134
:1053F000000FD8D16B18881C4A1C1F286A6283F8DA
:10540000049000F2CE80AB6A68622A440331013313
:105410003A241F29AB62147109D92B18291D83F86E
:1054200004A0286806F0B0FCAB6AC5F824A00133DC
:10543000AB6229464046FFF7D5FDB8F90A30002B8C
:1054400000F0CC8018EB031800F0C8806A6AA91835
:10545000531C02322C201F2A6B62087107D92B447F
:10546000291D1E71286806F08FFC6E620023AA6A4F
:105470000132AA627AE70678002E40F0B981114C19
:1054800001F10408671D02E0A74200F0AD816B6ADC
:1054900014F8010BE9185A1C02331F2B6A620871B9
:1054A000F2D92A4441461671286806F06DFC6E62F6
:1054B000EAE700BFFC700100CDCCCCCCFFFF7F7FC2
:1054C0001071010030710100B94C4FF00008271D28
:1054D0000E1D01E0BC4214D06B6A14F8010BE918F0
:1054E0005A1C02331F2B6A620871F3D92A443146D1
:1054F00082F80480286806F047FCBC42C5F8248086
:10550000EAD1A86A0430A86209B0BDE8F08F544619
:105510006B18881C4A1C1F286A621F7114D8AB6A5A
:1055200068622A44033101331F29AB62147117D911
:105530002844291D0671286806F026FCAB6A6E62B5
:1055400000210133AB6229E72A44291D167128681E
:1055500006F01AFCAB6A2C7101210B446962F0E77A
:105560000146EEE734466B18881C4A1C1F286A6205
:105570001F7124D8AB6A68622A44033101331F29A2
:10558000AB62147128D92844291D80F8048028684A
:1055900006F0FAFBAB6AC5F8248000210133AB6248
:1055A000FDE52A44291D82F804A0286806F0ECFBDA
:1055B000AB6A01213A220B4469622A7137E72A4417
:1055C000291D82F80480286806F0DEFBAB6A2C7186
:1055D00001210B446962E1E70146DFE76B6A5A1C6F
:1055E000991C2B447D201F296A6218717FF690ADAB
:1055F0002A44002414712868291D06F0C5FBA86AF6
:105600006C6286E5002130460CF09CFB002840F0DF
:10561000C481684930460CF0A9FB002800F02181C4
:10562000654CDFF8A091A4F1180A00274FF020087C
:10563000314654F8040D0CF08FFB38B13046D9F8E0
:1056400000100CF0E1F9474406463FB254454FEADA
:105650006808A9F10409EBD14FF0FF34002130466E
:105660000CF08EFB08B3554930460CF075FBE0B1E9
:10567000621C1AD0DFF85091DFF850A10FFA84FBBA
:10568000314659F82B000CF07BFB40B130465AF8FC
:105690002B100CF0B9F9C8EB070706463FB2013CE6
:1056A00064B2631C4FEA6808E8D130460CF0AEFBE8
:1056B0000928814640F2C981DFF814A14049034618
:1056C0000522A1FB0303DB08A1FB0A0A092B02F157
:1056D000FF3054B24FEADA0AC2B2F2D850460CF0A8
:1056E0003BF9804648460CF037F9014630460CF04D
:1056F00081F841460CF088F906460CF087FB80469D
:105700000CF02AF9014630460CF074F801460CF012
:1057100073F80CF07BFB8044D045C0F0978009F112
:105720000109002F40F0A2804FF00008002C10DD8E
:10573000234A00E06CB1A2FB08384FEAD808A2FB6C
:105740000813DB0803EB8303013CB8EB430F64B29F
:10575000F0D00DF11E061A49B246A1FB0923DB0861
:1057600003EB8302A9EB420230320AF8012D99467D
:10577000002BF2D1B6EB0A0B2FD02A1D01E0B24567
:1057800028D06B6A1AF801EBE818591C02331F2B5A
:10579000696280F804E0F2D96B18114683F804902E
:1057A0002868019206F0F0FAC5F82490019AE6E71D
:1057B000107101008096184B746E0100ACC527373C
:1057C000CDCCCCCC586E01002C6E01005C6E01007B
:1057D00040420F00AB6A5B44AB62002C4FD1002FFC
:1057E00040F09280A86A96E4A86A0530A86292E424
:1057F000A04C0027261D01F1040802E0B4423FF44A
:1058000080AE6B6A14F8010BE9185A1C02331F2B87
:105810006A620871F2D92A4441461771286806F075
:10582000B3FA6F62EAE72B4400261E712868291D2F
:1058300006F0AAFAA86AD4F800806E620130A86265
:10584000B8F1000F00F0078133468CE58A4BA3FBCB
:105850000823DB0803EB8303B8EB430F3FF466AF89
:1058600077E707464FF020080524F7E6B9F1090F5E
:105870007FF65AAF01373FB24FF0010954E7631E7C
:105880005BB2DBB208AAC3EB020E06A8DFF8E8C1E0
:10589000AEF1090E0446ACFB0812D20802EB8201FD
:1058A000A8EB4101303104F8011D74459046F2D156
:1058B000DB43C41823462E2203F8012DB0EB030866
:1058C0001ED0A8F10209A1444FF0000A023C05F1E4
:1058D000040B01E04C4513D06B6A14F8010FE91872
:1058E0005A1C02331F2B6A620871F3D92A445946A5
:1058F00082F804A0286806F047FAC5F824A0E9E772
:10590000AB6A4344AB626AE76B6AE9185A1C02331C
:1059100065201F2B6A62087107D92A44002414717C
:105920002868291D06F030FA6C62AB6A002F03F17B
:105930000103AB62A8BFBFB270DB4F483246A0FB89
:105940000713DB0803EB8301A7EB410707F13001E5
:105950009FB202F8011D002FF1D1B6EB020817D05B
:10596000144605F1040901E0B44211D06B6A14F841
:10597000010BE9185A1C02331F2B6A620871F3D914
:105980002A4449461771286806F0FEF96F62EBE772
:10599000A86A4044A862FFF7BEBB6B6AE9185A1CAC
:1059A00002332D201F2B6A6208715AD8AB6A01336B
:1059B00006F10046AB622CE64B6A19445A1C0233CE
:1059C0002D201F2B6A6208711FD8AB6A5A1CAA626D
:1059D000634255E4294C002604F104082F1D02E01F
:1059E00044453FF48EAD6B6A14F8010BE9185A1C5C
:1059F00002331F2B6A620871F2D92A4439461671A4
:105A0000286806F0C1F96E62EAE72A44002616719A
:105A10002868291D06F0B8F96E62D6E76A6AA818E8
:105A2000511C02322D241F2A6962047108D92944AD
:105A300000240C712868291D06F0A6F9AB6A6C6277
:105A400001337F42AB62BFB277E7DFF83480DFF823
:105A500034A0062446E601227D236A622B71FFF7FB
:105A600058BB2A44002414712868291D06F08CF9BB
:105A70006C629BE728710100CDCCCCCC1071010089
:105A80000024744940420F00F0B50C4607460FCC85
:105A9000A1B06D460FC50FCC0FC594E8030085E893
:105AA00003006E460FCE0AAC0FC40FCE0FC495E8AC
:105AB000030084E803000AAE0FCE14AD0FC50FCE6D
:105AC0000FC594E80300139B20AA134485E8030044
:105AD00000240BA90A9803F8544C1E9406F054F9BC
